:020000041000EA
:1000000000200008EB0000100D0000004D01001062
:1000100000000000000000000000000000000000E0
:100020000000000000000000000000004901001076
:10003000000000000000000049010010490100100C
:100040004901001049010010490100104901001048
:100050004901001049010010490100104901001038
:100060004901001049010010490100104901001028
:100070004901001049010010490100104901001018
:1000800010B5064C2378002B07D1054B002B02D06E
:10009000044800E000BF0123237010BDB003000836
:1000A0000000000014150010044B10B5002B03D005
:1000B0000349044800E000BF10BDC0460000000036
:1000C000B4030008141500100230800803D001307A
:1000D0000238FCD1C046C0467047EFF3108072B6BC
:1000E000704780F3108870477047FFF7FDFF72B6C6
:1000F0000F4C104DAC4209DA21686268A368043BDA
:1001000002DBC858D050FAE70C34F3E70A490B4A2F
:100110000020521A02DD043A8850FCDC08480949E4
:100120000860BFF34F8F00F0FFFE00F0AFFEFEE768
:100130002015001038150010B0030008C80500088D
:100140000000000808ED00E0FEE7FEE700B504202F
:100150007146084202D0EFF3098001E0EFF3088016
:10016000043000F093FCFEE7014B18607047C04676
:10017000C4050008044B1B681A00BA3212881B6AB7
:100180005043C0187047C046C40500081D4B984234
:100190000FD010D840282FD005D8002830D01028F4
:1001A00028D019481EE0802828D080235B00984280
:1001B000F7D1144816E0154B984214D008D8A02364
:1001C0001B0698421CD0124B9842EAD1A0200BE0AB
:1001D000104B98420AD0104B984209D00F4B9842CE
:1001E000DFD10F487047A420C003FBE70D48F9E7B3
:1001F0000D48F7E70D48F5E70D48F3E70D48F1E73F
:100200000020EFE706005200FF005200010000F05E
:10021000090000A0040000F0050000F0030000F059
:100220000100520002005200030052000100500081
:10023000020050000500520010B50020FFF79AFFA1
:100240000A4B1C682300BC331B68C0180368002BD2
:100250000ADB074B1868FFF799FF012263689A6071
:100260009A68002AFCD110BD0248FCE7C4050008CA
:10027000CC03000802005000064B1B68BC331B680F
:10028000C3181B68002B03DA89B241600020704755
:100290000148FCE7C405000801008A000368002B40
:1002A00004DA89B2C2608160002070470048FCE730
:1002B00001008A00064B1B68BC331B68C3181B680F
:1002C000002B03DAC36800200B6070470148FCE78D
:1002D000C405000801008A00024B1A68002A00D1F8
:1002E00018607047E0030008F0B52C246043154CFB
:1002F0001F0024681D0A2018FF2425402740124CA7
:100300001B0C26680760346A45608360BA363688FD
:1003100077433F1907612F0080376D017F01E7198F
:1003200064190A4D47611F043B436419236000238D
:100330008361059BC2610162002B01D01B88838110
:10034000F0BDC046E0030008C40500080810000026
:10035000F0B5836885B002AD2B80154B02681B6831
:10036000066A1B8F476A9B186B8043680095826AF8
:10037000C16A040003930369C068FFF7B5FF002159
:100380003B000A0000913000FFF7AEFF216B280010
:1003900000F030FB0022AB5E002B06DB1F22134077
:1003A0001E3A9A401300034A136005B0F0BDC046E0
:1003B000C405000800E100E0F7B52C25134C6843A4
:1003C000266869433418256901937118002D19D0E6
:1003D0008869002818D12E68002E15DA6768012474
:1003E00026004B689E40B44613689EB263461B04C9
:1003F0001E431660EA608C61BC40019BA4B24B6254
:10040000AC60FEBD0248FCE70248FAE7E0030008E2
:1004100004028A0007028A0073B5002642690400BC
:10042000D56801962B0CB34221D01B0413601368CE
:10043000194B00691B68BC331B68C3181B68B342A7
:1004400015DA01A9FFF736FFB0420CD10198E26935
:1004500003681E0CDBB29A4205D9226A9B009B58A6
:10046000002B00D0984731002069FFF705FFADB29F
:10047000002D09D063691D6000251B68636AAB42CB
:1004800005D098476562A56163691B6873BDA36A5F
:10049000002BF8D09847F6E7C40500082C2310B5C8
:1004A0004343034A1068C018FFF7B6FF10BDC046AB
:1004B000E0030008F8B5194B0F001B681A0033322F
:1004C0001278824227D9002925D01F250A681540B5
:1004D00021D11900BA310C88114E60431C6AD20830
:1004E000041929007868346000F07EFF290020009C
:1004F000FFF7C2FE3A0029003068FFF7CFFE041E66
:1005000007D101003068FFF7B7FE03002000002B81
:1005100000D00448F8BD0448FCE7C046C405000804
:10052000E403000801018A0003018A0010B5002AD3
:100530000DD1002914D10B4B1A681300BA331B8854
:100540005843136AC018084B1860080010BD0029F2
:1005500006D0064B196019005A60FFF7ABFFF5E7AC
:100560000348F3E7C4050008E40300087803000823
:1005700003018A00F7B5184F04003B680191DE685B
:100580003368834226D90025A94202D1FFF7A5FD91
:10059000050038680368002B1ADA1F220123224065
:1005A000934064097268A4001419226813420DD0A4
:1005B0009A43226000240021FFF75EFE019B002B7E
:1005C00002D12800FFF78DFD2000FEBD034CF2E7AD
:1005D000034CF3E7034CF7E7E4030008020188004B
:1005E0000301880004018A000A4B1B68DB681A6853
:1005F00082420DD959681F23420918401E3B83408F
:10060000920050581840431E9841034BC018704741
:100610000248FCE7E40300080001880004018A00A6
:10062000054B1B681A0088321B6812689B181868F3
:10063000000AC0B27047C046C4050008044B1B68DE
:100640001A0088321B6812689B181868000E7047E1
:10065000C4050008024B18694007C00F7047C04628
:1006600000002740A6220549D2008B580220DB4318
:100670009B0702D00123885818407047000026408D
:1006800010B5FFF7EFFF0023022801D1014B1B68D3
:10069000180010BDEC030008094A83009B18D02203
:1006A0009200985807221040042807D1C0229200D7
:1006B00098581F2303408020400018437047C046CD
:1006C0000000264010B5FFF7E7FF02281CD005D830
:1006D000002824D0012814D0002014E01223FF3376
:1006E000984214D01423FF33984215D0033B98420C
:1006F000F2D10C4A0C4BD358002BEDDA80200002CB
:1007000001E00A4B186810BDFFF7BAFFFBE7FFF7DF
:10071000A1FF0028E0D0F1E7024A054BEBE70548CE
:10072000F1E7C046000026400C050000E803000881
:100730003C05000000127A00B023154ADB00D358B4
:1007400010B59903DB01DB0F890BC371114B0160FD
:10075000D3580F24D904DB01DB0D0381B123DB0067
:10076000D358C90C81801900214081721909214098
:10077000C172D9029B009B0F8373074BC90CD358DE
:1007800081815A05DB01520FDB0D8271038210BD9E
:1007900000002640840500008C05000010B5104BB9
:1007A000421E1B683F331B78934216D97F221F24B9
:1007B0008030FF300B4B8000C3581A400A701A0C6F
:1007C0002240180A8A701A012040E2404870002036
:1007D0009B009B0FCA700B7110BD0348FCE7C0461D
:1007E000C40500080000264001004A00F0B589B0A9
:1007F00003AC14220021200000F0F6FD2000FFF7DA
:100800009BFFB0231A4ADB00D25800239A4203DA36
:10081000A37B023B5A1E9341E57900266A1E95414F
:100820000135B34221D0A488B4421ED0039B3000CE
:100830000193FFF747FF2A00330007003100200033
:1008400000F0BCFC0C0005003300019A31003800B8
:1008500000F0B4FCE6076A08324363088018594187
:100860002A00230000F08AFC0600300009B0F0BD29
:1008700000002640F0B50026244B85B01B68070019
:100880003F331B78B3423ED0B0423CD083423AD390
:100890000522310002A800F0A7FD02A93800FFF7E9
:1008A0007DFF3B008033FF33194A9B009B58B342C6
:1008B00029DA02AB1B79022B25D002AB5C78B4425B
:1008C00021D09D78B5421ED01B7838000193FFF7E8
:1008D000F9FE2A00330007003100200000F06EFC12
:1008E0000C0005003300019A3100380000F066FC6E
:1008F000E6076A0832436308801859412A0023003A
:1009000000F03CFC0600300005B0F0BDC405000856
:100910000000264010B5041E04D1FFF767FF002831
:1009200006D008E0064B1B683F331B78834203D296
:100930002000FFF7C7FE10BDFFF79CFFEFE7C046A2
:10094000C4050008E02210B50124094B8000920084
:10095000C018835880589B069B0F9C400F2318405B
:10096000FFF7D8FF63081818210000F07BFB10BDCB
:1009700000002640144B30B51A68072413002C33AE
:100980001B781F2B15D883081D00A5432C1E0FD1E3
:1009900003342040A040814012689B002032D318CD
:1009A0000A00FF2181401C686240114061401960CB
:1009B00030BD802320401B06184380239B01126812
:1009C000C91889008850F3E7C4050008064B9A68E7
:1009D0000300064810339B00824202D19858995078
:1009E0007047034AD058FBE700ED00E00000000824
:1009F00000000010F8B506000D0000283AD00023D2
:100A0000C05E002828DB7188FFF7B4FF0024FF22B6
:100A1000032794460023F05E716883B21F40FF00F5
:100A20006646BA4089013140D243B940002815DBFF
:100A3000114E83089B009B19C026B6009F593A406F
:100A4000114399510D4B9A680D4B9A4202D12900DE
:100A5000FFF7BCFF2000F8BD0A4CD8E70F26334053
:100A6000083B064E9B089B009B19DE6932401143F0
:100A7000D961E7E7034CEDE700E100E000ED00E0BD
:100A80000000000801005600FEE7000002680A4B63
:100A900010B51A6042685A6082689A60C268DA606B
:100AA00002691A6142695A6182699A61C269DA61AE
:100AB000FFF7EAFF10BDC04690030008B0235B05B6
:100AC0005A782120002A01D05878C0B27047B0234C
:100AD0005B059A89002A02D0988980B270478020ED
:100AE0004000FBE77FB5274B86000D00F458042932
:100AF00001D0012927D100200FE0A3682B420BD1A0
:100B0000E36829001A685B6802920193039302A8C4
:100B1000236898471C4B1C606469002C0BD01B4B4E
:100B20009842EAD1012DE8D1174B18481A68184BA2
:100B30009A5104B070BD012DFBD1144B9842F3D0F3
:100B4000134B9C51F5E7022906D10F4B1B68181E69
:100B5000EFD01C6903E01C006369002BFBD100206F
:100B6000002CE6D0A3682B4209D1E36829001A685B
:100B70005B6802920193039302A823689847246953
:100B8000EEE7C046300400082C040008FF004200D5
:100B9000180400081A4B1B68190088311A68096884
:100BA00051180968016219008C31096852181268DD
:100BB00042621A0046321278002A1FD09A68E03248
:100BC0001268D2061AD5F222DB68D2019A58026066
:100BD000F022D2019A5842600A4A9A5882600A4A20
:100BE0009A58C260094A9A580261094A9A58426161
:100BF000084A9A588261084A9B58C3617047C046A8
:100C0000C405000804780000087800000C78000093
:100C10001078000014780000187800001A4B1B6848
:100C20001A008832196812688A18016A11601A005D
:100C30008C32196812688A18416A11601A004632AB
:100C40001278002A1ED09A68E0321268D20619D5AE
:100C5000F0224168DB68D201995081680B4A9950B3
:100C6000C1680B4A995001690A4A995041690A4A78
:100C700099508169094A9950C169094A9950016896
:100C8000E83299507047C046C40500080478000057
:100C9000087800000C78000010780000147800003C
:100CA00018780000F7B50700FFF708FF664D06004B
:100CB0006B68002B00D07DE0FFF70FFA6B680090A7
:100CC000002B00D089E0614C22681300BA331988E8
:100CD00007234B43126A9B181A68002AFCDADB6868
:100CE000DA0021D51B0F1B0759480193FFF752FF6C
:100CF0005849212E00D075E02268902013008833D7
:100D00001C68136800011C1923680B40034323600F
:100D100013008C3312681B68D3181A6811400843FB
:100D200018604B4B019A13438022484E920531685C
:100D300013430A00BA321088072200244243096A8A
:100D40005218D36054605368FFF7C1FE80235B00E4
:100D500098425DD1380000F05BFB32681300BA3373
:100D6000198807234B43126A9B181A68002AFCDA79
:100D7000DF68FB0003D538010009FFF74FFF364B52
:100D800032681F401300BA33198807234B43126A95
:100D900000989B180022DF605A60FFF7A2F9002C30
:100DA0000FD16B68002B03D008210120FFF79AFEBA
:100DB0002000FEBD01210800FFF794FE041E00D1B3
:100DC0007AE76B68002B03D002210120FFF78AFE2F
:100DD000224B9C42ECD0224CEAE704210120FFF791
:100DE00081FE70E720688022030088331C68036856
:100DF00052001C1923680B401343236003008C33FB
:100E000000681B68C318186801400A431A6088E725
:100E100033681A00BC32196A126852181168002926
:100E200010DBBA331B889A181368002B0ADB0423E3
:100E30000C4A11690B431361012F01D030BF8CE7BD
:100E400020BF8AE7054C88E730040008C405000885
:100E5000F0030008FF00FFFFFFFFFFDF0500420077
:100E6000FF00420000ED00E0C02280200649520051
:100E70008B58C0059B009B0803438B5080238858E8
:100E80001B0603438B5070470000264010B562B626
:100E9000034800F0C1F80020FFF704FFFBE7C0465D
:100EA0000020001010B50020FFF7F8FA10BD7047C1
:100EB00010B50020FFF746FD041E25D0134B186027
:100EC000FFF7BCFB411C200000F0CCF8104B0400E5
:100ED0001860FFF7A5FB411C200000F0C3F80D4B84
:100EE000441E18600C49200000F0BCF8FA210B4B9E
:100EF000013018708900200000F0B4F8084B013070
:100F00001860084BC003186010BDC046840000087C
:100F1000880000088000000840420F00940000088C
:100F2000900000088C00000810B52048FFF71CF95D
:100F3000B022E02130201E4CD200A35889005B0073
:100F40005B08A35063588343635080235B04A35022
:100F5000184B194AE250A02204339201E250FF22BA
:100F6000164BE250FFF780FFC02201215200A35828
:100F70008B43A350FFF79BFFFFF79AFF104B032013
:100F80001A681300BA33198807234B43126A802169
:100F90009B180022DA605A600A4AFFF7C7FA0A482B
:100FA000FFF79AF90948FFF7D3F910BD2014001094
:100FB0000000264084050000010002008C050000AE
:100FC000C40500088003000844040008E014001071
:100FD0009023034A5B01D058032318407047C04652
:100FE0000000204010B59024FFF777F8074B64010C
:100FF0001A5907491140074A0A431A5110225968E1
:101000001142FCD0FFF76DF810BDC0460000204033
:10101000FCFF00000100FA05F8B590250E4C6D01AB
:101020000700FFF75AF863590600DB439B0701D11D
:10103000FFF7D8FF80239B00E7506359074A1A4007
:10104000074B13436351102362681A42FCD03000EF
:10105000FFF747F8F8BDC04600002040FCFF000045
:101060000300FA05002243088B4274D303098B4224
:101070005FD3030A8B4244D3030B8B4228D3030C68
:101080008B420DD3FF22090212BA030C8B4202D30A
:101090001212090265D0030B8B4219D300E0090A32
:1010A000C30B8B4201D3CB03C01A5241830B8B423B
:1010B00001D38B03C01A5241430B8B4201D34B0324
:1010C000C01A5241030B8B4201D30B03C01A524189
:1010D000C30A8B4201D3CB02C01A5241830A8B420E
:1010E00001D38B02C01A5241430A8B4201D34B02F7
:1010F000C01A5241030A8B4201D30B02C01A52415B
:10110000CDD2C3098B4201D3CB01C01A524183090E
:101110008B4201D38B01C01A524143098B4201D348
:101120004B01C01A524103098B4201D30B01C01A73
:101130005241C3088B4201D3CB00C01A52418308ED
:101140008B4201D38B00C01A524143088B4201D31A
:101150004B00C01A5241411A00D20146524110467A
:101160007047FFE701B5002000F006F802BDC04659
:101170000029F7D076E770477047C046002B11D1A1
:10118000002A0FD1002900D1002802D00021C94334
:10119000081C07B4024802A14018029003BDC046D3
:1011A000D9FFFFFF03B4684601B5029800F030F89C
:1011B000019B9E4602B00CBC7047C046F0B5CE46BF
:1011C000474615042D0C2E0080B50704140C3F0C67
:1011D0009946030C7E435D43674363437F19340C98
:1011E000E4199C46A54203D980235B029846C44477
:1011F0004B4643435143250C36046544360C2404C6
:10120000A4195B19591820000CBC90469946F0BDF2
:10121000F0B54F464646D646C0B5040082B00D0034
:10122000914698468B422FD82CD04146484600F034
:10123000CFF829000600200000F0CAF8331A9C46B7
:10124000203B9A4600D576E04B46524693401F001D
:101250004B46624693401E00AF4228D825D05346E5
:10126000A41BBD41002B00DA7BE00022002300928A
:101270000193012352469340019301236246934018
:10128000009318E08242D0D90022002300920193FB
:101290000A9B002B01D01C605D600098019902B090
:1012A0001CBC90469946A246F0BDA342D7D9002265
:1012B0000023009201936346002BE9D0FB07984678
:1012C000414672080A437B0866460EE0AB4201D1F4
:1012D000A2420CD8A41A9D41012024196D4100217D
:1012E000013E24184D41002E06D0AB42EED9013EFE
:1012F00024196D41002EF8D1009801995346001928
:101300006941002B23DB2B005246D3402A00644660
:10131000E2401C0053461500002B2DDB26005746EB
:10132000BE40330026006746BE403200801A994115
:1013300000900191ACE7624620239B1A4A46DA40AE
:101340006146130042468A4017001F4380E7624609
:1013500020239B1A2A0066469A402300F340134339
:10136000D4E76246202300219B1A002200910192BB
:101370000122DA40019280E72023624626009B1A70
:10138000DE402F00B0466646B74046463B0033433A
:10139000C8E7C0461C2101231B04984201D3000C5E
:1013A00010391B0A984201D3000A08391B099842D8
:1013B00001D30009043902A2105C40187047C046EE
:1013C000040302020101010100000000000000000E
:1013D00010B5002903D1FFF7DDFF203002E0081C23
:1013E000FFF7D8FF10BDC04603001218934200D18A
:1013F000704719700133F9E7F8B5C046F8BC08BC6E
:101400009E467047F8B5C046F8BC08BC9E4670477B
:1014100001B40248844601BC604700BF6102000875
:1014200000002040000024400000004000000000B8
:1014300000002340000030400000314000009F4089
:10144000000022400000104000009D40202020208D
:1014500020101010101D1D8017007500FF030602DC
:1014600006003604102000007FC0000000040000C9
:10147000000000000019324B647D00000000008075
:101480004000080B100000000000FF012002001FB8
:1014900000800004FF081018001000140018001C41
:1014A0004044484C500000000810000008000000B4
:1014B00004000000041000000012000004210000DD
:1014C000002100000016000040114002C413001368
:1014D0008013A01340138813A81320001C000000E1
:1014E00003000000010000000100000000000000F7
:1014F000050360000400000001000000000000007F
:10150000010000000604600008000000A4050008B7
:10151000A50E001000000000F8FCFF7F0100000095
:1015200000000010000000088000000040150010BE
:1015300080000008F8020000B00300081802000054
:1015400000093D0000127A0000093D000000D007AC
:10155000A00F000004000000A9000010810000108E
:1015600080B230B5C00020D0104B07221C68230089
:10157000BA331B885A43236AD31819680029FCDA46
:101580003E210B4B062519600A4B0B491960A3211C
:101590000A4BC9005D500A4958505858206A121821
:1015A000002050605A58002AFCDA30BDC4050008FB
:1015B00004012640080126401E1F000000002640AE
:1015C0001C05000010B54378FF2B11D100F0ECF89A
:1015D0000400032000F0F8F8C3685A68012311687A
:1015E0001943116011681942FCD1200000F00CF978
:1015F00010BDF7B500900020019100F0E5F83F4DD7
:1016000006002B681A005033BC3214681B7804198A
:10161000002B5AD000F0E0F8070003281BD000F0A0
:10162000C3F8374A374B0500D358002B3EDA364A09
:101630000121300000F0F0F8002837D10198FFF7C1
:101640008FFF009B002B3ED02368002BFCDB00F0BB
:10165000B3F804002BE0062000F0B6F82B68BC338A
:101660001B68C0180368002B02DA284C2000FEBD5E
:10167000002000F0B9F8264B9842F6D00023254A06
:1016800019001268012000F0B7F80025A842ECD13B
:10169000002000F0A9F81E4A1F4B904203D09D4243
:1016A000E3D00135F4E79D42B9D1DEE7174C032FB3
:1016B00005D10121002000F0B7F80028F9D1280059
:1016C00000F0A2F8D2E7154CF1E700F06DF80E4AF1
:1016D00005000121300000F09FF8002809D1009B8F
:1016E000002B08D02368002BFCDB00F065F8040019
:1016F000E5E7064CE3E7094CE1E7C046C40500080E
:10170000000026401C050000CC0300080500520024
:1017100001018800DC030008F049020001005000CC
:10172000184BF7B51B68184A5C68042311690B4312
:101730001361012824D030BF2300FC331B69002B28
:101740001DD1A320114B1249124AC0000F681E5828
:1017500015680195104D0D6006251D503E20106046
:101760000E483E351D501D58002DFCDA0C48FC3447
:1017700020610F60A321C9005E50019B1360F7BD7B
:1017800020BFD9E7C405000800ED00E000002640B6
:1017900008012640040126401E1F00001C05000011
:1017A000AAAAAAAA0000000001B40248844601BC0B
:1017B000604700BFDB00001001B40248844601BC52
:1017C000604700BF3902001001B40248844601BCE2
:1017D000604700BF7501001001B40248844601BC97
:1017E000604700BFD10F001001B40248844601BC1D
:1017F000604700BFE905001001B40248844601BCFF
:10180000604700BFB903001001B40248844601BC20
:10181000604700BFE300001001B40248844601BCE9
:10182000604700BF9D02001001B40248844601BC1D
:10183000604700BF750500100000000000000000B8
:101840000000000000000000000000000000000098
:1020000000F80F08252300100D0000009923001090
:10201000992300109923001099230010000000005C
:10202000000000000000000000000000E1C10010FE
:10203000952300100000000081C20010E5C20010CE
:102040009523001095230010952300109523001070
:102050009523001095230010952300109523001060
:102060009523001095230010952300109523001050
:102070009523001095230010952300109523001040
:1022E00010B5054C237833B9044B13B10448AFF350
:1022F00000800123237010BDC02F000800000000E3
:102300008CB1101008B5034B1BB103490348AFF360
:10231000008008BD00000000C42F00088CB1101020
:1023200070477047FFF7FCFF72B6144C144DAC4277
:1023300009DA21686268A368043BA2BFC858D0507C
:10234000FAE70C34F3E70F490F4A00209142BCBF73
:1023500041F8040BFAE70D480D490860BFF34F8FB1
:1023600000F048FA00F02CFA09F0E4F868F0C2FC3A
:1023700001F008FB68F08AFCFEE7000098B110103D
:10238000B0B11010C02F0008C038010800200008AC
:1023900008ED00E0FEE7FEE700B5042071460842C4
:1023A00002D0EFF3098001E0EFF30880043047F03A
:1023B0007FF8FEE708B500F0ADF800F007F800F090
:1023C0009BF800F017F800F01DF808BD08B50021D3
:1023D000084645F05DFF00221146104645F0D6FD47
:1023E0000021084645F016FF014840F0C7FD08BD32
:1023F000B811071008B5002211462F2045F0D2FE73
:1024000008BD000010B5264C264A0021204643F0A6
:1024100091FF254840F0B2FD244A0121204643F0B7
:1024200089FF234840F0AAFD224840F0A7FD04F5AB
:102430004074214A0421204643F07CFF1F4840F0AD
:102440009DFD1F4A0621204643F074FF1D4840F0C1
:1024500095FD1D4A0721204643F06CFF1B4840F0C4
:102460008DFD1B4840F08AFD1A4840F087FD1A4850
:1024700040F084FD194840F081FD194840F07EFD90
:10248000184840F07BFD184840F078FD174840F0B0
:1024900075FD174840F072FD164840F06FFD10BD05
:1024A0000000314090120710C4120710C812071024
:1024B000FC120710D0110710581207108C120710C9
:1024C0002012071054120710E81107101C120710F1
:1024D000BC110710C0110710C4110710C811071054
:1024E000CC110710D4110710D8110710DC110710F8
:1024F000E0110710E4110710044B332242F20801E7
:102500005A5042F210015A50704700BF000030404C
:10251000FEE7000030B583B09621002047F01AF89E
:1025200046F0AAFFB0B9784B1C6804F03F0446F0AF
:1025300093FF30B1012046F085FF744B9B6C002B5C
:1025400023DB714B1C6046F025F946F011F90120A0
:1025500046F034F9012047F03FFD47F0E7FC47F033
:10256000BFFD47F0A9FD0021084646F0A1F8002074
:1025700046F00CF8012045F0F1FF002045F004FF83
:10258000634B1B6893F83F4006E00620FFF7C0FF4F
:10259000204646F06FFB013C002CF9D100210120C0
:1025A00046F07AF9002046F071F8002800F091809A
:1025B00046F026FA0021084646F06EF9002108464A
:1025C00046F044F8534D0024009423462246214609
:1025D000284643F0BDFD00942346224601212846AB
:1025E00043F0B6FD4C4846F09DF800287DD101200F
:1025F00045F09CFF002045F0C9FF002045F0AEFFEC
:10260000002045F0C1FE0021012046F045F90021DF
:10261000084646F041F90021022046F03DF900212C
:10262000032046F039F90021042046F035F9002155
:10263000052046F031F9394846F0FCF9002857D119
:10264000374846F0A7FA002855D10021084645F042
:10265000FDFF0021084646F02BF83249012046F0E4
:102660002FFB00284AD142F21071012046F0B0FB46
:10267000002846D145F050FF002045F007FF00201C
:1026800045F024FF45F036FF002047F033FD0120E0
:1026900045F0E4FE46F06CF8012046F08FF8642126
:1026A000002046F057FF00F051F81F4840F066FC4C
:1026B0001E4840F063FC1E4840F060FC1D4840F09E
:1026C0005DFC1D4840F05AFC1C4840F057FC03B02C
:1026D00030BD46F00FF940F2111398427FF468AF15
:1026E0000121002045F0B2FF62E70520FFF710FF4F
:1026F0000420FFF70DFF0420FFF70AFF0320FFF778
:1027000007FF0320FFF704FF00FF274000002740DA
:10271000CC3201080000314040420F000013071086
:10272000400D03002C130710141307101813071083
:102730001C13071020130710241307102813071069
:1027400008B5012044F022F808BD704710B50020FC
:1027500046F05CFD00B910BD0446114B186045F011
:102760000BFF0130B4FBF0F00E4B186045F01CFF7E
:102770000130B4FBF0F40C4B1C60013C0B4BA3FB91
:1027800004239B0C01330A4A13700A4BA3FB042356
:102790009B090133084A1360DB03084A1360DAE738
:1027A000082600080C2600080426000883DE1B43C8
:1027B00018260008D34D62101426000810260008C1
:1027C00008B5094843F078F8FFF7BFFFFFF7BEFFF1
:1027D00000221146032044F025F8044843F0A4FEEB
:1027E000034843F0F5FE08BD648609107C300008FC
:1027F0003413071008B501F084FF074AD2F8883077
:1028000043F47003C2F88830BFF34F8FBFF36F8F6C
:1028100001F07BFF08BD00BF00ED00E008B50448F3
:1028200047F018F808B1002008BD0248FCE700BFD7
:102830001C26000800000206004870470432000809
:1028400010B584B040F098FB044638B154B1FFF79E
:10285000B1FD6CB184B1204604B010BD42F07AF8ED
:102860000446F3E740F6E441002042F031F9EEE798
:10287000FFF7D4FF0446EDE71323029312230193DD
:1028800011230093102315221421024841F042FB2A
:102890000446E0E704320008002393420AD230B431
:1028A000CC5CC55C6C40C4540133DBB29342F7D3BB
:1028B00030BC7047704700002DE9F04F87B0BA4830
:1028C00069F034FDB949BA4809F0FEFA48B9B74B86
:1028D0006422B849002009F025FB002871D10024AA
:1028E0000BE0B54869F022FD01BEF0E7B14B195D80
:1028F000B24869F07FFC0134E4B2632CF6D9B048E9
:1029000069F014FDAB4B1E783EB9AE4869F00EFD80
:10291000002635463446374678E0AB4B1E70AB4D4B
:1029200032462946AA4868F081FA731C013DEC5CE6
:10293000A84B1C70B11C22462944A74868F076FABF
:102940003444A31CEA5CA54B1A7003342919A4482B
:1029500068F06CFAA34869F04DFC00249A4B1B7890
:10296000A34206D99A4B185D69F05CFC0134E4B2CD
:10297000F4E7934869F0DAFC9B4869F03BFC0024DB
:10298000944B1B78A34206D9934B185D69F04AFC1F
:102990000134E4B2F4E78A4869F0C8FC934869F06E
:1029A00029FC00248D4B1B78A34206D98C4B185D63
:1029B00069F038FC0134E4B2F4E7814869F0B6FC10
:1029C000A6E78B4869F0B2FCA2E78A4B1B780BB1F3
:1029D00000240FE0884869F0A9FC00240AE0874839
:1029E00069F0A4FC002405E0854869F09FFC002400
:1029F00000E01446B84605220DEB0701814842F07D
:102A000073FBE0B907B900250137FFB2012305AA1E
:102A10004FF0FF3100200BF027FA621C40F6B7336D
:102A20009C42E6D9784B1B783BB9012ED7D0022EB9
:102A3000DAD0002EC9D00024DCE70024DAE7002F2A
:102A4000E4D00135ADB2322DE0D96F4B93F8009050
:102A5000B9F1000F00F087806C4B93F800A0BAF139
:102A6000000FD3D101221A7069484FF00009C0F855
:102A70000090C0F80490C0F80890C0F80B903A4657
:102A8000694668F0D3F9634B1F70634BA3F800905D
:102A90003946624869F0AEFB574623E0013867F0DB
:102AA00005FB02460B4600205D4966F075F980463D
:102AB0008946584667F0FAFA42464B4667F060FB93
:102AC00080468946DFF850B1BBF8000067F0EEFAA7
:102AD00042464B4667F09EF967F002FEABF80000F5
:102AE0000137FFB24B4B1878B84211D9484B13F855
:102AF00007B0ABF1300B5FFA8BFB03F807B0C31BD9
:102B0000012BCBD1444B1A889344A3F800B0E7E7DC
:102B1000DFF80481B8F80010424869F06BFB424FBF
:102B2000052242493846FFF7B7FEB8F80020D3B275
:102B3000397837484B4003707B7883EA122343701F
:102B400037F8022FBB784280037105223849FFF71E
:102B5000A3FE304B05221A70364B01221A7001F089
:102B600003FC574652E7022E66D0012E00F0DA80B1
:102B7000002E7FF44BAFDFF858804FF0000AC8F802
:102B800000A0C8F804A0C8F808A0C8F80CA0C8F8AD
:102B900010A03A466946404668F048F9B94608F838
:102BA00007A0B0460AE100BF68130710807A00084A
:102BB000382600081C7A00087813071094130710B1
:102BC000480F09109C1307108D3200081D7A000869
:102BD00070260008753200085C2600088C32000858
:102BE00078320008D4130710E0130710F013071011
:102BF0000014071099320008141407104414071029
:102C000060140710D03201087432000872320008D4
:102C1000A07A00087332000870320008AC14071064
:102C200000002440C4140710687B00084C260008EC
:102C30005426000892320008DFF8C0A14FF0000BC4
:102C4000CAF800B0CAF804B0CAF808B0CAF80CB0A4
:102C5000CAF810B03A466946504668F0E7F80AF8F4
:102C600007B0CA4609E0654B13F80A10644842F001
:102C700061FA0AF1010A5FFA8AFA5745F3D8614806
:102C800069F054FB604869F051FBDFF8C0A18AF895
:102C9000007041465D4869F0ADFA5D4869F046FB59
:102CA0000136F6B2DFF8808164220021404668F0E8
:102CB000E5F8584B93F800B0404600F801BB5A467F
:102CC000554968F0B3F80BF10103544A177808F836
:102CD00003700BF102003A465149404468F0A6F8EF
:102CE0005F44BB1C9AF8002008F8032003374349CF
:102CF00008EB070068F09AF84A4809F047F940B92C
:102D0000484B64224849002009F026F928B94F466B
:102D10002BE7464869F00AFBF2E7454869F006FBF5
:102D20004F4622E7DFF8F8804FF0000BC8F800B0FC
:102D3000C8F804B0C8F808B0C8F80CB0C8F810B0AB
:102D40003A466946404668F071F8BA4608F807B056
:102D5000C84609E0324B13F80810294842F0EAF956
:102D600008F101085FFA88F84745F3D8DFF8948046
:102D7000404669F0DBFA2F4869F0D8FA274B1F70FC
:102D800051462D4869F036FA404669F0CFFA404680
:102D900069F0CCFA404669F0C9FA284869F0C6FAE9
:102DA0000136F6B24F46E3E61B4B13F80810144801
:102DB00042F0C0F908F101085FFA88F84745F3D8F6
:102DC000DFF84080404669F0B1FA1D4869F0AEFA7C
:102DD000104B1F7049461B4869F00CFA404669F0D9
:102DE000A5FA404669F0A2FA404669F09FFA1648F3
:102DF00069F09CFA731C3746DEB207E678320008A9
:102E0000D0320108480F0910D4140710F01407102D
:102E1000101507108D320008702600087532000862
:102E20005C260008807A00081C7A00082415071028
:102E300040150710601507107C1507109C1507102A
:102E4000B8150710D0150710441407108C3200086D
:102E500000B585B0C378027941790291019200935F
:102E6000837842780178034869F0C4F905B05DF8C9
:102E700004FB00BFEC150710212852D8DFE800F052
:102E8000115313511517191B1D1F21232527292BFA
:102E90002D2F31333537393B3D3F41434547494B72
:102EA0004D4F2248704722487047224870472248B9
:102EB000704722487047224870472248704722488E
:102EC000704722487047224870472248704722487E
:102ED000704722487047224870472248704722486E
:102EE000704722487047224870472248704722485E
:102EF000704722487047224870472248704722484E
:102F0000704722487047224870472248704722483D
:102F1000704722487047224870472248704722482D
:102F20007047224870472248704700BF3C1A07107C
:102F30003016071050160710641607108816071071
:102F4000A8160710C0160710E01607101017071074
:102F5000401707106C17071088170710A4170710E1
:102F6000C0170710D8170710F41707101C18071000
:102F70003C180710641807108C180710B0180710B9
:102F8000D4180710F4180710181907103C19071067
:102F90006419071090190710A8190710C419071011
:102FA000E4190710041A0710241A07100C1607104A
:102FB0001C160710082816D8DFE800F005170709C7
:102FC0000B0D0F1113000A4870470A4870470A4852
:102FD00070470A4870470A4870470A4870470A48CD
:102FE00070470A4870470A4870470A48704700BF50
:102FF000541B07107C1A0710981A0710B81A0710EC
:10300000D81A0710F41A0710101B0710341B0710EA
:103010004C1A07105C1A0710222817D8222824D827
:10302000DFE800F012252323232323231B2323235C
:10303000232323232323231D23231F23232323236A
:1030400023232323232321000C4870473E2810D03C
:10305000B0F5807F0FD10A4870470A4870470A4888
:1030600070470A4870470A4870470A4870470A483C
:1030700070470A4870470748704700BFE41B0710B5
:103080002C1C0710901B0710A41B0710C41B071053
:10309000F81B0710681B0710781B0710101C07107F
:1030A00011281DD948F29973984274D848F2807358
:1030B000984226D3A0F507408038192865D8DFE864
:1030C00000F00D6664424446484A4C4E50525456F5
:1030D0006458645A646464645C5E60622F4870473C
:1030E00011280CD8DFE800F009550F111315171936
:1030F0001B1D1F21232527292B2D294870472948CF
:103100007047284870472848704728487047284823
:103110007047284870472848704728487047284813
:103120007047284870472848704728487047284803
:1031300070472848704728487047284870472848F3
:1031400070472848704728487047284870472848E3
:1031500070472848704728487047284870472848D3
:1031600070472848704728487047284870472848C3
:1031700070472848704728487047284870472848B3
:1031800070472848704728487047064870472748C6
:103190007047274870470348704700BF701E0710EC
:1031A00074200710401C0710701C0710901C07109B
:1031B000B01C0710CC1C0710F01C0710101D0710C6
:1031C000301D0710541D0710741D0710981D07109F
:1031D000B01D0710D01D0710F01D07100C1E0710A2
:1031E0002C1E0710501E0710AC1E0710CC1E071017
:1031F000E81E0710001F0710141F0710281F0710D4
:10320000441F07105C1F0710741F0710881F07104A
:10321000A41F0710C41F0710E01F0710F81F071096
:103220001C2007103820071058200710901E071088
:10323000501C071010B5114853F096F90446104879
:1032400068F0D8FF2046FFF72BFF68F0D3FF0A2075
:1032500068F0E8FF00220B4B19880B4853F046F941
:103260000021012053F0AAF80849042053F050F837
:1032700000B910BD064869F059F8FAE71D39001089
:103280008C200710B4110710680F0710E022000807
:103290009C20071030B583B004460D4600230093F0
:1032A000ADF80430374868F0A5FF2046FFF7E4FD8D
:1032B00068F0A0FF0A2068F0B5FF182C0ED8DFE8F0
:1032C00004F0110D0D0D0D0D0D0D0D0D0D222E39EE
:1032D000470D0D0D0D0D5D0D5D0D4D0000242046BB
:1032E00003B030BD0021284853F050F8684653F031
:1032F0002DF8264868F07EFF6846FFF7A9FDFFF726
:1033000099FF0024EBE70323AB710024EC71092340
:103310002B7210236B721723AB72EB72DFE72C89D1
:103320001CB91B4869F002F8D9E71A4868F0FEFF9B
:103330000024D4E7AC8934B9174868F0F7FF174B7D
:1033400001221A70CBE7164868F0F0FF0024C6E7A8
:103350000021284652F0ECFF0024C0E70A2068F064
:1033600061FF104868F046FF2878FFF723FE68F0F9
:1033700041FF0A2068F056FF0024B0E741F6AD7423
:10338000ADE700BFB0200710600F0710D020071076
:10339000EC2007100821071024210710973200089D
:1033A000482107106821071000B583B00C4B1A782C
:1033B0005B7852EA03230ED00A4B55221A705A78D2
:1033C00000210091023242210748008853F000F8A2
:1033D00003B05DF804FB054868F0A8FFF8E700BFFC
:1033E00078300008683000089432000888210710FF
:1033F00008B567F0B1FC08BD00B583B0304868F08F
:1034000095FF304806F0DEFF2F49304806F0BAFF3E
:10341000D0B12F4868F08AFF01BE15E0FFF7C4FF66
:1034200022E0134600221A7000F09EFF25E0294B8F
:103430001B782BB1284A1378591C1170092B2CD8F2
:10344000264B1B78002B2ED14FF4FA7301AA4FF0B4
:10345000FF3100200AF008FD214B1B78002BF3D030
:10346000204B1B78002BD9D11F4B1B782BB11A4A4C
:103470001378591C1170012BD3D81C4B1B78002BCF
:10348000D5D0154A1378591C1170012BCFD913468A
:1034900000221A7000F0A4FFC9E7134600221A7038
:1034A00000F044FFCCE70C4A1378591C1170012B33
:1034B000CAD9134600221A7000F074FFC4E700BF97
:1034C000A4210710942307102C0F07109532001029
:1034D000EC21071091320008963200088F32000864
:1034E0009732000898320008923200088E320008A5
:1034F00000239AB20E4909888A4217D210B403EB0E
:1035000043020C4931F82220824208D00133DBB259
:103510009AB2074909888A42F1D3002003E003EBFD
:10352000430401EB84005DF8044B704700207047B2
:10353000660F0710A42300082DE9F04383B0064668
:103540000F4615469846B2F800904846FFF7D0FF60
:10355000A0B184886B889C421CD9E41A4445A8BF5A
:1035600044468268002500951344A2B2394630468D
:1035700052F044FF284603B0BDE8F08349460948AD
:1035800068F038FE01232A883946304652F09AFF07
:103590000120F0E707234A463946304652F092FFB1
:1035A0000720E8E7082207102DE9F04784B081469C
:1035B0008A4616461F46148819462A4B186953F046
:1035C000CFF800238DF80F3010B18046002515E0AC
:1035D000112322465146484652F074FF112033E031
:1035E0000E2332885146484652F06CFF404653F055
:1035F0006FF90E2028E005440134A4B2321D718811
:10360000204652F03BFF044688B1FFF771FF0028C7
:10361000E6D0826801928388009323460DF10F0261
:10362000791B08EB050052F082FF0028E3D175B149
:103630000D4B0193CDF80080ABB29DF80F205146A1
:10364000484652F0F1FE002004B0BDE8F0870123A7
:1036500032885146484652F035FF404653F038F91B
:103660000120F1E7403B0008D168051070B5144611
:10367000956816883046FFF73BFF80B1382E14D08E
:10368000432E39D12A781F4B1A706A785A701E4A15
:103690000123537093701D4A1370002070BD314692
:1036A0001B4868F0A7FD0120F8E7184B00221A70AC
:1036B000032305E0DA1EE85C164988540133DBB2C7
:1036C00099B2A2889142F5D3033A134B1A70AB78A2
:1036D000012B03D0022B08D00020DFE70F4B012283
:1036E0001A7000F023FE0020D8E70D4B01221A705B
:1036F00000F058FE0020D1E70A4868F017FE0120CC
:10370000CCE700BF78300008683000089832000825
:1037100038220710407B00089032000891320008E0
:103720008F3200086422071000283FD038B50446C5
:1037300083686BB11F4868F05DFD2068FFF788FB68
:103740000A2068F06FFDE2881B4B1A80002038BD0C
:1037500000251A4B1D701A4868F04CFD2068FFF7D1
:1037600077FB0A2068F05EFD164868F043FDA089EB
:10377000FFF752FC68F03EFD0A2068F053FD0E4B47
:103780001D801149042052F0C3FD58B90022114692
:10379000032052F0ABFD0028D9D00C4868F02AFD78
:1037A0000020D4E70A4868F0C1FDEFE748F28770CF
:1037B000704700BF8022071094320008983200083A
:1037C000A0220710C4220710E0220008E022071000
:1037D0009C20071038B5044601791E2915D8022906
:1037E00051D38B1E1C2B50D8DFE803F03B4F4F4FBB
:1037F0004F4F2E4F264F264F4F4F4F4F134F4F4F88
:103800004F4F4F4F4F4F4F4F4800522901D0D229B1
:103810000FD1224632F8080BFFF728FF0546217921
:10382000122900D1C0B12B462289208852F04AFECD
:1038300000E00425284638BD024632F8080B6388AC
:10384000FFF77AFE0546F5E7024632F8080B638873
:10385000FFF7AAFE0546EDE72289208852F020FEF8
:10386000E8E701890A4868F0C5FC0A4BDB685A881A
:103870002189208852F0F0FD0025DBE7064B00226D
:103880001A700425D6E70425D4E70425D2E700BF43
:10389000F42207102C0F07109832000808B567F0C3
:1038A00053FA08BD60B310B5044683680BB100201D
:1038B00010BD154868F09EFC2068FFF7C9FA0A2081
:1038C00068F0B0FC114868F095FCA089FFF7A4FBF4
:1038D00068F090FC0A2068F0A5FC0D4B00221A80CD
:1038E0000C49042052F014FD30B900221146032087
:1038F00052F0FCFC0020DBE7074868F017FDF4E716
:1039000048F28770704700BF142307105023071038
:1039100094320008E02200089C20071010B50C46E5
:10392000082820D8DFE800F0051F1F1F091F0D150C
:103930001B000846FFF7F8FE16E00846FFF74AFFAF
:1039400012E00888FFF7AAFF6060094BA36000201F
:103950000AE04B684BB108689847002004E008462D
:10396000FFF7A0FF00E0042010BD0020FCE700BF2F
:10397000F133001008B500221146032052F0B6FCC6
:1039800008BD000010B582B0204B06221A60FEF779
:1039900057FF00B101BE62B64FF4E1322821292061
:1039A00046F03AFD1A4868F025FC1A4868F0BEFC5B
:1039B000194868F0BBFC194868F0B8FC184B019333
:1039C0000423009300234FF4C0521649164809F00F
:1039D00014FD164B01930523009300234FF48052EE
:1039E0001349144809F009FD0024019402230093AF
:1039F00023464FF400621049104809F0FEFC09F01C
:103A00008DFD01BE204602B010BD00BF507B0008F6
:103A1000BC230710C82307100824071034240710FC
:103A2000587B000878240710F9330010547B0008F5
:103A300084240710B928001094240710C13D0010F9
:103A400030B5A5B000238DF80030684649F074F910
:103A500000283CD10446354A136843F00103136043
:103A6000334868F063FC6C22002109A867F006FA6D
:103A7000304B06AD0FCB07C525F8023B1B0C2B7056
:103A80002D4B07CBCDF83900CDF83D10CDF84120B6
:103A90001B788DF84530294B1F93294B00221A7053
:103AA000022C3DD806A9274868F0A4FB01A906A866
:103AB00049F070FA014678B14FF4FA62224868F092
:103AC00099FB4FF4FA6009F0ADFE0134E8E71F48B6
:103AD00068F02CFC012027E006A91D4868F08AFB4D
:103AE000174B01221A70114A136843F00203136046
:103AF0009DF80430042B03D0062B09D0002013E0DE
:103B000002A811F063F80146124868F073FBF5E76C
:103B100002A812F057FF01460F4868F06BFBEDE773
:103B20000E4868F003FC012025B030BD607B000822
:103B3000B8240710E0240710F02407100400400008
:103B40009932000834250710BC25071000250710FE
:103B50005425071084250710A02507100C260710F0
:103B600000B583B004238DF807300B7913B903B087
:103B70005DF804FB054868F0D9FB022300220DF133
:103B800007010348006808F013FEF0E73826071025
:103B90005C7B000810B504463DF064FB0346054A13
:103BA0001821204668F0CCFC002801DB002010BD65
:103BB0000120FCE76026071070B586B06C46454DC5
:103BC0000FCD0FC42B6823800023CDF81230ADF841
:103BD000163001F06BF900285DD03F4A136843F0BE
:103BE000040313603D4868F0A1FB3DF003FF00288B
:103BF00058D1394A136843F008031360384868F015
:103C000095FB02F08FFA002851D1334A136843F034
:103C100010031360334868F089FB334B334ADA6191
:103C2000334A5A6205221A8408221A853DF0DEFEC4
:103C3000304BD860304A5A616846FFF7ABFF044604
:103C4000002839D1284DC5F814D0684668F028FD01
:103C500081B22983274E73681B686A46274868F03B
:103C6000C9FA274B41F288322946304602F022FD3C
:103C700038BB194A136843F020031360214B1B68BB
:103C800098690022012100F5B06042F0C3FA1E4895
:103C900068F04CFB03E01D4868F048FB0124204617
:103CA00006B070BD1A4868F041FB0124F7E71948D7
:103CB00068F03CFB0124F2E7174868F037FB012469
:103CC000EDE702F007FB0146144868F093FA01247F
:103CD000E5E700BFE4280710607B0008782607109E
:103CE000BC2607100C270710842600083827071069
:103CF000BC911010B0260008613B00106827071027
:103D00009C320008CC320108E42707109C260710DB
:103D1000E426071040270710A027071004280710E3
:103D200008B5224B1B6813F0200F19D11F4B1B68DD
:103D300013F0100F26D11D4B1B6813F0080F24D170
:103D40001A4B1B6813F0040F22D1184B1B6813F099
:103D5000020F20D1154B1B6813F0010F23D108BDB2
:103D6000134B1B6898690122114600F5B06042F0C0
:103D700051FA104868F0DAFA00210F4B186802F087
:103D80004DFDD3E702F0FCF9D5E73DF059FED7E74A
:103D900001F0B4F8D9E749F0A3F80028DAD10748D0
:103DA00068F0C4FAD6E749F001FBD8E7607B000869
:103DB000CC320108302807109C3200085828071020
:103DC00000B585B001230222194659203EF0AEFE0F
:103DD00000220121084608F0A3FC2D4B1860FFF7D4
:103DE0002FFE38B1FFF79CFF002009F03BFB05B028
:103DF0005DF804FBFFF7E0FE0028F3D1254B0193AB
:103E00000223009300234FF480622349234809F0E2
:103E1000F4FA012803D0224868F088FAE2E74FF468
:103E2000FA6009F0FFFC1F4B01930223009300236B
:103E30004FF480621C491D4809F0DFFA012807D0C1
:103E40001B4868F073FACDE7042B11D0012B0FD07B
:103E50004FF0FF320DF10F010D4B186808F060FEB6
:103E60000128F5D19DF80F30032BEDD100F022FA97
:103E7000084B186808B109F0F5FA0A4B1B68002BCB
:103E8000B0D000F0C9F9074B186809F0EBFAA9E7C0
:103E90005C7B0008747B000878280710354200100E
:103EA00088280710647B0008B0280710813F0010A5
:103EB000C028071000B585B0002303930E4B1B6884
:103EC000BBB901210C4B196003AB00930023042202
:103ED0000A4800680AF094F8039B3BB1084B4FF086
:103EE00080521A60BFF34F8FBFF36F8F05B05DF83C
:103EF00004FB0021E6E700BFEC260008647B000815
:103F000004ED00E000B585B000230393174B1B6858
:103F10009BB90122154B1A60154B1B68986901214A
:103F200000F5B06042F076F9124A1378591C11700E
:103F3000042B04D805B05DF804FB0022EAE7002159
:103F4000117003AB00930B4604220B4800680AF083
:103F500057F8039B002BEDD0084B4FF080521A60AE
:103F6000BFF34F8FBFF36F8FE4E700BFEC2600086D
:103F7000CC320108B0320008647B000804ED00E098
:103F80002DE9F04F85B003238DF80B300123022279
:103F9000002104203EF0CAFD00228D4904203EF09D
:103FA0000BFE01230522022104203EF01DFEFFF737
:103FB000E1FC884B1B68002B64D00024009423464E
:103FC00022460321834800680AF08AF9182066F027
:103FD000BBFE814A10604FF0410980F800904FF01D
:103FE000550880F80180542585704827C770202621
:103FF00006714FF0520B80F805B04FF0450A80F87B
:1040000006A05122C2713122027232224272332240
:104010008272C472182066F097FE704A106080F8B1
:10402000009080F801808570C770067180F805B037
:1040300080F806A05322C2714FF0340B80F808B00C
:104040004FF0350A80F809A04FF036038372C4722E
:10405000182066F079FE624A106080F8009080F8BF
:1040600001808570C77006714322427150228271AF
:10407000C57180F808B080F809A04FF0360383724C
:10408000C4723AE0574B0093002301224FF47A7137
:1040900055480AF009F94F4B18608EE7534B544AC4
:1040A000DA6004221A611EE0504B524ADA6008229C
:1040B0001A6118E003F10802474909684E48C05CDC
:1040C00088540133DBB24D4A12789A42F2D8424901
:1040D00008330A680020D054444A0B68D360474B29
:1040E0001B780833136141F2883300223F4944486A
:1040F000006802F05DFC002858D14FF0FF3303AA9E
:104100000021084609F0B0FE039B052BEBD801A265
:1041100052F823F09D400010A94000102D410010DE
:10412000654100109D410010A14100100023CAE725
:1041300003F10802294909683248C05C88540133F8
:10414000DBB2314A12789A42F2D8244908330A681D
:104150000020D054254A0B68D3602B4B1B780833C2
:104160001361C0E70023ECE703F108021C4909686A
:104170002148C05C88540133DBB2204A12789A424D
:10418000F2D8174908330A680020D054174A0B6840
:10419000D3601A4B1B7808331361A4E70023ECE7C4
:1041A000124B1A4ADA6008221A619CE702F092F870
:1041B0000146174868F01EF8022300220DF10B019A
:1041C0001448006808F0F4FA002009F0F3FB94E7C3
:1041D000B53E0010AC320008A4320008A832000836
:1041E000A0320008053F0010FC280710D026000868
:1041F0000C29071014290710407B00089032000892
:104200009C320008A07A00087332000820290710A9
:104210002C2907105C7B000808B5002211460420F9
:104220003EF0CAFC00230522022104203EF0DCFC03
:1042300008BD000010B584B001248DF80B40234662
:10424000022221460D203EF071FC41F2883300939A
:104250000023224612491348006802F07DFB68B92A
:104260000F4B5A681989104867F0C4FF4FF0FF33AD
:1042700003AA0021084609F0F7FDF7E702F02AF843
:1042800001460A4867F0B6FF022300220DF10B0138
:104290000748006808F08CFA002009F08BFBDFE784
:1042A000F02600089C3200088C29071060290710AE
:1042B0005C7B000800B583B041F288330093002393
:1042C000012208490848006802F05CFB10B903B0FD
:1042D0005DF804FB01F0FEFF0146044867F08AFF29
:1042E000F5E700BFF02600089C320008C829071037
:1042F00000B585B00023039303AA00920422012194
:104300000848006809F07CFE039B3BB1064B4FF068
:1043100080521A60BFF34F8FBFF36F8F05B05DF807
:1043200004FB00BF647B000804ED00E000B585B02D
:104330000023039303AA0092042202210848006884
:1043400009F05EFE039B3BB1064B4FF080521A60B2
:10435000BFF34F8FBFF36F8F05B05DF804FB00BF55
:10436000647B000804ED00E000B585B000230393F2
:1043700003AA0092042203210848006809F040FEC5
:10438000039B3BB1064B4FF080521A60BFF34F8F37
:10439000BFF36F8F05B05DF804FB00BF647B0008BE
:1043A00004ED00E000B585B00023039303AA00925A
:1043B000042211460848006809F022FE039B3BB125
:1043C000064B4FF080521A60BFF34F8FBFF36F8FD1
:1043D00005B05DF804FB00BF647B000804ED00E05D
:1043E00000B585B00023039303AA0092042205219F
:1043F0000848006809F004FE039B3BB1064B4FF0F0
:1044000080521A60BFF34F8FBFF36F8F05B05DF816
:1044100004FB00BF647B000804ED00E070B582B0CF
:104420000C468E69CA69042A2DD0082231468D486F
:1044300068F03EF900286FD18B4B1B78002B38D0E9
:104440008A4B01221A70E269082A00F0A88008222B
:104450003146874868F02CF9002840F0D880854B19
:104460001B78002B40F0D180824B01221A70082368
:10447000E269934280F0C0809A1FF05C7E498854C4
:104480000133DBB2F4E731467C4868F011F90028CB
:10449000CBD17B4867F04AFF7A4B1B682BB1794B35
:1044A00000221A60FFF724FFCDE7764B01221A6045
:1044B000F8E76D4B01221A70734867F037FF7348B5
:1044C00067F098FE0A25E369013B9D420BD2A5F1F6
:1044D0000A03715D6E4AD154715D6E4867F08AFEC1
:1044E0000135EDB2EFE76C4867F020FFE369013B6F
:1044F000F15C81F07201694867F07CFE337A717A71
:1045000043EA0121664867F075FE664867F00EFFD2
:10451000654867F00BFF93E708223146634868F06F
:10452000C7F800288FD1624B1B7843B1614B1B68E1
:10453000986900220521803041F06CFE83E75C4BD6
:1045400001221A705C4867F0F1FE5C4867F052FE89
:104550000A2505E0715D4F4867F04CFE0135EDB26C
:10456000E3699D42F6D34C4867F0E0FEE369013B06
:10457000F15C4A4867F03EFE337A717A43EA0121E2
:10458000474867F037FE4E4867F0D0FE4D4B00229B
:104590001A704D4B01221A70FFF722FFC6E7314611
:1045A0004A4868F085F800287FF451AF0024009451
:1045B0002346224603214648006809F091FE3D4B00
:1045C0001B6898692246012100F5B06041F022FE87
:1045D000404867F0ABFE2B4B196849B11C600023C3
:1045E00004223D48006809F091FCFFF79FFE0CE0B3
:1045F000244B01221A60F2E7083A1F4B5A70374BDE
:1046000001221A70364B00221A7002B070BD0822C7
:104610003146344868F04CF80028F6D1324B1B780C
:10462000002BF2D10125304B1D7000242F4B1C7044
:1046300000942346224603212548006809F050FED5
:104640001C4E3368986922460521803041F0E2FD16
:10465000336898692246294600F5B06041F0DAFDDA
:10466000D3E700BF102A0710B332000874320008E5
:10467000602B0710B4320008683000080C290710BE
:10468000FC290710B83200081C2A0710202A07103E
:10469000687B000894130710480F0910382A071088
:1046A0004C2A0710642A071080100910802A07106E
:1046B000B2320008CC3201088C2A0710DC2A07101D
:1046C000F42A0710923200088E32000814290710CD
:1046D000AC320008482B0710747B000898320008A1
:1046E0009132000820290710B13200088F320008EB
:1046F0000230800803D001300238FCD100BF00BF77
:104700007047EFF3108072B6704780F310887047DF
:10471000034B0360034B0B6080231360704700BFA3
:10472000D4380008D4320008034B0360034B0B60FD
:104730004FF4807313607047D0390008D4340008F8
:1047400070B582B00446002301931D4B1B7823B142
:104750001B4B1B786BB902B070BD1A483EF050FF7E
:10476000034600B101BEB3FA83F35B09144A137028
:10477000EEE7FFF7C6FF064609F04EFA054630465B
:10478000FFF7C3FF002DE6D04FF47A7000FB04F072
:104790000D49A1FB0031012301AA8909094840F014
:1047A00039F90028D7D1019B4FF47A7000FB03F050
:1047B000054BA3FB0030800908F012FFCBE700BFD8
:1047C000BC320008C0320008D34D621008B509F0B1
:1047D00016FF03680BB14068984708BD2DE9F04704
:1047E00084B00C9D002843D00F4690461C4681465D
:1047F000B5F5967F3ED313B113F0070F3ED184B3C6
:10480000002606F5847007F075FC8246002837D034
:1048100025F00705AD083CB35644032200210120D2
:1048200007F07EFFC6F8FC0000B3184BC6F8003155
:10483000C6F804A116F0070F00D001BE029601943D
:104840009DF8343000930E9B2A464146384608F0C6
:104850009BFDC9F80000864214D0A8B101BE00201B
:1048600009E025F00706CCE70446D5E701BEDCE702
:10487000074800E0064804B0BDE8F0870548FAE7BD
:104880000548F8E70020F6E70020F4E701EFCDAB9C
:1048900005000E0606000E0601000E0610B509F012
:1048A000D9F90446D0F80021074B9A4204D001BE42
:1048B000204609F07FF8FBE700231A461946D0F896
:1048C000FC0007F075FFF3E701EFCDABE0B110B5E9
:1048D0000446006808F0C6FD246808F073FED4F8AA
:1048E00000210A4B9A4203D008F020FF002010BD9F
:1048F0000023C4F80031D4F8FC0008F053FBD4F8CE
:10490000040107F007FCEFE70148704701EFCDAB6A
:1049100005000E06A8B110B504460368D3F80011CF
:10492000094A914203D000200023236010BD4FF0BC
:10493000FF31D3F8FC0008F0A1F92046FFF7C6FFCD
:10494000F2E70248704700BF01EFCDAB05000E064D
:1049500080B110B50446017131B1042007F0F4FFB5
:10496000206028B1002010BD012007F0EDFFF7E71F
:104970000148F8E70148704701000E0605000E06E1
:10498000B0B108B54FF47A7303FB01F1094BA3FBF7
:104990000131890903792BB1006808F041FA28B187
:1049A000002008BD006808F069F9F8E70248F8E758
:1049B00002487047D34D621000000E0605000E0637
:1049C00088B110B503792BB1006807F0C8FF40B17A
:1049D000002010BD00231A461946006807F0E8FEC3
:1049E000F5E70248F5E70248704700BF02000E06EF
:1049F00005000E0628B108B5006808F0D3FA0020BB
:104A000008BD0148704700BF05000E0660B110B533
:104A10000B4611460446184607F0A9FE206008B16F
:104A2000002010BD0148FCE70148704701000E0658
:104A300005000E06B8B110B54FF47A7303FB01F10F
:104A40000C4BA3FB013189093AB1002211460068E1
:104A500008F008FA48B1002010BD006808F00EF90F
:104A600028B10020F8E7044870470448F4E70348F9
:104A7000F2E700BFD34D621005000E0600000E06DF
:104A800088B110B531B10021006807F0EFFF40B1E7
:104A9000002010BD00231A461946006807F088FE62
:104AA000F5E70248F5E70248704700BF02000E062E
:104AB00005000E0628B108B5006808F073FA00205A
:104AC00008BD0148704700BF05000E0668B110B56B
:104AD0000B46114604460022184607F021FE2060CE
:104AE00008B1002010BD0248FCE70248704700BF33
:104AF00001000E0605000E06C8B110B5C9B13BB1E4
:104B000000231A46006807F04AFF70B1002010BD6C
:104B10004FF47A7303FB02F2074BA3FB023200232C
:104B20009209006807F044FEEFE70448EFE7044805
:104B300070470348EBE700BFD34D621002000E063A
:104B400005000E06B8B110B5B9B133B10022006846
:104B500008F088F968B1002010BD4FF47A7303FBA8
:104B600002F2074BA3FB02329209006807F0D8FF5C
:104B7000F0E70448F0E7044870470348ECE700BF5B
:104B8000D34D621002000E0605000E0688B110B566
:104B90000C4681B1094B5B68C3F308032BB1006875
:104BA00008F0C9F92060002010BD006808F0B0F9D5
:104BB000F8E7034870470248F6E700BF00ED00E061
:104BC00005000E0628B108B5006808F0EBF90020D2
:104BD00008BD0148704700BF05000E06F0B1F0B5F2
:104BE00083B014461D460646D2B199B90127082064
:104BF00066F0AAF80346A8B1046045600A4A00922C
:104C00003A460121094809F04FFB306020B10020ED
:104C100003B0F0BD0027EAE70548F9E7054870470B
:104C20000448F5E70248F3E7CD470010B00F09103C
:104C300001000E0605000E0618B310B582B004463A
:104C40004FF47A7202FB01F20F49A1FB02320023FA
:104C5000009392090421006809F042FB012803D067
:104C600068B1002002B010BD246808F0B3FC024611
:104C7000002300930121204609F032FBF0E70348AE
:104C8000F0E70348704700BFD34D621002000E06E4
:104C900005000E0670B110B582B0002200921346D6
:104CA0000321006809F01CFB10B1002002B010BD08
:104CB0000148FBE70148704702000E0605000E069A
:104CC00058B110B50C4651B1006809F082FC0038AB
:104CD00018BF01202070002010BD02487047014815
:104CE000FAE700BF05000E06B0B130B583B0054647
:104CF000006809F084FC0446002200921346052156
:104D0000286809F0EDFA10B9044803B030BD204618
:104D100066F022F80020F8E70148704702000E060E
:104D200005000E0630B110B5044608F053FC2060B3
:104D3000002010BD0048704705000E0610B504465F
:104D40004201C30E121A63F10003990041EA927105
:104D50009000001941F10001CB0043EA5073C200FA
:104D6000104619464FF47A72002365F029FD08F0C9
:104D700059FD002010BD10B582B0044600234FF04D
:104D8000FF3269462046FFF7DDFE0028F6D1009B82
:104D900013B101989847F1E7FFF780FD02B010BD0D
:104DA00070B584B004460E4601B100B901BEB368C7
:104DB00013B1736803B901BE002323606360A3606D
:104DC000316901B9102108222046FFF77FFE054610
:104DD00078B901232372201DF2686AB102943378F6
:104DE000019373680093B3680749FFF7F7FC054622
:104DF00020B9284604B070BD044AEFE700232372AF
:104E00002046FFF7DFFEF4E7774D00106C2B07100C
:104E1000037A3BB310B582B00446012B07D00020C3
:104E2000237A032B0FD1237AABB902B010BD002235
:104E30000092019213466946FFF75EFE0028F4D106
:104E400002232372ECE7201DFFF764FD0028ECD15C
:104E500003232372E7E72046FFF7B4FE0028E4D1DE
:104E60002072E2E70020704770B582B00C4615460C
:104E7000064688B194B1FFF744FC337A012B0FD179
:104E8000FFF743FC0094019500231A46694630461B
:104E9000FFF732FE02B070BD01BEEBE701BEEAE7EC
:104EA000FFF733FC0048F5E720000E0610B586B08A
:104EB0000E4B02AC0FCB84E80F00204600F06AFCDA
:104EC00050B90B4B0093002303220A49012000F044
:104ED0003FF8012006B010BD074B009300230122CC
:104EE0000449104600F034F80020F3E7D82B0710EF
:104EF000802B0710782B0710A02B071000B583B06C
:104F000000F044FC00F054FC054B00930023032206
:104F10000449012000F01CF803B05DF804FB00BF59
:104F2000C42B0710782B071070B5044615460846A9
:104F300065F00AFF50B106462A46216865F076FF03
:104F4000206865F009FF2660012070BD0020FCE7A5
:104F50002DE9F04184B01C46002303930293002AFC
:104F60005FD00F46904682425BDC002C5CD02378F9
:104F7000002B5BD000250CB1637823B9384667F06D
:104F80008FFB054402350CB1A37803B9403505F118
:104F90004006304665F0D8FE0290002841D014B19A
:104FA0002378002B51D1B8F1040F41D900250CB161
:104FB00063784BB93B46364A711B0298284467F028
:104FC000BFFA002843DD05440CB1A3788BB9029BDE
:104FD0005B225A556C1C03AA311B029820443CF0FA
:104FE0005FF9002837D0039D2544029B5D225A5566
:104FF00001351DB1029B20225A5501350BAB01939F
:10500000741B0A9A21460298284468F0BFFC844227
:1050100025D9002838DD029867F088F9029865F0F4
:105020009BFE04B0BDE8F0810825A4E70825A2E7AF
:10503000184B53F82830164A314667F081FA051E9E
:10504000B5DC029865F088FEEBE70025AFE7029833
:1050500065F082FEE5E7029B00225A55C9E7284425
:10506000441C3246214602A8FFF75EFF40B10BAB5D
:1050700001930A9A611B0298284468F087FCC8E7EC
:10508000029865F069FECCE7029865F065FEC8E716
:10509000E82B0710082C071038B1026843689A42C1
:1050A00005D832B13BB10020704701207047012084
:1050B0007047012070470120704700604060002366
:1050C0008360704710B40024446004608160C26053
:1050D0002BB10123036104755DF8044B7047002375
:1050E0000375F9E7006AB0FA80F040097047036978
:1050F0008B4201D00020704701207047D0E9022385
:10510000D1E902018B4208BF824205D3994208BF10
:10511000904204D3002070474FF0FF3070470120C9
:105120007047000070B582B004460D4601230B7530
:10513000836A01338362416A8B4231D312F0010FDB
:105140001ED1036A8B4219D9012656B30026224B81
:1051500000930023032221490120FFF7F9FEE36AAF
:10516000226B21461E483BF091FF58B104F13800F4
:105170003CF0C2FD636A0133636212E00026E4E79B
:105180000126E4E7174B0093002302221349012074
:10519000FFF7DEFE2EB1A36A013BA36203200BE002
:1051A00000265EB923686C602B6025605D6004F1A9
:1051B00034003CF0FFFD002002B070BD0A4B0093AC
:1051C0000023042205490120FFF7C2FE63686B60DB
:1051D0002C601D606560EAE7282C07101C2C071066
:1051E00009520010582C0710842C071070B5054682
:1051F0000E4600240462B44205D205F134003CF0AE
:10520000D9FD0134F7E770BD2DE9F04782B00546BE
:1052100000F1380948463CF0CDFD4FF00108002769
:105220006BE04F4B0093002304224E490120FFF70F
:105230008FFE6B6A013B6B6230463CF0D3FC484604
:105240003CF0B8FD02B0BDE8F087474B0093002367
:10525000042244490120FFF77BFE6B6A013B6B622D
:10526000D04662E0EA6993425FD9404B0093002345
:1052700004223C490120FFF76BFE6B6A013B6B6225
:10528000A04652E0012358E0012356E000243046B6
:105290003CF0A8FC15E00024F9E7012300E001231D
:1052A00023BB6C6822686368536022681A6000231D
:1052B00023606360D4B1A7680323237530463CF0B4
:1052C00091FCBCB1E26821462846B847B8F1000F0E
:1052D00044D030463CF066FCAB6A013BAB62002D2B
:1052E000DDD06B689D42D8D00023D9E730463CF032
:1052F00079FC0027B8F1000FA4D04EF6602105F12B
:1053000034003CF031FD044605F1440630463CF0E3
:1053100049FC2846FFF7E6FE8246002881D16B6AE9
:105320002A6A934291D8002C9CD0002CAED0002D3C
:10533000AAD06B689D42A5D00023002BABD16C682E
:1053400022686368536022681A60002323606360E8
:10535000002C9CD003232375A76898E70027C9E792
:10536000C02C07101C2C0710FC2C0710382D071020
:105370002DE9F0470C460960496001F108038B6094
:10538000CB600368CB6143680B628368CB62C36800
:105390000B6301F11000FFF790FE04F138084FF69F
:1053A000FF72002140463CF049FC0646E0B1012175
:1053B00004F144003CF076FB074628B34FF6FF7239
:1053C000002104F134003CF039FC824600B322464F
:1053D0001D4904F13C003BF0BFFE8146E0B182462E
:1053E00007460646002503E0814682460746032518
:1053F0003DB1AEB9C7B9BAF1000F1AD1B9F1000F7A
:105400001CD12846BDE8F087814682460325EFE798
:1054100081463E460325EBE7574656460325E7E718
:1054200040463CF03DFCE5E704F144003CF06AFBFB
:10543000E1E704F134003CF033FCDFE704F13C0029
:105440003BF0C8FEDDE700BFA555001010B50446CF
:105450003C303BF0BFFE04F134003CF021FC04F191
:1054600038003CF01DFC04F144003CF04BFB10BD47
:105470002DE9F04182B00C46FFF77AFF074620B1D4
:105480004FF00008464600252EE004F1440528466A
:105490003CF088FB0026E369B3421AD9E36A226B29
:1054A00021461F483BF0F2FD20B1636A013363627D
:1054B0000136F0E728463CF095FB1A4B0093002399
:1054C000012219491046FFF743FD4FF00108032759
:1054D000D9E728463CF086FB4FF00108D3E704F1FA
:1054E00038003CF009FC0135B542F8D31FB9384605
:1054F00002B0BDE8F08131462046FFF777FE002577
:10550000B54205D204F138003CF0F6FB0135F7E76F
:10551000B8F1000FEBD02046FFF798FFE7E700BF98
:10552000095200106C2D07101C2C071008B5002321
:105530008360C36005230375036913F0010F00D076
:1055400008BD65F009FCFBE7F0B583B004460D46E5
:105550003BF088FE02460B46D5E902018B4208BFAC
:10556000824208D2861A61EB0307002F08BF0A2E79
:1055700002D20A2600E00A260022314620463BF0ED
:10558000D1FE08B103B0F0BD044B0093002302220A
:1055900003490120FFF7DCFCF4E700BF982D07105A
:1055A0001C2C0710F0B583B0054601902C4B0093DE
:1055B000002304222B490120FFF7CAFC05F1440710
:1055C00038463CF0EFFA2846FFF78CFD18B3384612
:1055D0003CF008FB2846FFF739FF284665F0BCFB86
:1055E0003BE001231EE022686368536022681A6072
:1055F0000026266066601C4B00933346042219493E
:105600000120FFF7A5FC324621692846FFF78AFDF5
:10561000204665F0A1FB15F1080313D0EC68A34206
:10562000DFD0002373B96CB13BF01CFED4E9022338
:10563000994208BF9042D6D2214605F13C00FFF7BF
:1056400083FF07E0094B0093002304220549012052
:10565000FFF77EFC38463CF0C5FA03B0F0BD00BF52
:10566000C02D07101C2C0710E82D07100C2E07105A
:105670002DE9F04383B007460C4616460D7D032DF9
:1056800020D00CD9042D28D03D4B009300230122BB
:105690003C491046FFF75CFC4FF0000803E0022D88
:1056A000F2D84FF0010806B13570B8F1000F5AD0AA
:1056B00004232375012D13D0022D1AD0002003B02E
:1056C000BDE8F083304B0093002302222D490120D6
:1056D000FFF73EFC4FF00008E5E74FF00108E2E776
:1056E00022686368536022681A600020206060604E
:1056F000E5E707F10806D7F80C904D46AE4206D014
:1057000021462846FFF7F3FC10B96D68F6E700253F
:105710005DB326B34E451DD00023EBB94D4501D0F6
:105720004FF000082A686B6853602A681A602846A0
:1057300065F012FBB8F1000F19D0D6B1F9688E42AE
:105740000FD00023BBB9C1B107F13C00FFF7FCFE4D
:105750000020B4E70123E0E74FF00009DEE7B1469F
:10576000DCE70123EEE70520A9E70020A7E70020FA
:10577000A5E70020A3E70020A1E700209FE700BFE6
:10578000882E07101C2C0710482E07100048704761
:10579000CC3A000810B50446FFF77EFC00B110BDFE
:1057A00002492046FFF764FEF9E700BFCC3A000843
:1057B000002800F0A6802DE9F04782B0044600F1F1
:1057C000440948463CF0EEF9676A07E001230BE024
:1057D000012309E02846FFF7A9FEA5B1002CF7D068
:1057E00063689C42F2D000235BB965682A686B68E5
:1057F00053602A681A6000232B606B60002DE9D18A
:10580000EBE70025E9E714F1080A34D0E668B24571
:1058100024D000239846002B39D17EB33BF022FDE3
:10582000D6E90223994208BF904219D24FF00108ED
:10583000E3689A451DD000234BBBE6683268736865
:10584000536032681A60002333607360FEB13069C0
:10585000FFF76CFE304665F07FFAE9E70123D9E7F0
:105860002A4B00930023042229490120FFF770FBF3
:10587000DEE70123E0E74FF0010808E04FF0010800
:1058800005E001230AE0012308E02E46BEB114F131
:105890001003F8D062699342F3D00023002BF4D1B7
:1058A000666932687368536032681A600023336037
:1058B0007360002EEAD03046FFF738FEE6E739463F
:1058C0002046FFF793FC48463CF08CF90025BD428A
:1058D00005D204F138003CF00FFA0135F7E7B8F1D2
:1058E000000F03D1002002B0BDE8F0872046FFF78B
:1058F000ADFD084B9C4206D0204665F02DFA0020F5
:10590000F1E7012070470020EDE700BFBC2E071033
:105910001C2C0710CC3A000868B170B514461D461F
:105920005AB163B101230A4601462046FFF7CAFB7C
:105930002C60002070BD012070470120FAE7012093
:10594000F8E7F8B5F8B10D4614460646E9B10AB1D4
:105950000523137006F1440738463CF023F930461E
:10596000FFF7C0FB50B9224629463046FFF780FEBC
:10597000044638463CF036F92046F8BD38463CF03F
:1059800031F90424F8E70124F6E70124F4E770472D
:10599000062811D8DFE800F0041206080A0C0E00F1
:1059A00007487047074870470748704707487047DF
:1059B00007487047074870470748704707487047CF
:1059C000642F07100C2F0710202F07102C2F071003
:1059D000442F0710542F0710EC2E0710FC2E071031
:1059E0000B7D0AB9032B2CD0013BDBB2012B0ED966
:1059F00049B34B681BB30A6802B101222AB30A6893
:105A000053600A681A60002008604860704700B55B
:105A100085B00DF10F02FFF72BFE052802D005B06F
:105A20005DF804FBFFF7B4FF0190094B00930023DE
:105A3000022208490120FFF78BFA0220EFE700223B
:105A4000DCE702207047002070470020704700BF4D
:105A50006C2F07101C2C07102DE9F04130B30E46B7
:105A60001446074621B3012A03D901252846BDE87B
:105A7000F08100F1440840463CF094F83846FFF7C6
:105A800031FB20B1042540463CF0ACF8EEE70022A3
:105A900031463846FFF7A4FF05460028F3D12246D9
:105AA00031463846FFF73EFB0546ECE70125DDE7CA
:105AB0000125DBE72DE9F84F002800F091800C4626
:105AC00017468046002900F08E80002A49D000F158
:105AD000440A50463CF066F84046FFF703FB0028B6
:105AE00044D1002221464046FFF77AFF8146002834
:105AF00070D1182065F028F9054600283CD0002612
:105B0000066046608660C660066146613BF0AAFB9F
:105B10006E602E60C01941F10001C5E902012C61DF
:105B2000AB4618F108072FD07B689F422AD000238C
:105B300063B37B686B602F601D607D6002232375FB
:105B4000002F40D0D8F80C108F4238D00023002B03
:105B500037D18D4239D050463CF044F84846BDE834
:105B6000F88F0022FFF778FF8146F7E750463CF0B8
:105B700039F84FF00409F1E750463CF033F84FF0A4
:105B80000309EBE70123D3E70123D1E77E68B7429E
:105B90000DD031465846FFF7B1FA002801DB766890
:105BA000F5E733686E602B6035605D60C6E7D8F856
:105BB00008306F602B60C8F808505D60BEE70123B5
:105BC000C5E70021C5E73946C3E708F13C00FFF708
:105BD000BBFCC0E750463CF005F84FF00209BDE7BA
:105BE0004FF00109BAE74FF00109B7E7012303734A
:105BF0001846704700B1016070470000094B1B68F0
:105C00000BB10120704700B583B0074B0093002310
:105C1000012206491046FFF79BF9002003B05DF80A
:105C200004FB00BF183B0008C82F0710C02F071047
:105C300030B583B068B115460278F2B1C268146815
:105C40000A4681684068A047044660B901232B706A
:105C500017E00D4B0093002301220C491046FFF77B
:105C600077F902240DE00190094B009300230122F3
:105C700006491046FFF76CF903E043680B60002407
:105C80002C70204603B030BDE82F0710C02F07103E
:105C90000C3007102DE9F04182B00546D0F8A8304D
:105CA00043B905F1400630463BF07CFF05F138086A
:105CB000002430E00190344B009300230422334948
:105CC0000120FFF745F9D5F88C0002F0EBFD002329
:105CD000C5F8A830C5F88C30C5F894306B6A013B24
:105CE0006B62DEE76468A04506D000212046FFF71E
:105CF0007DFF0028F6D000E000245CB167682368CF
:105D00005F6023683B60002323606360204600F0EF
:105D100045F83C4624B1002CE5D1D8F80440E2E730
:105D200030463BF05FFF6B786BB1AB689B6968688E
:105D30009847F0B10195164B0093002302221349B6
:105D40000120FFF705F905F11C003BF0DBFE3046B2
:105D50003BF0D8FE01950F4B0093002304220B4922
:105D60000120FFF7F5F8284664F0F6FF02B0BDE821
:105D7000F0810195084B0093002303220349012081
:105D8000FFF7E6F8DFE700BF34300710C02F071039
:105D900064300710D4300710A030071008B58368AE
:105DA00003B108BD64F0D8FFFBE7F0B583B0064649
:105DB000084614461F460B9D2B460A9A099901F086
:105DC00023FD58B92A6882F8306002F13803009345
:105DD00002F144033C3208993846A04703B0F0BDB5
:105DE00010B582B01446052382F880304FF47A73E0
:105DF00003FB01F1C2F8A810C2F8AC1002F1940143
:105E000002F18C0002F014FD50B10C4B0093002302
:105E100001220B491046FFF79BF8002002B010BD8D
:105E200004F1780304F1600221460648FFF774FD8F
:105E3000636A013363620120F0E700BF003107109D
:105E4000C02F0710017600102DE9F04182B0064600
:105E50000D461746B02064F077FF044668B3B022C1
:105E6000002165F00BF82670EB68A36004F10C03C9
:105E70006969286983E803000121616204F11C005B
:105E80003BF010FE064620BB294B00930023012265
:105E900028491046FFF75CF8B046304648B9B8F1DB
:105EA000000F3BD1002E3ED11CB1204664F054FFC0
:105EB0000024204602B0BDE8F0811F4B0093002370
:105EC00001221C491046FFF743F80026B046304631
:105ED000E4E7002104F140003BF0E4FD804698B186
:105EE00004F13803A363E36304F12803A362E362CC
:105EF00004F1300323636363002FCFD02246394679
:105F00002846FFF76DFFC9E70C4B009300230122E1
:105F100008491046FFF71CF84046BFE704F140006F
:105F20003BF0F0FDBEE704F11C003BF0EBFDBBE7EE
:105F300068310710C02F071038310710A031071043
:105F400010B51346002280F830205A682AB108465E
:105F50009B68012102F045FE10BD0020FCE7000017
:105F6000D0F8A8300BB90020704710B582B00446B5
:105F7000094B00930023042208490120FEF7E8FFA3
:105F8000FFF704FCD4F8AC20A16FFFF793FD08B92C
:105F900002B010BD0620FBE7D8310710C02F071054
:105FA00030B583B004461D469DF8183063B1D36800
:105FB0005B690846984788B10D4B00930023022285
:105FC0000C490120FEF7C4FF15B1284601F0EEFC94
:105FD00014B12046FFF75EFE03B030BD064B0093C0
:105FE0000023032203490120FEF7B2FFECE700BFC4
:105FF00000320710C02F07102432071010B50446D6
:10600000037A73B1FFF7C2FB0022A16AFFF799FC84
:1060100000B110BDFFF7BAFB2246A16A01F098FD5E
:10602000F7E7012101F074FC0028F2D0204601F0CE
:10603000BDFCEEE710B50446002904DB002206494A
:1060400001F0BCFD10BDFFF7A1FB2246A16A01F0E3
:10605000C1FF0020F6E700BFD57F001070B584B007
:10606000044600F11C0528463BF09CFD237E83F08E
:1060700001069BB9636A5A1C6262039202930194FF
:106080000B4B0093002304220A490120FEF760FF16
:1060900028463BF0A7FD304604B070BD0194064B86
:1060A00000930023022203490120FEF751FFEFE78E
:1060B00048320710C02F07108832071070B584B01F
:1060C000044600F11C0528463BF06CFD636A5A1E2D
:1060D00062620392029301940F4B00930023042207
:1060E0000E490120FEF734FF636A33B100262846CB
:1060F0003BF078FD1EB904B070BD0126F7E70194AE
:10610000074B00930023042204490120FEF720FFDF
:106110002046FFF7BFFDEEE748320710C02F0710FB
:10612000C032071000B583B0114B0122BFF35B8F63
:1061300053E8001F002903D143E800200028F7D1CD
:10614000BFF35B8F0BD10B4B0093002303220A4953
:106150000120FEF7FDFE002003B05DF804FB074BB5
:1061600000930023022204490120FEF7F1FEF2E72A
:10617000183B000830330710C02F0710F832071003
:1061800000B583B0114B0022BFF35B8F53E8001FB3
:10619000012903D143E800200028F7D1BFF35B8F2A
:1061A0000AD10B4B0093002303220A490120FEF77A
:1061B000CFFE03B05DF804FB074B009313460222A9
:1061C00004490120FEF7C4FEF3E700BF183B0008B6
:1061D0008C330710C02F071058330710F0B585B067
:1061E00006460C4617461D4600230393FFF706FD9F
:1061F000D8B90B258DB9A3692BB122781AB1039AAE
:1062000093656369D3652378002B37D139460398AA
:10621000FFF710FF0546002835D1002D44D0039824
:1062200000284DD001F0C2FB4AE00A9B00932B46A8
:106230003A462146307802F05BFF08B90325D9E7DA
:1062400003AB2A463946304601F0DEFA05460028FF
:10625000D0D10399012381F83030337863B101F153
:106260004003009301F1380301F144023C31204620
:1062700002F092F80546BDE70023F2E703990A9879
:10628000FFF7B8FCC2E701960F4B009300230122F1
:106290000E491046FEF75CFE2378002BBDD000218E
:1062A0000A98FFF7A7FCB8E7237803B10125019608
:1062B000074B00930023032204490120FEF748FE08
:1062C000284605B0F0BD00BFA8330710C02F071047
:1062D000E43307100B281DD8DFE800F0061E080A7B
:1062E0000C0E10121416181A0C4870470C48704700
:1062F0000C4870470C4870470C4870470C48704772
:106300000C4870470C4870470C4870470C48704761
:106310000C4870470C4870470C487047642F0710B2
:1063200020340710FC2E0710202F071038340710D8
:10633000483407105C340710743407107C3407109D
:106340008C34071098340710EC2E071018340710FF
:10635000062811D8DFE800F0041206080A0C0E0027
:106360000748704707487047074870470748704715
:106370000748704707487047074870470748704705
:10638000F8340710C4340710CC340710D834071081
:10639000E4340710EC340710A8340710BC3407109D
:1063A000F0B583B007460C4615461E46FFF726FC9F
:1063B00010B90B2003B0F0BD33462A462178384689
:1063C00002F018FFA8B1089B13F0010F13D0099B2E
:1063D0000BB10020EEE73846FFF7BAFF0190074BFC
:1063E00000930023012206491046FEF7B1FD032069
:1063F000E0E70320DEE70020DCE700BF0035071000
:10640000C02F07102DE9F04286B005460F46994689
:106410000D9E0024059405AC03940E9C02940196F5
:106420000C9C0094FFF7C1FC044608B9032D0AD068
:1064300094B1002C37D0059808B101F0B7FA204686
:1064400006B0BDE8F0820C9B4A460599098F384694
:1064500002F0C7FB0446EBE705990F98FFF7CAFB6C
:1064600031460598FFF7E6FD04460028E1D02846AE
:10647000FFF76EFF02900197124B00930023012259
:1064800011491046FEF764FD032D04D000210F983A
:10649000FFF7B0FBCDE74FF0FF32059B198F384671
:1064A00002F029FBF2E72846FFF752FF029001971E
:1064B000064B00930023032203490120FEF748FD09
:1064C0000124BCE730350710C02F071068350710CE
:1064D0002DE9F04184B004460D46164698460B9FC0
:1064E0000197009313460A4601460320FFF758FF21
