:020000041000EA
:1004000000C002082B0500100D0000008D05001033
:1004100000000000000000000000000000000000DC
:10042000000000000000000000000000890500102E
:100430000000000000000000890500108905001080
:100440008905001089050010890500108905001034
:100450008905001089050010890500108905001024
:100460008905001089050010890500108905001014
:100470008905001089050010890500108905001004
:1004800089050010890500108905001089050010F4
:1004900089050010890500108905001089050010E4
:1004A00089050010890500108905001089050010D4
:1004B00089050010890500108905001089050010C4
:1004C00010B5064C2378002B07D1054B002B02D02A
:1004D000044800E000BF0123237010BD800602081D
:1004E0000000000034A10010044B10B5002B03D015
:1004F0000349044800E000BF10BDC04600000000F2
:100500008406020834A100100230800803D00130B4
:100510000238FCD1C046C0467047EFF3108072B677
:10052000704780F3108870477047FFF7FDFF72B681
:100530000F4C104DAC4209DA21686268A368043B95
:1005400002DBC858D050FAE70C34F3E70A490B4AEB
:100550000020521A02DD043A8850FCDC08480949A0
:100560000860BFF34F8F07F0ADFD07F015FDFEE704
:1005700040A1001058A10010800602081C110208BA
:100580000000020808ED00E0FEE7FEE700B50420E9
:100590007146084202D0EFF3098001E0EFF30880D2
:1005A000043006F0A5FDFEE70300093B0122042B01
:1005B00002D920384242424110007047F0B5002570
:1005C000170006002C0089B003930E9B02901B0CB1
:1005D000DBB204930E9B00911B0ADBB205930E9BCA
:1005E000DBB20793731C069333780193002B08D07A
:1005F000009B002B22DB029A731C9B1A009A9A42E2
:100600001CDA0E9BDBB2002B00D1B4E0019A9A42B7
:1006100000D0AEE0009B002B06DB029A731C9B1AF5
:10062000009A934200DDA4E0B31C7678032D00D934
:10063000A1E0280007F0EAFD8989637B0198FFF7B4
:10064000B3FF002839D1079B019A9342D9D04F4E6E
:100650001100300009F0C4F8031E08D1049B019A70
:1006600093420BD0059B93426FD133003F33032D50
:1006700023D8280007F0CAFD0510233533003E3388
:10068000F5E7002F06D0039A94425ED23F4A9B1AA8
:100690009B003B55012510E0621C002F0BD00399F5
:1006A0008A4252D239493C195B1A21781811014308
:1006B0001B012170BB5414000225069E92E7621CA8
:1006C000002F0BD003998A423FD230493C195B1A64
:1006D0002178981001439B012170BB54140003251D
:1006E000EBE7002F08D0039A94422ED227493A19FB
:1006F0005B1A11780B43137001340025DDE71D00F0
:10070000002E22D0009B002B22DB029B009AEB1ACA
:100710009A421DDA019BB34217D1009B002B04DDE6
:10072000029B009AEB1A93420FDC2E786B1C029A04
:100730009D1A002E04D0009B002B11DBAB420FDA78
:10074000002F18D03B5D002B15D00124644219E026
:100750003000FFF729FF0028DCD02E780135CFE7E5
:100760003000FFF721FF0028EFD0029B5E5D0135CE
:10077000DFE7002DE9D1039B9C42E6D2002F01D098
:1007800000233B55200009B0F0BDC046489A001038
:10079000002210B504001000A15C0B00303B092BB7
:1007A00009D830380818531C032A03D000011A0056
:1007B000042BF1D110BD0B00413B052B01D837387C
:1007C000F0E70B00613B052B01D85738EAE7002022
:1007D000F0E70000F0B50B7885B0039017004D1CD2
:1007E000222B17D0116000202AE05C2A07D1019A41
:1007F0005278002AF7D0019A013301320192019A0E
:1008000001320192019A1278222A00D1A7E0002A2F
:10081000EBD1E8E701950023F4E72B785C2B11D0AE
:10082000237001350134019B9D42F6D30023039AC6
:1008300023700833D36013000198029A01301A61C3
:1008400005B0F0BD6B78662B63D014D82F2B61D028
:1008500007D8222B5ED0484B3D601B680298984712
:10086000C1E75C2B56D0622BF5D1082323700134ED
:10087000063BED18D7E7722B50D006D86E2BEAD185
:100880000A2323700134083BF3E7742B48D0752BFF
:10089000E1D1019B5B1B052BDDDDA81CFFF778FF79
:1008A000364B374AC31806009342D4D90028D2D019
:1008B000344B334AC318934234D8019AAB1DD31A30
:1008C000052BC8DDAB795C2BC5D1EB79752BC2D17B
:1008D00028000830FFF75CFF284B294AC3189342D1
:1008E000B9D8294BB6021E4080238005800D5B02DB
:1008F0000643F6180C23254A96421FD9244A9642ED
:10090000A9D83F203040802676420643E670042274
:1009100012E00C23237001340223AAE70D23F9E728
:100920000923F7E77F2804D91A4B98420ED90623EA
:10093000E1E7062301222070A4189AE73F20304007
:10094000802676420643A6700322F5E73F208023E7
:1009500006405B421E43667086330222ECE7019A32
:10096000501AC01A0C4B04301B6898470290041EA2
:1009700000D058E737E7C046C00002080024FFFF58
:10098000FF0300000028FFFF00FC0F00FFFF000036
:10099000FFFF1000FF070000C4000208002803D07A
:1009A0000378013B1F2B00D970470130F6E70000A8
:1009B000064B10B51B6828209847041E03D0282238
:1009C000002108F04AFE200010BDC046C400020805
:1009D0000849094A002803D1084B0B60084B07E07F
:1009E0000368002B00D1054B0B604368002BF5D04A
:1009F00013607047C4000208C0000208FD95001093
:100A000011960010F8B5802604007600002C00D165
:100A1000F8BDE3682768334204D1A068002801D0FC
:100A2000FFF7F0FFE3680B4D334204D12069002843
:100A300001D02B6898478022E3689200134204D1CA
:100A4000206A002801D02B68984720002B6898471F
:100A50003C00DBE7C0000208F0B5040085B00F00E1
:100A60001600002901D1002013E004226F4938004C
:100A700008F0D6FE002803D10223E360381D08E009
:100A800005226B49380008F0CBFE002803D1E06056
:100A9000781D05B0F0BD04226649380008F0C0FE9C
:100AA000002806D101230122E3600023A261E36153
:100AB000E4E73B78222B05D1320039002000FFF714
:100AC00089FEE6E72D2B03D01A00303A092A24D8F4
:100AD00000250A2203A93800039508F05FFF0300F0
:100AE00003988742BFD05A1C0AD1534A914211D170
:100AF0000122514B5242A261E3610423E360C8E743
:100B0000002B07D180221206914203D180230022BC
:100B10001B06F0E7A361E161EFE75B2B35D1781CA1
:100B2000FFF73CFF037805005D2B26D00023013D35
:100B300001930093FFF73CFF009B071E6FD0002B33
:100B400019D0019B18604360681CFFF727FF320033
:100B500001003800FFF780FFFFF720FF051E06D0D9
:100B6000037801972C2BE5D05D2B08D030600098DE
:100B7000FFF748FF77E70090E6E700230093102394
:100B8000E360009B681CA36083E77B2B4BD1781C40
:100B9000FFF704FF037807007D2B38D00023013FC7
:100BA00001930093FFF704FF009B051E37D0002B35
:100BB00017D0019B18604360781CFFF7EFFE3200EE
:100BC00001002800FFF706FEFFF7E8FE0028CED060
:100BD0002B692B6200232B6103783A2B03D0306002
:100BE000C5E70090E8E70130FFF7D8FE32000100CA
:100BF0002800FFF731FFFFF7D1FE071EB7D00378BB
:100C000001952C2BCED07D2B03D03060AFE7002395
:100C100000932023E360009B781CA36039E7002B3E
:100C200000D120E7A3E737601DE7C046879A001090
:100C30008C9A0010929A0010FFFFFF7FF7B5050015
:100C40000E0001920F1E00D1144FFFF7B1FE0023DA
:100C500004003B6098420DD02800FFF79FFE3A0049
:100C600001002000FFF7F8FE051E05D12000FFF768
:100C7000C9FE00242000FEBD019B002B0AD0FFF717
:100C80008DFE03780500002B04D02000FFF7BAFE8C
:100C90003D60EEE7002EEDD03560EBE79C060208E4
:100CA000002210B51100FFF7C9FF10BD802233B537
:100CB000450AFFB06D02040029009200684608F062
:100CC000C3FC01236A46E405E40D69462800135578
:100CD00001F042FE7FB036BD10B5183909180B7807
:100CE0000020012B02D00800FFF7E0FF10BD00003C
:100CF000F0B58DB01D0015AB1B780E0003930023DB
:100D0000170005A906AA0593069300F042F9041EF0
:100D10004BD12F4B3200009306993B000598FFF70B
:100D20004DFC002851DD0C22210009A808F095FC9B
:100D3000022008AA07A9FF300794089401F036F9A9
:100D4000002802D0652464422FE02900079800F0B3
:100D50004BFF0028F6D1033008AA07A9FF3001F0A5
:100D600025F90028EED11299079800F0DBFE041E49
:100D70001BD109A9300000F024F9041E15D11299E5
:100D80000A9800F02BFE041E0FD1039A29000B983D
:100D900000F036F9041E05D1139B002B08D1149BDB
:100DA000002B0DD10998FFF72DFE20000DB0F0BDEE
:100DB0001399099800F072FC0028F0D00400F1E7C4
:100DC0001499099800F0D4FDF8E71424BBE7C04655
:100DD000005F2D00F0B58BB01F0010AB059204CB67
:100DE00004911B7806920793002309AA08A906001C
:100DF0000893099300F0CDF8041E22D1099800F061
:100E00006BF8040008F0FAFB051E20D0114B02001D
:100E10000093099923000898FFF7D0FB002813DD01
:100E2000079B22000393069B01970293059B2900D1
:100E300000933000049BFFF75BFF0400280008F0DC
:100E4000E7FB20000BB0F0BD14246442F6E76424F5
:100E50006442F6E7005F2D0010B5010004000B4866
:100E600008F0CCFC002398420DD02100084808F07F
:100E7000C5FC0123002806D02100064808F0BEFC6E
:100E8000434243415B00180010BDC046A89C0010BF
:100E9000B19C0010B99C001010B5010004000B4873
:100EA00008F0ACFC002398420DD02100084808F05F
:100EB000A5FC0123002806D02100064808F09EFC6E
:100EC000434243415B00180010BDC0468E9C001099
:100ED000979C0010A39C001003235843800898435C
:100EE00004307047F8B5C3680D000860202B19D195
:100EF00084680E4F002C01D12000F8BD266A002E18
:100F000006D031000A4808F079FC002802D16C6054
:100F10002468EFE73100380008F070FC0028F7D1B2
:100F2000AC60F5E702204042E7E7C046C79C0010EE
:100F3000C19C0010F0B507000D00002491B001AE77
:100F4000002D02D1280011B0F0BD296A002904D07B
:100F5000380008F053FC0028F4D0AB68002B06D012
:100F60000E2C12D8A200955101341D00E8E72B6821
:100F7000002BFAD1002C0AD0013CA3009B591B681E
:100F8000002BF2D1002CF7D1EFE70025DAE725009E
:100F9000D8E7F8B50E002E21170008F021FC041E3A
:100FA0000CD0451C2E21280008F01AFC002805D082
:100FB000001B0138386000203560F8BD1620404223
:100FC000FBE770B5050000200C00FFF701FD2800CD
:100FD000FFF766FE002803D02100FFF783FF70BDF6
:100FE00005204042FBE7002304220133002901D100
:100FF000904203D952001D2BF7D1023318007047DD
:10100000F0B589B005900C000100C3480792FFF7C6
:1010100091FF002800D194E283680293019300239A
:101020001F0006930493019B002B00D0FBE0029B62
:10103000DB680193202B00D084E2029E3100B74888
:10104000FFF778FF051E00D155E1037E079A9A420B
:1010500000D050E10100B248FFF76CFF002800D13A
:1010600043E1836923702900AE48FFF763FF14232F
:10107000002800D0836963602900AB48FFF75AFF5E
:101080000123002802D0C3685A1E9341237229000D
:10109000A648FFF74FFF002800D129E18369E360EC
:1010A000002329006376A248FFF744FF002807D0F9
:1010B0000169A04808F0A2FB002801D10123637652
:1010C0002300627E49331A70002F00D03AE2029E5C
:1010D00031009248FFF72EFF002800D110E122785E
:1010E000037E9A4200D00BE131009348FFF722FFC4
:1010F000002800D10CE130238269551E6B43E318B0
:101100001A76022303933027002E00D02EE13100FF
:101110008A48FFF70FFF002800D098E13100884887
:10112000FFF708FF00280ED00D236B43E3184E3362
:10113000FF331B78012B06D13B00C2686B43511E65
:101140008A41E3185A7031007E48FFF7F3FE002809
:101150000ED00D236B43E3185033FF331B78012B64
:1011600006D13B00C2686B43511E8A41E3181A74D2
:1011700031007548FFF7DEFE00280CD00D236B43CD
:10118000E3185033FF331B78012B04D13B006B4332
:101190008269E3189A7431006C48FFF7CBFE00288F
:1011A0000FD00D236B43E3185933FF331B78012B0A
:1011B00007D13B00C2686B43511E8A41E3182F33AD
:1011C0001A7031006248FFF7B5FE002800D14EE1E9
:1011D000C368102B00D04AE183680D2123200193BE
:1011E00000236943684361180490019A002A00D1E2
:1011F0003DE15620FF3084469C446046085C01284F
:1012000009D1049AD01884462C20019A844492690A
:10121000101C624688540133032B00D127E1019A48
:1012200012680192E1E701994A48FFF783FE00281E
:1012300002D08668002E03D1019B1B680193F2E661
:1012400031004548FFF776FE00284CD000250369A1
:101250000393424AAB009958039808F0CFFA00284C
:1012600000D1D0E10135032DF3D100253C4AAB007C
:101270009958039808F0C2FA071E05D00135172DBA
:10128000F4D10527183D7F4231003648FFF752FE62
:10129000002801D08369069331003348FFF74AFEE6
:1012A000002804D0C1698069FFF79DFE04906B1C83
:1012B00019D0049B002B16DDBA236A00A2185B002C
:1012C000D35C012B05D12B001233DB000699E31808
:1012D00059607623FF33D35C012B04D11235ED0026
:1012E000049B6519AB603668A4E701277F42BAE624
:1012F000FA231B01D3E63668002E00D09EE6E3E613
:101300003668002E00D0E3E6012335000393FAE6A9
:10131000012305000393F6E68E9C0010369B001017
:10132000AE9A0010B59A0010BD9A0010C89A00102D
:10133000D49A0010E19A0010E69A0010F29A001078
:10134000CC9C0010099B0010119B0010209B0010EA
:10135000279B0010979A0010E99C001024010208B6
:10136000C8000208A19A0010A99A00103100B848DC
:10137000FFF7E0FD002800D1C9E683680193019BD7
:10138000002B00D1C3E60199B248FFF7D3FD002836
:101390002DD00369B0491800049308F02FFA0028F3
:1013A00028D10199AD48FFF7C5FD00280CD00D23C9
:1013B0006B43E3185233FF331B78012B04D13B00FE
:1013C0006B438269E318DA610199A548FFF7B2FD22
:1013D00000280CD00D236B43E3185333FF331B78E5
:1013E000012B04D13B006B438269E3181A62019B15
:1013F0001B68C3E79B49049808F000FA0028F6D15F
:1014000001999648FFF796FD00280CD00D236B43F9
:10141000E3185433FF331B78012B04D13B006B439B
:101420008269E3185A6201998D48FFF783FD00280D
:10143000DDD00D236B43E3185433FF331B78012BAE
:10144000D5D13B006B438269E3189A62CFE70D2345
:101450006B43E3185133FF331B78012B00D05DE65B
:101460003B006B438269E318D2B25A6156E6310001
:101470007D48FFF75FFD3B006B43E31800284FD02A
:1014800082699A7031007948FFF754FD002849D0ED
:101490003A00C16983696A430B43591E8B41A21804
:1014A0005374002D1CD131007148FFF743FD142304
:1014B000002800D08369636331006E48FFF73AFD6E
:1014C00022003832002833D0C368591E8B41137074
:1014D00031006948FFF72EFD00282BD08369E363B4
:1014E000039B022B2DD1029E31006448FFF722FDA1
:1014F000002822D08269D3B2022B1ED1551E3A0099
:101500006A430192A218137631005D48FFF712FD7D
:10151000002802D08369019A135501230393F3E550
:101520009870AFE73B0001226B43E3185A74B8E7A9
:101530001070CDE7FA231B01D1E73668002ED3D116
:10154000EBE7002705994F48FFF7F4FC00282ED061
:10155000002F2CD13D008668002E28D03100404855
:10156000FFF7E8FC00280BD063191A006A32FF323B
:101570001278012A04D102326A439B188269DA6622
:1015800031004148FFF7D6FC00280BD063191A0040
:101590006932FF321278012A04D102326A439B1861
:1015A00082699A6602350A2D01D03668D4E705991A
:1015B0003648FFF7BFFC051E22D0002F20D10100C6
:1015C0003348FFF7B7FC00280AD07423FF33E35CED
:1015D000012B05D1C3685A1E93412200913213702A
:1015E00029002C48FFF7A6FC002809D0B9235B008E
:1015F000E35C012B04D1C36890345A1E93412370DD
:10160000380009B0F0BD2449039808F0F7F8002825
:1016100000D068E631001148FFF78CFC002806D0A6
:10162000B3235B00E35C012B01D1836923663100A6
:101630000B48FFF77FFC002800D154E66823FF33F6
:10164000E35C012B00D04EE6836963664BE6C0463F
:10165000979A0010E99C0010FC9A0010A19A0010C3
:10166000A99A0010019B0010319B0010399B0010BB
:10167000B59A0010BD9A0010C89A0010E69A0010A2
:10168000369B0010449B00104E9B0010549B001092
:10169000609B00106C9B00107E9B001070B50C00CE
:1016A00001009E48FFF746FC051E00D10DE183684E
:1016B000002B00D109E101009948FFF73BFC00280D
:1016C00000D104E1C368042B00D000E1C269836942
:1016D00013435A1E9341237029009248FFF72AFCB6
:1016E000002800D1F5E0C368042B00D0F1E0836945
:1016F000636029008C48FFF71DFC002800D1EAE058
:10170000C368042B00D0E6E08369884ADB019B189C
:10171000A36029008648FFF70DFC002800D1DCE01B
:10172000C368042B00D0D8E08369E36029008148B6
:10173000FFF700FC002800D1D1E0C368042B00D0E3
:10174000CDE0C269836913435A1E93416370290037
:101750007948FFF7EFFB002800D1C2E0C368042BF3
:1017600000D0BEE08369236129007448FFF7E2FBE3
:10177000002800D1B7E0C368042B00D0B3E0836930
:10178000636129006E48FFF7D5FB002800D1ACE06B
:10179000C368042B00D0A8E08369A36129006948CD
:1017A000FFF7C8FB002800D1A1E0C368042B00D0DC
:1017B0009DE08369E36129006348FFF7BBFB0028D4
:1017C00000D196E0C368042B00D092E08369574AA9
:1017D000DB019B18236229005C48FFF7ABFB002864
:1017E00000D188E0C368042B00D084E083694F4AAD
:1017F000DB019B18636229005548FFF79BFB00281B
:1018000000D17AE0C368042B00D076E08369A3623C
:1018100029005048FFF78EFB002800D16FE0C36815
:10182000042B00D06BE08369E36229004A48FFF78C
:1018300081FB002865D0C368042B62D1C26983692B
:1018400013435A1E9341A37029004448FFF772FBCB
:10185000002858D0C368042B55D1C269836913434B
:101860005A1E9341E37029003D48FFF763FB0028AF
:101870004BD0C368042B48D183692C4ADB019B18E9
:10188000236329003748FFF755FB00283FD0C36882
:10189000042B3CD18369254ADB019B186363290033
:1018A0003148FFF747FB002833D0C368042B30D101
:1018B0008369A36329002D48FFF73CFB00282AD049
:1018C000C368042B27D18369E363002070BD002324
:1018D00001E700230CE700231AE7002325E7002394
:1018E00034E700233FE700234AE7002355E70023BE
:1018F00060E700236EE700237CE7002387E70023EF
:1019000092E700239FE70023ACE70023B8E700231A
:10191000C4E70023CDE70023D6E7C046A99B00100B
:10192000B09B0010BD9B0010CA9B0010000032400D
:10193000D59B0010E29B0010EC9B0010F69B001062
:10194000FE9B0010059C0010139C00101D9C0010B5
:10195000289C0010349C0010419C00104B9C0010EF
:10196000589C0010629C00106D9C0010799C001027
:10197000F8B50E0001001648FFF7DCFA011E08D08A
:101980008368002B05D01348FFF7D4FA0400002C1D
:1019900001D10020F8BDA4680F4FA1683800FFF7FF
:1019A000C9FA35000028F2D0C368042BEFD183694F
:1019B000321D2B60036824689B6921006B60D36F24
:1019C00038000133D367FFF7B5FA0835EAE7C046B8
:1019D000D49C0010289D0010E09C001070B50C00F5
:1019E00001001648FFF7A6FA051E24D0010014488E
:1019F000FFF7A0FA002806D0E378012B03D1006995
:101A0000FFF72AFA207029000E48FFF793FA002802
:101A100006D02379012B03D10069FFF73DFA6070EE
:101A200029000948FFF786FA002804D06379012BC2
:101A300001D18369A370002070BDC0468F9B001048
:101A4000929B00109D9B0010A59B001070B5040098
:101A50000D0086B00021142201A807F0FEFD290028
:101A60002000FFF767FA0400002C18D021001C4862
:101A7000FFF760FA0028F7D00569002D0AD0194E4B
:101A80002900300007F0BAFE00280BD1310001A870
:101A900007F0BEFE210001A8FFF74CFA0400200069
:101AA00006B070BD104E2900300007F0A7FE0028D8
:101AB000ECD029000D4807F0A1FE0028E6D00C4E1E
:101AC0002900300007F09AFE0028DFD029000948DD
:101AD00007F094FE0028DDD121000748C1E7C04689
:101AE000E99C0010119D0010FA9C0010019D00104F
:101AF000099D0010EE9C0010F49C001010B5FFF73B
:101B000019FA0124002809D08168002906D0044868
:101B1000FFF710FA002801D0C468E4B2200010BD1D
:101B2000869C0010F7B5040000200D00FEF750FF62
:101B30002000FFF7B5F8071E4AD001002648FFF73E
:101B4000F9F9041E06D1012676423800FEF75AFF45
:101B50003000FEBD01002148FFF778FF210006009C
:101B60001E48FFF7CBFF0090002E2BD03069FFF707
:101B700073F96B4600261B782870EB70210018481B
:101B8000FFF764FF210000901548FFF7B7FF009BA7
:101B90000190002B19D01869FFF77EF96B461B796D
:101BA00068702B7121000F48FFF750FF2100009053
:101BB0000C48FFF7A3FF009B002BC4D09B69687102
:101BC000AB70C2E701267642D8E701267642E9E704
:101BD00005267642BCE7C0468F9B0010929B001002
:101BE0009D9B0010A59B0010F0B5050085B000205E
:101BF0000C00FEF7EDFE2800FFF752F801900028D8
:101C000000D1B1E10100DA48FFF794F9051E00D1D7
:101C10006AE1D84F01003800FFF718FF29000600DD
:101C20003800FFF76BFF002E00D13DE1A622B3691B
:101C30005200DBB22370A0542200303213705A23BA
:101C4000FF33E0540023CC4F290038000093FFF706
:101C5000FDFE290006003800FFF750FF002E00D1DE
:101C600025E1F3685A1E93414E22DBB2FF326370C6
:101C7000A054220031321370AD235B00E054BF4FFB
:101C800029003800FFF7E2FE290006003800FFF7C0
:101C900035FF002E00D10EE1F3685A1E9341502209
:101CA000DBB2FF322374A054220040321370AE2303
:101CB0005B00E054B24F29003800FFF7C7FE29004F
:101CC00006003800FFF71AFF002E00D1F7E0A82227
:101CD000B3695200DBB26361A05463645E23FF33D7
:101CE000E054A84F29003800FFF7B0FE2900060095
:101CF0003800FFF703FF002E00D1E4E02200B369B3
:101D00002C32DBB213705622FF32A05422005C3218
:101D10001370B1225200A05422002D321370AB2256
:101D20005200A05422005D3213706422FF32A0548E
:101D300022002E3213705822FF32A05422005E324D
:101D40001370B2235B00E0548F4E29003000FFF780
:101D50007DFE290007003000FFF7D0FE002F00D1E4
:101D6000B5E0FB685A1E93412200DBB22F3213709C
:101D7000AC225200A05422005F3213706623FF335E
:101D8000E05401998148FFF7D5F80600002F00D1F3
:101D9000AAE052220123FF32A354D218A3545422A2
:101DA000FF32A354D218A35402225E33FF32784F7D
:101DB000FF33E25202330100E2523800FFF746FEE1
:101DC000310005003800FFF799FE0390002D00D187
:101DD00081E0AB6902936F4F31003800FFF736FEA8
:101DE000310005003800FFF789FE002D00D177E0B3
:101DF000AD6922002100230075324D319433FF324A
:101E0000FF31029E5D601E606E46367B08331670A1
:101E1000507002328B42F4D1B32302225B00FF32B6
:101E2000E25201995C48FFF785F8061E69D05B4FC6
:101E300001003800FFF70AFE310005003800FFF707
:101E40005DFE0390002D53D0AB690293514F3100DA
:101E50003800FFF7FBFD310005003800FFF74EFEAC
:101E6000002D4AD0AD692200230021006932683379
:101E7000FF329031029E5D601E606E46367B0833F5
:101E80005070167002329942F4D101994448FFF71C
:101E900051F8051E39D101235B4200930198FEF7EA
:101EA000B1FD009805B0F0BD01235B42CBE60123F4
:101EB0005B420093E3E601235B420093FAE60123D1
:101EC0005B4200930DE701235B4200933CE7012353
:101ED0005B42009355E701235B42029500937AE74A
:101EE00001235B42009384E701235B42009393E765
:101EF00001235B4202950093A8E701235B42009314
:101F0000B1E701235B420093BFE7264F0100380091
:101F1000FFF79CFD290006003800FFF7EFFD002EBB
:101F20001ED0F3685A1E9341220090321370B923D9
:101F30005B00E0541C4F29003800FFF787FD2900A3
:101F400006003800FFF7DAFD002EA4D0F3685A1E11
:101F500093412200913213707423FF33E0549DE7C4
:101F600001235B420093E5E705235B42009398E77A
:101F70008E9C0010369B0010CC9C0010099B00101A
:101F8000F29A0010279B0010209B0010979A0010D7
:101F9000A19A0010A99A0010449B00104E9B0010BB
:101FA000549B00106C9B0010609B0010DC23F0B56C
:101FB0009B0585B00093002302AD0195029018485F
:101FC000184C06686B60306A0768002F07DBA34275
:101FD00003D10120404205B0F0BD0133F4E7A34234
:101FE000F7D06B46C3600123BC3683603368C018EA
:101FF00000230668002E03DAA342EAD00133F8E793
:10200000A342E6D0A02300981B06984201D0009876
:10201000E1E7029B002013606B680B60DBE7C046C2
:10202000A00B0208983A00000122F0B50024184BDA
:102030000668196832400B6ABC310D6815495D1994
:102040001F68002F06DB8C4202D101204042F0BD08
:102050000134F5E78C42F8D0002A00D106000120B7
:10206000DE60986000202C68002C03DA8842ECD0F7
:102070000130F8E78842E8D0DB68002A00D11B680D
:10208000A022002012069342E1D01800DFE7C046EC
:10209000A00B0208983A00000A4B37B51B780500E0
:1020A000013B0024012B05D8074B01A80193FFF742
:1020B000BBFF0400002D02D0280004F0C3FF200065
:1020C0003EBDC046101102080101013A07B5034B9D
:1020D00001A80193FFF7A8FF0EBDC0460101003221
:1020E00010B5FFF7F3FF002801D107F09DFC10BDEC
:1020F000F8B5060008001700FFF7CEFF1D4B1B6860
:10210000002B20DAB0241C4B1C4DA4002B511C4B7F
:102110001C481B681A009832196812688A181168DE
:1021200008401949014311601A00903212681B6877
:102130009B18102219681142FCD0012004F082FF84
:102140002E51FFF7CDFF002F0CD005F0DFFEC0228F
:1021500001230E495200885803438B5005F012FFAB
:1021600005F0BCFE300006F027F8002005F02AFB41
:10217000FBE7C04600012640004000160000214059
:10218000A00B0208FCFF00000300FA050000264037
:10219000C0220123044910B55200885803438B50D4
:1021A00005F0F0FE10BDC04600002640F8B5284BF3
:1021B000421E05009A4248D8264B1A78002A44D17C
:1021C0000124254F1C703B78244E002B07D1FFF7CC
:1021D000DFFFE122D200B358A343B3503C70C022CA
:1021E000012100245200B3588B43B3501C4B1D8077
:1021F0001C4BA20099184988A94221D8D35A9D4264
:1022000000D21D00184B20001C7005F0A3FEC22355
:1022100028005B00F65807F043F8144A144B06F008
:10222000BFF906F0DDF811231C1B103BA3408019F9
:10223000C01A80B205F07CFEFFF7AAFF0020F8BDAF
:1022400001340D2CD5D1013CDCE701204042F6E7FA
:102250006F170000A4060208A50602080000264029
:10226000A2060208549E0010A006020833DFC14FE8
:102270001C409F3FC0220120044952008B588343D9
:102280008B500022024B1A707047C0460000264057
:10229000A4060208C0220120024952008B58834341
:1022A0008B50704700002640014B18607047C046B5
:1022B000A00B0208F8B58023FA270E0001251B02A7
:1022C00018430C4C0004E061BF00236C2B4208D182
:1022D000002F01D108480CE02800013F04F0CCFE9B
:1022E000F3E7002FF6D00020236C1D432564E36A3A
:1022F0003380F8BD00003C400400160070B5FA269B
:10230000012500040B4C0143E161B600236C2B4214
:1023100008D1002E01D108480AE02800013E04F04F
:10232000ABFEF3E7002EF6D00020236C1D4325649E
:1023300070BDC04600003C40040016001023044954
:10234000044A885803438B500022034B1A6070479D
:1023500000003C4070F00100100A0208F0B51B4B71
:102360009DB001A90A00180070C870C270C870C280
:1023700070C870C20AAC1A0020002432E0CAE0C063
:10238000E0CAE0C0E0CAE0C013AD2A004833C1CBC8
:10239000C1C2C1CBC1C2C1CBC1C20D4E33689869A5
:1023A0000130FF3000F00EFB336821009869813066
:1023B000FF3000F007FB33682900986980239B00F9
:1023C000C01800F0FFFA1DB0F0BDC046489F0010D5
:1023D000A00B0208F0B589B002930EAB1B780390F6
:1023E000009104920593012800D92DE1032900D919
:1023F0002AE1029B0C3B872B00D925E1FB2A00D95F
:1024000022E105F033FD002801D005F09DF80122FE
:10241000904B914F1D00D859104204D08F495B5802
:10242000134200D012E1FFF799FF8D4B8D4A012036
:10243000EA50A023029A1B0313438B4AAB508B4BE9
:102440008B4AEA508B4B5B68034200D000E18A4B19
:10245000EB581B073ED52B68884A400310430343C3
:102460002B6005F005FB002843D0059B002B40D1D5
:102470000320012105F036FB012005F063FBEE5936
:102480007F4B40203343EB5104F0F6FD01237D4C9C
:102490002A591A4208D12B51402004F0EDFD0323A4
:1024A00040202B5104F0E8FD774B784C1E400196FC
:1024B0003443FA26EC51F600754B1B689A69754B4C
:1024C000D358102213421FD1002E18D1724C200075
:1024D00009B0F0BD04F012FD7049884202D82B68A3
:1024E0006F48BCE705F0A6FE01382B680028F7D03E
:1024F000B2E703236B4AA9580B43AB50BFE7012057
:10250000013E04F0B9FDD7E7002EDFD00823664A6C
:102510000120A9580B43AB5004F0A2FF002802D0C1
:10252000059B012B02D1614C019B1C43604B614E0A
:10253000234001242343EB51484BEB58234200D066
:10254000CCE0002EC2D02000013E04F095FDF3E760
:10255000013E002800D0D8E006ABDB88BB4200D0AB
:10256000C2E006AB991D5448FFF7A4FE041E00D03C
:10257000CBE006ABDA888023DB001A421BD10A26A7
:10258000019380214C48C900FFF7B8FE041E00D01B
:102590001CE106AB9F1D39004748FFF78BFE040086
:1025A000002E00D1B0E0013E002800D0ADE03B8815
:1025B000019A9342E5D106AB991D4048FFF77AFE98
:1025C000041E00D0A1E006ABDB883F221900914336
:1025D0006A4612880398019206AA0632012824D17D
:1025E000009B02262700012B03D8019BF61AB7B2E5
:1025F0001E0070230B431380314B009A2F48D340A9
:10260000304ABF00136006ABD9883143D980FFF749
:1026100075FE019B04009E1B03231E403743BFB27F
:1026200006ABDF80284BEF506FE00099002908D0FF
:10263000270001267F218B436F390B431380234BE7
:10264000DBE70127009EF5E7214C40E7214C3EE700
:10265000214C3CE700003C40A0F00100B4F0010038
:10266000A4F0010006000001A8F00100ACF0010098
:1026700001000100FC003C4070F00100041A0080E1
:1026800030000300B0F00100EFFFFEFF2000020069
:10269000A00B0208104000000400160000093D00D5
:1026A000040A0080C4F0010068F001002800020064
:1026B000FFFFFBFFF07E0E00031E0000091E00005E
:1026C0000048E801100A020864F001000024F40048
:1026D000010016000300160002001600002E00D1B3
:1026E000F4E6C0270A267F01C0213A484901FFF7D6
:1026F00005FE041E6AD106AB991D3648FFF7DAFDC8
:102700000400002E00D023E7334C04F067FD21289D
:1027100044D0B027314E7F05BB5B002B3ED0002C50
:1027200000D0D4E606AB9D1D29002D48FFF7C2FD61
:10273000041E00D0CBE6B95B288860344908A0436A
:10274000214001432748BA5B0140F020D201C0007C
:1027500002401143244ABB5B1140C022DB005201FE
:10276000134019431E482980FFF7C8FD041E00D0FE
:10277000ADE629001D48FFF79DFD041E00D0A6E62A
:10278000FF23C022B95B19480909890119402B8828
:10279000934319432980FFF7B1FD0400002C00D0BA
:1027A00095E6049B12495B00194389B21148FFF773
:1027B000A5FD041E04D110491048FFF79FFD040039
:1027C000029B580180B204F057FC80E6002E9BD09B
:1027D0009BE7C046021E0000040016001618000009
:1027E000071E00007FF5FFFFFFE7FFFF061E00004A
:1027F00001100000081E0000376800000F1E0000D6
:10280000044B1B681A00BA3212881B6A5043C01866
:102810007047C046A00B02081D4B98420FD010D83D
:1028200040282FD005D8002830D0102828D01948AB
:102830001EE0802828D080235B009842F7D11448FE
:1028400016E0154B984214D008D8A0231B069842D6
:102850001CD0124B9842EAD1A0200BE0104B9842BA
:102860000AD0104B984209D00F4B9842DFD10F4845
:102870007047A420C003FBE70D48F9E70D48F7E7D0
:102880000D48F5E70D48F3E70D48F1E70020EFE7C5
:1028900006005200FF005200010000F0090000A0F5
:1028A000040000F0050000F0030000F001005200F9
:1028B00002005200030052000100500002005000CC
:1028C0000500520010B50020FFF79AFF0A4B1C6864
:1028D0002300BC331B68C0180368002B0ADB074BBE
:1028E0001868FFF799FF012263689A609A68002AC6
:1028F000FCD110BD0248FCE7A00B0208A8060208A4
:10290000020050000D4B10B51860002804D0FE23C3
:102910005B42038000234380094B1B681A0050323E
:102920001278002A08D051331B78002B04D00222E1
:102930000449002000F094F910BDC046B806020812
:10294000A00B02083503020810B50248FFF7DAFFB2
:1029500010BDC0460000000870B5C40506000D009B
:10296000E40D20D100291ED005F070FB0F4B104A5A
:102970001A605C609E60DD600E4B1B6852331978F4
:1029800000290BD004F0C7FAFA21890005F052FCA7
:102990000100094805F04EFC084BC118802040009A
:1029A00007F03AF870BD0648FCE7C046A8060208E2
:1029B00000010005A00B0208C0EA21014826000022
:1029C0000600520030B5002830D000292ED0184B18
:1029D000CD681A6893695469C31ADB091B011B1976
:1029E000140081342478241825601400823424785B
:1029F0000D69241825601400833424784D69241847
:102A000025601400803424788D68241825604C6873
:102A10008432846112788C6912181460CA691A6051
:102A20000A6A5A600B680360002030BD0148FCE769
:102A3000A00B020801005A000E4B10B51B689C69E0
:102A40005B69001BC0090001C0181F231A4003293D
:102A500007D8C9008B408A4004689C432243026027
:102A600010BD0439C9008B408A4044689C4322430E
:102A70004260F5E7A00B0208F8B51F0006AB150091
:102A80001A7806000C00FFF7D7FF0122110017404B
:102A9000A140A7403368A4008B433B433360074BFE
:102AA0001B6881331B78F6180F2319001D40A140C5
:102AB000A54032688A432A433260F8BDA00B020861
:102AC000064B1B68BC331B68C3181B68002B03DA5A
:102AD00089B24160002070470148FCE7A00B020862
:102AE00001008A000368002B04DA89B2C2608160A9
:102AF000002070470048FCE701008A00064B1B6875
:102B0000BC331B68C3181B68002B03DAC3680020A2
:102B10000B6070470148FCE7A00B020801008A0027
:102B2000024B1A68002A00D118607047BC060208E0
:102B3000F0B52C246043154C1F0024681D0A201892
:102B4000FF2425402740124C1B0C26680760346A7E
:102B500045608360BA36368877433F1907612F0096
:102B600080376D017F01E71964190A4D47611F0421
:102B70003B436419236000238361059BC2610162AA
:102B8000002B01D01B888381F0BDC046BC06020823
:102B9000A00B020808100000F0B5836885B002ADF4
:102BA0002B80154B02681B68066A1B8F476A9B18AF
:102BB000AB7043680095826AC16A0400039303699D
:102BC000C068FFF7B5FF00213B000A00009130000C
:102BD000FFF7AEFF216B280004F0EAF90022AB5E9C
:102BE000002B06DB1F2213401E3A9A401300034AB3
:102BF000136005B0F0BDC046A00B020800E100E084
:102C0000F7B52C25134C68432668694334182569A9
:102C100001937118002D19D08869002818D12E68E9
:102C2000002E15DA6768012426004B689E40B446E2
:102C300013689EB263461B041E431660EA608C61F3
:102C4000BC40019BA4B24B62AC60FEBD0248FCE7F5
:102C50000248FAE7BC06020804028A0007028A005A
:102C60002C23434306480068C018C369934204D923
:102C7000036A00209200D15070470248FCE7C0462A
:102C8000BC0602080A028A0073B5002642690400E5
:102C9000D56801962B0CB34221D01B041360136836
:102CA000194B00691B68BC331B68C3181B68B3420F
:102CB00015DA01A9FFF722FFB0420CD10198E269B1
:102CC00003681E0CDBB29A4205D9226A9B009B580E
:102CD000002B00D0984731002069FFF7F1FEADB21C
:102CE000002D09D063691D6000251B68636AAB4233
:102CF00005D098476562A56163691B6873BDA36AC7
:102D0000002BF8D09847F6E7A00B02082C2310B54B
:102D10004343034A1068C018FFF7B6FF10BDC04612
:102D2000BC060208F8B5194B0F001B681A003332B5
:102D30001278824227D9002925D01F250A6815401C
:102D400021D11900BA310C88114E60431C6AD20897
:102D5000041929007868346006F07FFC29002000FF
:102D6000FFF7AEFE3A0029003068FFF7BBFE041EF5
:102D700007D101003068FFF7A3FE03002000002BFD
:102D800000D00448F8BD0448FCE7C046A00B020888
:102D9000C006020801018A0003018A0010B5002A5A
:102DA0000DD1002914D10B4B1A681300BA331B88BC
:102DB0005843136AC018084B1860080010BD00295A
:102DC00006D0064B196019005A60FFF7ABFFF5E714
:102DD0000348F3E7A00B0208C0060208040000083D
:102DE00003018A00F7B5184F04003B680191DE68C3
:102DF0003368834226D90025A94202D1FDF78DFB15
:102E0000050038680368002B1ADA1F2201232240CC
:102E1000934064097268A4001419226813420DD00B
:102E20009A43226000240021FFF74AFE019B002BF9
:102E300002D12800FDF775FB2000FEBD034CF2E730
:102E4000034CF3E7034CF7E7C006020802018800D1
:102E50000301880004018A000A4B1B68DB681A68BA
:102E600082420DD959681F23420918401E3B8340F6
:102E7000920050581840431E9841034BC0187047A9
:102E80000248FCE7C00602080001880004018A002D
:102E900070B59621002004F043F90021080003F0EA
:102EA0002BF9444244412E4B64421C402D4B0500FB
:102EB0000020E41803F09EF8012003F07FF80020C2
:102EC00002F0A8FF05F0C2F8274E33683F331B78A5
:102ED000002B03D0012003F083FC0500002D00D05F
:102EE000224C33683F331B78012B03D9022003F0B7
:102EF00077FC0500002D00D01D4C0021012003F0BF
:102F0000CBFA002800D01B4C002003F0EBF8051E84
:102F10000ED103F0E9FA1223FF33984208D10121C0
:102F2000280003F0C1F8002800D00E4C05F08EF800
:102F300003F03EFB002800D00F4C0021080003F0F6
:102F4000ABFA002800D00D4C0021080003F0ACF8CB
:102F5000002800D0034CFFF7F1F9200070BDC046F7
:102F6000F1F0E5FE0F0F1A01A00B02082F0F1A0156
:102F70002E0F1A014E0F1A013F0F1A014F0F1A019F
:102F80000D4AC0008318083010B58018002905D1FB
:102F90000122524219605A6006C010BD074A8031B2
:102FA000126894695269091BC9090901891800222C
:102FB00019605A600431EFE7A40B0208A00B020865
:102FC00030B5134CC000031908300019002901D096
:102FD000072A06D901220021524219605A6006C010
:102FE00030BD0C4C2468A5696469491BC9090901F5
:102FF00009191960043101601F21032A03D8D20086
:1030000091405960ECE7043AD20091404160E7E713
:10301000A40B0208A00B0208F0B5C400454E00291D
:1030200000D17AE0072A00D977E0002336199D0005
:10303000DF004D190133F551152BF8D1143B9340A6
:103040003D49736009194B603C49032509194B60E0
:103050003B49384F09194B603A4909194B603A49C5
:1030600009194B60394909194B60394909194B60F5
:1030700038490C1951000E00374963600C68B5409F
:103080002100803109789200023189080918C900AD
:10309000C9194D600F252100954081310978023111
:1030A00089080918C900C9194D6035001035AC46AA
:1030B00021006646032582310978B540023189082E
:1030C0000918C900C9194B602100833109782B43C5
:1030D000023189080918C900C9194B60FE23012172
:1030E0009B0084341A402378012502339B0818186A
:1030F000531CC0009940C71901200B00911C884047
:103100009540032603431D43D31C9E402E430725B1
:10311000053295402E437E60F0BD0023012118004A
:1031200034194942E050E21808335160A82BF9D114
:10313000F2E7C046A40B0208AC0B0208B40B02086D
:10314000BC0B0208C40B0208CC0B0208D40B02080B
:10315000DC0B0208E40B0208A00B0208BF4BF0B521
:103160001B6889B01A00BA321188186A8A001218CE
:10317000D0680490008807900498408802900498D2
:103180008768C06806900798013809280BD805F0B1
:1031900047F8680028004700D209F80037015003BB
:1031A00077008500C100AE4C6A46049B928B852156
:1031B0001A806A46802012895C605A80069A9F6055
:1031C000DA60A64B49011B6840031A6ABA335050B3
:1031D00018885158800080180021FFF771FC09B051
:1031E000F0BD029A9F4BD20099184968069C0C408A
:1031F00001D001F0A3F9481C01D101F0A2F9029815
:103200009C2801D901F0A0F9D258002A01D101F07F
:103210009EF9136839430B4006990B431360C3E7CB
:10322000029A904BD1005A185268501C01D101F0FB
:1032300091F902989C2801D901F098F9C958002900
:1032400001D101F096F90B68174205D018007840BB
:10325000024201D001F090F913403B430B6000247F
:10326000A2E7029B9C2B01D901F089F9DA007D4B82
:10327000D358002B01D101F085F91F68002493E792
:10328000022F01D001F081F9069C774B143C60427B
:103290004441764864420440E41885E7002F01D198
:1032A00001F076F9069B052B01D901F074F9704BFA
:1032B0001B681A78002A25D09A683A60DA687A6022
:1032C0006C4ABA605A78002A1ED01A6AFA609A6A62
:1032D0003A61694A7A615A6ABA61DA6AFA61674A96
:1032E0003A629C78002C12D01A6B00247A629A6B96
:1032F000BA62634AFA625A6BDB6B3A637B63614B77
:10330000BB6351E73A60DDE7FA60BA61E9E77C62E6
:103310003C6349E7049B5C68002F00D144E7069BAF
:10332000052B00D940E7524B1B681A78002A20D0A1
:103330009A6880323A609322BA805A78002A1AD06A
:103340001A6A8032BA609522BA815A6A80323A612A
:103350009722BA829A78002A10D01A6B5B6B80325F
:103360008033BA613B6299229B23BA83BB840024D9
:103370001AE73A60E1E7BA603A61EBE7BA613A62AC
:10338000F5E7002F01D101F009F93F4CF022390097
:10339000200006F059F903F08BFE002810D0FFF74B
:1033A00077FD200001F0D2FC384B04001A78002A87
:1033B00000D0F9E6002800D0F6E601321A70F3E6F4
:1033C000324B1B78002BECD1E378002BE7D0E3796C
:1033D000002BE4D0230055331D7803F057FE00285E
:1033E000DDD102F02BFF002805D102F01BFF2800E1
:1033F00002F044FFD3E702F02BFF0028F5D0CEE720
:10340000029B672B00D184E046D8302B00D1D4E159
:1034100017D82D2B00D1D8E02F2B00D1C8E12C2BB1
:103420001AD10024B1251A4BED001C80194B1C80C9
:103430000A4B1B683F331B789C4200D878E000247D
:10344000B2E6029B322B00D1ABE100D2A5E1332BD7
:1034500000D19EE1662B3ED0014CA5E6A00B0208F0
:10346000FF0F1A01A40B0208F90F1A0107F0E5FE7D
:10347000BC0702082000890035008B004A008D003F
:103480005F008F0074009100C8060208B8070208A8
:10349000C4060208C6060208029B6F2B00D1FFE09B
:1034A0000AD86D2B00D1EFE000D9F1E06C2BD3D11D
:1034B00004F0E6FA002477E6029B712B00D132E19A
:1034C00000D2F7E0C82B00D196E1C92BC4D1FEF79A
:1034D00035FF002468E6BB4B5A68002F10D1BA496B
:1034E00011401B220A435A605968B84A1143596077
:1034F00059681143596059680A435A60002453E6D9
:10350000E821B34889010240114359605A680240DA
:10351000F3E703234B439B181A68002AFCDA802246
:103520000024D96852050A43DA605C605B683BE6B8
:10353000002C1ED103F02AF8002818D0200002F039
:10354000D3FF022836D1002C17D19E4AA1485359E7
:10355000184080239B05184350510021200002F0A1
:103560009BFF0123A3409C4A11880B431380013425
:103570005EE7200003F020F9DEE70326914AA3006E
:1035800096499B185A58120F324204D05A58120FBB
:103590003240012A06D10122A2401000904E32880A
:1035A000104330805A588B481040802292051043B7
:1035B0005850D2E7002CDAD1824A864953590B4041
:1035C000802189050B435351D1E7834B1B88002B86
:1035D0000FD102F0DBFF041E00D1E5E5814C40E095
:1035E000013D02F06FFE022805D0002DF8D17E4C7F
:1035F000DAE57C4DF5E7002DF9D000267A4C09E09C
:10360000013D02F0CBFF002801D001F00CF8002DA5
:10361000F6D10136754B1B683F331B789E4200D9AB
:10362000C2E50123B3409BB203936B4B039A1B8803
:103630001342EED00221300002F02EFF002EE0D027
:10364000300003F0C3F8002801D000F0FBFF002D8C
:10365000DFD0013DF4E7C020800501439950D8E751
:10366000013C02F09BFF002802D1002CF8D1BEE7FC
:10367000002CBCD0B122C0235249D20088589B05EF
:1036800003438B5000248FE504F04CFA00248BE5B3
:103690003800431E9841C0B204F054FA002483E578
:1036A0003878072801D900F07CFF797804F01AFAFD
:1036B000002479E53B78002B01D000F075FF796894
:1036C000CAB20F2A01D900F072FF0125484C8D4083
:1036D000A446201D3A7AC66FB34208D1002004F0F8
:1036E00053F9441EA0414442424804405CE5D800DE
:1036F000604404682C4214D0022A08D0032A0BD05C
:10370000002AEBD14368DB07E8D43A4C4CE5436828
:103710001342E3D1374C47E543685B07DED4354CB1
:1037200042E50133D8E73B78002B01D000F042FF9F
:103730002F4A0425101DC06F01268446397A63453F
:1037400008D1002004F05AF9441EA04144422948FF
:10375000044029E502290BD0032910D0002916D1F5
:10376000234CD80000194068304210D1214C1BE591
:10377000D80080184068084209D11E4C14E51C4C42
:10378000D80000194068284201D100F016FF01332B
:10379000D5E703F059FA002406E503F08FFA002478
:1037A00002E53A893888796803F064F90400FBE49B
:1037B000380003F015FA0400F6E4380002F024FDA6
:1037C0000024F1E4000026400000FC0F003A0280D3
:1037D000FF00FC0FFFFFFFCFC4060208FC0500003E
:1037E000C606020840420F00FA0F1A01A00B020899
:1037F0008C100208FE0F1A01B94C7A6823002100D0
:10380000DC331A60BB68E0310B6021002500260024
:103810003878E43108607978E83529603D7BEC360A
:10382000356001260234E6770095FEF7D3FD0400EB
:10383000BAE4AC4A1278002A01D100F0C1FE029825
:103840000838632801D900F0BEFE04F0E9FCD80076
:10385000E600FA001C012A0138014D015B01BC069B
:103860006901770185019D01DD011D02C502630328
:103870007C039503AE03C203D603E403F2030604FC
:103880001A04280436044F045E046C047B05A40566
:10389000CE05FF055406BC06BC066D06BC06BC067C
:1038A000BC06BC06BC06BC06BC06BC06BC06BC0608
:1038B000BC06BC06BC06BC06BC06BC06BC06BC06F8
:1038C000BC06BC06BC06BC06BC06BC06BC06BC06E8
:1038D000BC06BC06BC06BC06BC06BC06BC06BC06D8
:1038E000BC06BC06BC06BC06BC06BC06BC06BC06C8
:1038F000BC06BC06BC06BC06BC06BC06BC06BC06B8
:10390000BC06BC06BC06BC06BC06BC06BC06640005
:103910008500A700BF000122714D6B78E91C03935D
:103920002B792E780593FBB22A706A70CB77002B27
:103930000FD12A71280001F009FA041E00D133E4E6
:103940006B461B7B2E706B706B461B7D2B71FFF7DC
:103950002BFC00232B71EDE701210022604D6B78D9
:10396000281D03932B792E780593FBB229706A707A
:10397000C377022B10D12971280001F0E7F9041E4A
:1039800001D1FFF711FC6B461B7B2E706B706B46F1
:103990001B7D2B71FFF708FC2A71EDE7504D2B784A
:1039A0006E1D0393F37F2800059301232B70F3779B
:1039B00001F0CCF9041E01D1FFF7F6FB6B461B7B2F
:1039C0002B706B461B7DF377FFF7EEFB444D2B7896
:1039D0006E1D0393F37F2800059301232B700023B2
:1039E000F37701F0B3F9041E01D1FFF7DDFB6B465D
:1039F0001B7B2B706B461B7DF377FFF7D5FB0023FA
:103A0000374D28006E796B7101F0A0F9041E01D1C9
:103A1000FFF7CAFB6E71FFF7C7FB314D6B7A2800C9
:103A200003930023AE6E6B72AB6601F08FF9041E38
:103A300001D1FFF7B9FB6B461B7BAE666B72FFF7DC
:103A4000B3FB002F01D100F0C1FD3F331B78BB4217
:103A500001D200F0BEFD0023214D012F0DD1AE7A21
:103A6000AB72280001F072F9041E01D1FFF79CFB34
:103A7000012F05D1AE72FFF797FBEE7AEB72F0E7FC
:103A8000EE72FFF791FB0123154D2800EE79EB71E3
:103A900001F05CF9041E01D1FFF786FBEE71FFF720
:103AA00083FB00230E4D2800EE79EB7101F04EF9F7
:103AB000041E01D1FFF778FBEE71FFF775FB3B00A9
:103AC00007485A1E9341050055352E782B7001F09A
:103AD0003DF9041E01D1FFF767FB2E70FFF764FB71
:103AE000C8060208B80702080123C248451CEE7F39
:103AF000EB7701F02BF9041E01D1FFF755FBEE77B0
:103B0000FFF752FB0023BB48451CEE7FEB7701F02B
:103B10001DF9041E01D1FFF747FBEE77FFF744FBC9
:103B20000123B44D28002E7A2B7201F00FF9041EE8
:103B300001D1FFF739FB2E72FFF736FB0023AD4DA5
:103B400028002E7A2B7201F001F9041E01D1FFF733
:103B50002BFB2E72FFF728FBA648FBB20500013BAA
:103B60005A425341002456352E782B70037AA342D3
:103B700001D1FFF719FB01F0E9F8041E01D1FFF7AD
:103B800013FB2E70FFF710FB052F01D900F024FD69
:103B90003800984D012304F039FB0316191C1F222D
:103BA0006E7D6B75280001F0D1F8041E01D1FFF77E
:103BB000FBFA052F01D9FFF7F7FA380004F026FBCE
:103BC0001215181B1E21AE7DAB75EBE7EE7DEB7574
:103BD000E8E72E7E2B76E5E76E7E6B76E2E7AE7E3B
:103BE000AB76DFE76E75FFF7DFFAAE75FFF7DCFA4D
:103BF000EE75FFF7D9FA2E76FFF7D6FA6E76FFF755
:103C0000D3FAAE76FFF7D0FA052F01D900F0E7FC22
:103C100038000023774D04F0F9FA0316191C1F220F
:103C20006E7D6B75280001F091F8041E01D1FFF73D
:103C3000BBFA052F01D9FFF7B7FA380004F0E6FA0E
:103C40001215181B1E21AE7DAB75EBE7EE7DEB75F3
:103C5000E8E72E7E2B76E5E76E7E6B76E2E7AE7EBA
:103C6000AB76DFE76E75FFF79FFAAE75FFF79CFA4C
:103C7000EE75FFF799FA2E76FFF796FA6E76FFF754
:103C800093FAAE76FFF790FA3868052801D900F06C
:103C9000A9FC584C3B79220004F0B8FA032E3C4AA8
:103CA00058662600A532A8361578137032681800B9
:103CB0000392627DA634059203F0F0F823784E4912
:103CC000D84004F0B7FA059B30601C1E01D1FFF705
:103CD0006BFA484E300001F039F8041E01D1FFF7AD
:103CE00063FA3868052801D9FFF75EFA330004F05B
:103CF0008DFA4950575E656C2600AC32B0361578A7
:103D00001370326818000392A27DAD34059203F05F
:103D1000C5F8D3E72600B432B83615781370326888
:103D200018000392E27DB534059203F0B7F8C5E7B9
:103D30002600BC32C0361578137032681800039222
:103D4000227EBD34059203F0A9F8B7E72600C432FD
:103D5000C83615781370326818000392627EC53435
:103D6000059203F09BF8A9E72600CC32D0361578EF
:103D70001370326818000392A27ECD34059203F0CE
:103D80008DF89BE7A5331D70039BA8363360FFF7C2
:103D90000BFAAC331D70039BB0363360FFF704FAA7
:103DA000B4331D70039BB8363360FFF7FDF9BC33A5
:103DB0001D70039BC0363360FFF7F6F9C4331D70E6
:103DC000039BC8363360FFF7EFF9CC331D70039BBC
:103DD000D0363360FFF7E8F93868052801D900F0DC
:103DE00004FC044B3A791C0004F010FA08333E49F5
:103DF000545FC046C806020840420F001D00A634AA
:103E0000A835267822702A6803925A7DA533059238
:103E1000187803F043F82378DB49D84004F00AFA15
:103E2000059B28601C1E01D1FFF7BEF9D74D280065
:103E300000F08CFF041E01D1FFF7B6F938680528A1
:103E400001D9FFF7B1F92B0004F0E0F93A41484FEE
:103E5000565D1D00AD34B035267822702A68039275
:103E60009A7DAC330592D3E71D00B534B83526787A
:103E700022702A680392DA7DB4330592C8E71D00E8
:103E8000BD34C035267822702A6803921A7EBC336E
:103E90000592BDE71D00C534C835267822702A6812
:103EA00003925A7EC4330592B2E71D00CD34D0355B
:103EB000267822702A6803929A7ECC330592A7E76F
:103EC000A6331E70039BA8352B60FFF76DF9AD3349
:103ED0001E70039BB0352B60FFF766F9B5331E707B
:103EE000039BB8352B60FFF75FF9BD331E70039B52
:103EF000C0352B60FFF758F9C5331E70039BC835DA
:103F00002B60FFF751F9CD331E70039BD0352B602A
:103F1000FFF74AF99D4D2E00AB7CA2360393337810
:103F20002800059301233770AB7400F00FFF041EC7
:103F300001D1FFF739F96B461B7D33706B461B7B54
:103F4000AB74FFF731F9914D2E00A336337828007A
:103F50000393EB7C377005930123EB7400F0F6FEBE
:103F6000041E01D1FFF720F96B461B7B33706B46B3
:103F70001B7DEB74FFF718F9844D2E002B7FD6368E
:103F80000393337828000593012337702B7700F0D3
:103F9000DDFE041E01D1FFF707F96B461B7D337070
:103FA0006B461B7B2B77FFF7FFF878480024050052
:103FB000D8352E882F80837FA34201D1FFF7F4F8F4
:103FC00000F0C4FE041E01D1FFF7EEF82E80FFF7CB
:103FD000EBF86E4800240500DA352E782F70837FC9
:103FE000A34201D1FFF7E0F800F0B0FE041E01D1BA
:103FF000FFF7DAF82E70FFF7D7F80123634D28009A
:10400000AE7FAB7700F0A2FE041E01D1FFF7CCF823
:10401000AE77FFF7C9F800235C4D2800AE7FAB7781
:1040200000F094FE041E01D1FFF7BEF8AE77FFF753
:10403000BBF8564800240500D4352E782F70C37E77
:10404000A34201D1FFF7B0F800F080FE041E01D1B9
:10405000FFF7AAF82E70FFF7A7F84C4800240500D8
:10406000D5352E782F70C37EA34201D1FFF79CF87F
:1040700000F06CFE041E01D1FFF796F82E70FFF7DA
:1040800093F80123414D2800EE7EEB7600F05EFEB2
:10409000041E01D1FFF788F8EE76FFF785F80023BC
:1040A0003A4D2800EE7EEB7600F050FE041E01D162
:1040B000FFF77AF8EE76FFF777F8344D2E006B7F36
:1040C000D7360393337828000593012337706B7735
:1040D00000F03CFE041E01D1FFF766F86B461B7D25
:1040E00033706B461B7B6B77FFF75EF8274B5C7971
:1040F000002C00D07CE23A689A627A68DA62BA6888
:104100001A63FA685A63FFF74FF801231F4D28001E
:104110006E796B7100F01AFE041E01D1FFF744F8AE
:104120006E71FFF741F83868052800D963E2174B34
:1041300004F06CF8031B222E353C1A000121963244
:104140001E7B15881973B9881800118000F0FEFDD8
:10415000041E386831D1052801D9FFF725F80B4D29
:1041600004F054F8526F8EAEC4DA1A00012198326E
:104170005E7B15885973E6E71A0001219A329E7B0F
:1041800015889973DFE7C04640420F00C806020851
:104190001A0001219C32DE7B1588D973D3E71A00FF
:1041A00001219E321E7C15881974CCE71A0001216A
:1041B000A0325E7C15885974C5E7052800D91DE238
:1041C000E64B04F023F803080D12171C1E739633F8
:1041D0001D80FEF7E9FF5E7398331D80FEF7E4FF54
:1041E0009E739A331D80FEF7DFFFDE739C331D80C4
:1041F000FEF7DAFF1E749E331D80FEF7D5FF5E7456
:10420000A0331D80FEF7D0FF6B7A002B03D028006F
:1042100000F0E8FCA8662B00A5331878002801D030
:10422000FEF7C2FF02F03AFE2B00A6331B78CC4902
:10423000A83599404B08181803F0FCFF2860FEF7DA
:10424000B3FFAB7A002B05D02900012000F0E8FC79
:104250002B1DD8672B00A5331878012801D0FEF755
:10426000A3FF02F01BFE2B00A6331B78BC49A83528
:1042700099404B08181803F0DDFF2860FEF794FF03
:10428000EB7A002B06D02900022000F0C9FC2B009D
:104290008C3318602B00A5331878022801D0FEF764
:1042A00083FF02F0FBFD2B00A6331B78AC49A83539
:1042B00099404B08181803F0BDFF2860FEF774FF03
:1042C0002B00A5331878032801D0FEF76DFF02F00C
:1042D000E5FD2B00A6331B78A149A83599404B0872
:1042E000181803F0A7FF2860FEF75EFF2B00A53328
:1042F0001878042801D0FEF757FF02F0CFFD2B00FD
:10430000A6331B789649A83599404B08181803F036
:1043100091FF2860FEF748FF2B00A5331878052889
:1043200001D0FEF741FF02F0B9FD2B00A6331B7848
:104330008B49A83599404B08181803F07BFF28607B
:10434000FEF732FF3A68854B0024DA661A00B98816
:10435000703211801A00B979723211701A00F9792D
:10436000733211701A003989743211801A00B97AC7
:10437000763211701A00F97A773211701A00B98901
:10438000783211801A00B97B7A3211703A8A7C3304
:104390001A80FEF709FF714D6E7A002E00D030E1D1
:1043A000012328006B7200F01DFCA866280000F0B5
:1043B000CDFC041E03D0AE666E72FEF7F5FE2B0038
:1043C000A5331B78002B01D0FEF7EEFE02F066FD50
:1043D0002B00A6331B786249A83599404B08181862
:1043E00003F028FF2860FEF7DFFE3A68002A00D1BC
:1043F0000AE13F331B789A4200D908E17B681E78B6
:104400005D789C78D8781979544B012A10D11A001C
:10441000843216701A00853215701A0086321470B4
:104420001A0087321070883319700024FEF7BCFE22
:104430001A00903216701A00913215701A009232DA
:1044400014701A00933210709433EDE7012F06D1E7
:10445000424A927A002A09D0424CFEF7A5FE022F6A
:1044600004D13E4AD27A002A00D0D3E03F331B78F1
:10447000BB4200D2D1E0002F00D1D1E0374D29005E
:10448000012F12D1380000F0CBFB2B1DD867AF7283
:10449000280000F05BFC041E16D00023012F0DD174
:1044A0002A1DD367AB72FEF77FFE022000F0B8FB37
:1044B0002B008C3318600123EB72E9E72A008C3261
:1044C0001360EB72FEF770FE2B00A5331878431EC5
:1044D000012B01D9FEF768FE02F0E0FC2B00A633A9
:1044E0001B781F49A83599404B08181803F0A2FE05
:1044F0002860FEF759FE194D2E002B7DA43603933C
:10450000337828000593012337702B7500F01EFCCB
:10451000041E01D1FEF748FE6B461B7D33706B46CF
:104520001B7B2B75FEF740FE01220C4B00249A7179
:104530009F64FEF739FE0024FEF736FE0A4CFEF7B4
:1045400033FE094CFEF730FE074CFEF72DFE064CFD
:10455000FEF72AFE044CFEF727FEC046C8060208F6
:1045600040420F002D0F1A01FF0F1A01404CFEF7B9
:104570001BFE3F4CFEF718FE3D4CFEF715FE3C4C73
:10458000FEF712FE3A4CFEF70FFE3A4CFEF70CFE19
:10459000394CFEF709FE384CFEF706FE364CFEF7A6
:1045A00003FE354CFEF700FE334CFEF7FDFD324CAA
:1045B000FEF7FAFD304CFEF7F7FD2F4CFEF7F4FD49
:1045C0002B4CFEF7F1FD2A4CFEF7EEFD2B4CFEF7CF
:1045D000EBFD2A4CFEF7E8FD254CFEF7E5FD244CEB
:1045E000FEF7E2FD224CFEF7DFFD214CFEF7DCFD7D
:1045F000234CFEF7D9FD1E4CFEF7D6FD1C4CFEF7F2
:10460000D3FD204CFEF7D0FD1C4CFEF7CDFD1B4C1E
:10461000FEF7CAFD1C4CFEF7C7FD1B4CFEF7C4FDA0
:10462000194CFEF7C1FD002D01D1FEF7F2FFB122BA
:10463000C0201649D2008B58800503438B500024BC
:10464000FEF7E7FF002D01D1FEF7E3FF104B0F4906
:104650001C88039B0F4A1C40B3005B189958002C20
:1046600001D1FEF7F8FF0C4801409950E7E7C0463A
:10467000FF0F1A01F90F1A01FE0F1A01BD0F1A01DF
:10468000590F1A013E0F1A012D0F1A010000264082
:10469000C6060208FC050000FFFFFFCF37B59D22CC
:1046A0000020384BD100384C591A0919013A0860DA
:1046B000002AF7D1354919603549996035491961A2
:1046C0003549996135491962354999623549196306
:1046D00035499963354919643549096808004030FE
:1046E0000078042800D9334A9A640022052800D9AA
:1046F000314A1A654A6801241000083098652F482D
:10470000644218662E48DC6758662E4880259866F5
:104710002D482D0218672D4812189A6780230A69C0
:10472000DB012B48D31852198025ED0003605B197B
:10473000446008309A42F7D100228520254B400181
:104740000433DA670B6A1B18802040039860042347
:10475000684603800B8F204905338370019202F075
:1047600027FC002800D001BE6B4600229B5E002B78
:1047700006DB1F2213401E3A9A401300174A1360AB
:1047800037BDC046A40B0208EC0400000800264018
:104790000007264004072640080726401007264049
:1047A00084032640880326408C032640900326403D
:1047B000A00B0208940326409803264004002640DC
:1047C00000FF03F0480526404405264060F0000045
:1047D000240C02088C1002085D31001000E100E09A
:1047E00010B5314C2368002B5CD01A78002A0FD00A
:1047F000DA6899682020FEF70FFC23688920996801
:10480000DA68FEF7DDFB236893209968FEF7B8FBB2
:1048100023685A78002A20D09A6A196A3520FEF750
:10482000FBFB23684A20DA6A596AFEF7F5FB236826
:104830008B209A6A196AFEF7C3FB23688D20DA6A17
:10484000596AFEF7BDFB23689520196AFEF798FBAD
:1048500023689720596AFEF793FB23689A78002A09
:1048600020D09A6B196B5F20FEF7D6FB236874206B
:10487000DA6B596BFEF7D0FB23688F209A6B196BAC
:10488000FEF79EFB23689120DA6B596BFEF798FBCD
:1048900023689920196BFEF773FB23689B20596BE3
:1048A000FEF76EFB10BDC046BC070208032818D0F7
:1048B00004D8012813D02ED9886A0FE01223FF33C1
:1048C000984218D01423FF33984217D01138FF387C
:1048D00043425841114B4042184002387047886C9F
:1048E000FCE7E43108680138434258410C4B404230
:1048F0001840C018F2E780200002EFE7094B1B6860
:10490000413318780138431E9841074B4042184004
:1049100080231B02EDE70548E0E7C046027D00006A
:104920000024F400A00B0208FE7FFFFF00127A00B3
:1049300002235B4210B51360314B14001B681A0050
:104940003E321278824258D9052856D803F05EFCD0
:1049500003192E43494F0B7B002B4ED04B7A002B73
:1049600008D00B007A331B78022B03D08B6E2360A8
:10497000002010BD0B0096331888FFF797FF2060CA
:10498000F6E74A7B002A38D03F331B78002B0AD049
:104990008B7A002B07D00B0088331B78022B02D0B8
:1049A0000431CB6FE3E70B009833E5E78A7B002AFD
:1049B00023D03F331B78012B0AD9CB7A002B07D0A9
:1049C0000B0094331B78022B02D08C310B68CEE79E
:1049D0000B009A33D0E7CB7B002B0ED00B009C331F
:1049E000CAE70B7C002B08D00B009E33C4E74B7C3E
:1049F000002B02D00B00A033BEE70248B9E7C04647
:104A0000A00B0208FE0F1A01194B00B5136000231A
:104A1000052809D803F0FAFB030A13191F25002300
:104A2000087B9631984206D1180000BD0023487BD0
:104A300098319842F8D00B8800211160F4E70023E8
:104A4000887B9A319842F6D1EEE70023C87B9C31EF
:104A50009842F0D1E8E70023087C9E319842EAD1E1
:104A6000E2E70023487C9842DED0A031E3E7C0466D
:104A7000FE0F1A01032819D004D801280FD028D915
:104A800048790DE01223FF33984214D01423FF33EA
:104A9000984212D0033B98420BD00F4805E088792A
:104AA000434258410C4B4042184070470231C87F86
:104AB000F6E7C879F4E7087AF2E70131CB7F002BFB
:104AC000EBD0064B1B68413318780138431E9841E0
:104AD000E8E70020E9E7C046FE0F1A01A00B020834
:104AE00010B51B4B1B683E331B7883422DD905281C
:104AF0002BD803F08BFB030C12181E240B7B002B0E
:104B000023D00B0096331888FFF7B4FF10BD4B7B02
:104B1000002B1AD00B009833F5E78B7B002B14D0B9
:104B20000B009A33EFE7CB7B002B0ED00B009C33AE
:104B3000E9E70B7C002B08D00B009E33E3E74B7CAE
:104B4000002B02D00B00A033DDE70248DEE7C046B1
:104B5000A00B0208FE0F1A010300A8331B6810B552
:104B60000400002B02D00848584310BD0300A533B1
:104B7000187802F093F902000120A63423789840B7
:104B800040088018D840F0E740420F0010B50400FC
:104B900001F04EFE002801D0044810BD0449200059
:104BA00001F0BCFE0028F8D0F6E7C046FD0F1A0160
:104BB0001027000070B50400150001F075FA0028F8
:104BC00001D0074870BD2900200001F095FA0028A7
:104BD000F7D1200001F020FA0028F3D0F1E7C04619
:104BE000FD0F1A01030010B5040096331888210048
:104BF000FFF75CFE030000209A1C0FD022007032E9
:104C0000118881420AD0E06E7334584303F012FBDE
:104C100021784B1E9941013103F00CFB10BD0000BF
:104C200070B500250C00A84221D01B4B1B683F33F8
:104C30001B7883421BD301281BD10B0098331888A3
:104C4000FFF734FE23002200843385321B7811786D
:104C500086342578821C1BD000291BD0002D06D05D
:104C6000584303F0E7FA290003F0E4FA05002800AE
:104C700070BD0228FBD10B009A331888FFF716FE8F
:104C800023002200903391321B7811789234E0E7B0
:104C90000025ECE70D00EAE7A00B0208F8B50400D8
:104CA0000F00012932D10300817A427B043098330E
:104CB000C66F83301B8805780020814225D0824250
:104CC00031D018002100FFF7F1FD184BC018184B28
:104CD000984228D86B1E9D41164B6D421D40164BC5
:104CE000ED182379002B1AD0AE421CD3134B9E42F1
:104CF00019D821003800FFF793FF301A464270415F
:104D00000F4E40420F4B3040C018F8BD0300C17A2F
:104D1000827B9A338C301B880668C579CCE7AE421B
:104D200001D3094BE3E70748EFE7C04600F7C2FFAE
:104D300000879303C863E3FF20BCBE0080F0FA0243
:104D400002F0E5FEFE0F1A0180D1F008F0B5040074
:104D50008BB0002801D100F0F2FF0700404EA537CC
:104D6000336838783E331B78984207D300203D4B98
:104D70000593059D002D06D03B4D6EE005AA210050
:104D8000FFF742FEF5E7022820D01223FF339842B6
:104D900045D0012800D071E0344B1B68002B13D0A4
:104DA0001A78002A10D05A68A16C8A420CD19A68ED
:104DB000E16C8A4208D1DB68226D934204D1230062
:104DC00054331B78102B59D0294D46E0274B1B68D4
:104DD000002B22D05A78002A1FD01A69A16A8A4271
:104DE0001BD15A69E16A8A4217D19A69216B8A42BA
:104DF00013D1DA69616B8A420FD11A6AA16B8A42B8
:104E00000BD15A6AE16B8A4207D19A6A216C8A42B5
:104E100003D1DB6A626C934230D0164D1DE0134B18
:104E20001B68002B18D09A78002A15D02200563221
:104E3000D978127891420FD11A6BA16D8A420BD1A9
:104E40005A6BE16D8A4207D19A6B216E8A4203D177
:104E5000DB6B626E934211D0074D28000BB0F0BDA2
:104E6000A00B0208FE0F1A019F0F1A01BC070208CF
:104E7000570F1A01580F1A01560F1A0101F022FAA2
:104E800002281DD06379002B1AD0D94AA36A9B1837
:104E9000D84A934201D900F055FFE36A013B632BE6
:104EA00001D900F04FFF236BD34A013B934201D954
:104EB00000F048FF636B013B934201D900F042FFD1
:104EC000A379002B0ED02279A36C002A00D148E2EE
:104ED000CA4A934201D900F038FFE36C002B01D19C
:104EE00000F033FFA31CDB7F002B1FD02300E43333
:104EF0001B68012B01D900F02BFF2300E0331B6856
:104F0000BF4A5B01913BFF3B934201D900F020FF78
:104F10002300DC331B68FB2B01D900F019FF2300B1
:104F2000E8331B68032B01D900F012FF237B002B11
:104F30000ED033683E331B78002B09D02300963304
:104F400018882100FFF796FD002801D000F003FF2C
:104F5000637B002B0ED033683E331B78012B09D9BD
:104F60002300983318882100FFF784FD002801D022
:104F700000F0F4FEA37B002B0ED033683E331B7889
:104F8000022B09D923009A3318882100FFF772FDFC
:104F9000002801D000F0E5FEE37B002B0ED0336843
:104FA0003E331B78032B09D923009C33188821003A
:104FB000FFF760FD002801D000F0D6FE237C002B17
:104FC0000ED033683E331B78042B09D923009E335F
:104FD00018882100FFF74EFD002801D000F0C7FE21
:104FE000637C002B0ED033683E331B78052B09D928
:104FF0002300A03318882100FFF73CFD002801D0D2
:1050000000F0B8FE01F0C2FA00285DD1637A002BEF
:105010005AD0237B002B01D100F0AFFE2300963342
:1050200018882100FFF742FC764BC018764B984257
:1050300001D900F0A2FE754AA36E9B182279002ABE
:1050400000D190E1724A934201D900F096FEE36EDE
:10505000704A013B934201D900F08FFE2300703368
:105060001B886D4A013B9BB2934201D900F085FE3B
:10507000230072331B78042B01D900F07EFE23003D
:105080007433664A1B88934201D900F076FE2300F0
:1050900076331B780F2B01D900F06FFE2300773396
:1050A0001B780F2B01D900F068FE230078335C4990
:1050B0001B888B4201D900F060FE23007C331B88E3
:1050C000934201D900F059FE33683F331B78002B1F
:1050D00013D0A37A002B10D0012001F06DFB002823
:1050E0000BD133683F331B78002B05D00121200002
:1050F000FFF7D4FD002800D04A4D33683F331B78BA
:10510000012B00D83FE1E37A002B00D13BE1002DD9
:1051100000D0A2E6022001F04FFB002800D124E1DC
:10512000237F002B00D032E1637D002B00D123E6EA
:105130003368029340331B78002B00D11CE63D7886
:1051400021002800FFF7CCFC002800D014E6029BC9
:105150003E331B789D4200D236E1334B0493049BCF
:10516000002B00D008E605AA38782100FFF7E0FB05
:105170002E4B059A050004909A4200D8FCE50028C1
:1051800000D0F9E52300A8331B68002B00D1F3E51C
:105190002200A6321178264A264F53430292BB4280
:1051A00000D9E9E5032900D9E6E5A37D002B43D02A
:1051B000336840331B78012B3ED92300AC33187879
:1051C0002100FFF78DFC002801D000F0A9FC23008E
:1051D000AD331A7803331B6802994B43BB4201D9A4
:1051E00000F09EFC032A01D900F09AFC24E0C0469E
:1051F00000DC0BFFC0EA2101E703000080F0FA02A7
:10520000D010000018FCFFFF18DDF50500CA91FE64
:1052100080BA8C01FEFF0300FE1F0000FF010000AA
:10522000FF1F0000BF0F1A01FE0F1A013F0D030000
:1052300040420F0080D1F008E37D002B1DD0336881
:1052400040331B78022B18D92300B433187821007F
:10525000FFF746FC002801D000F08CFC2300B5339A
:105260001A7803331B6802994B43BB4201D900F003
:1052700081FC032A01D900F07DFC237E002B1DD088
:10528000336840331B78032B18D92300BC331878BC
:105290002100FFF725FC002801D000F063FC23006B
:1052A000BD331A7803331B6802994B43BB4201D9C3
:1052B00000F058FC032A01D900F054FC637E002B57
:1052C0001DD0336840331B78042B18D92300C43316
:1052D00018782100FFF704FC002801D000F05FFCE3
:1052E0002300C5331A7803331B6802994B43BB4232
:1052F00001D900F054FC032A01D900F050FCA37E30
:10530000002B1ED0B14B1B6840331B78052B18D9DE
:105310002300CC3318782100FFF7E2FB002801D0EE
:1053200000F07EFC2300CD331A7803331B6802990A
:105330005943B94201D900F073FC032A01D900F0A6
:105340006FFCE37E002B52D1637F002B6FD1A37CD7
:10535000002B00D091E0E37C002B00D0A0E09C4D1E
:105360007BE59C4AB5E59C4A6DE633683F331B7884
:10537000012B06D902212000FFF790FC002800D164
:10538000CEE6964D69E5002D00D1C9E665E523001E
:10539000D6331B78012B0AD0002B03D0032B08D067
:1053A0008F4D5AE5E379002B00D0BDE6F8E7237A6C
:1053B000F9E7631CDB7F002BF2D0336841331B78A5
:1053C000012B00D1B0E6EBE704AA21002800FFF78B
:1053D0001BFB88235B00984200D1CDE41423FF33EC
:1053E000984200D1C8E4032800D0B8E6C4E4230002
:1053F000D4331E7821003000FFF772FB002814D14F
:105400002300D53302931B78042B0ED805AA210064
:105410003000FFF78DFA002807D1029B059A1B7810
:10542000DA4013006F4A93428ED96F4D15E5230081
:10543000D7331B78002B03D0012B05D06B4D0CE527
:10544000237A002B83D1F9E7237F002BF6D02300AA
:10545000D6331B78012BF3D0002B0CD0032BEDD1CE
:10546000631CDB7F002BE9D0584B1B6841331B7852
:10547000012BE3D16BE7E379E3E7637D002B01D1F7
:105480005B4DEAE42000FFF767FB2300A2331978A5
:10549000013102F0CFFE534B984200D85BE7EFE7B3
:1054A000637D002B00D15AE72000FFF755FBB8427F
:1054B00000D954E72300A33302931978013102F095
:1054C000B9FE2379002B0BD04A4B984200D946E70E
:1054D000A37F002B06D1237D002B39D1464DBCE4A0
:1054E0003C4BF2E723000222D8331B88FF32934261
:1054F00004D022D8002B28D0012B24D1617D002993
:1055000021D00226934208D03C4AB619934204D0D7
:105510003B4A0436934200D0073E2000FFF71CFBB5
:105520002300DA331978013102F084FE310002F0F1
:1055300081FE2C4B9842CED905E030498B42DDD01C
:105540002F498B42DAD02F4D87E401262E48E7E71A
:10555000E37C002BC2D02000FFF7FEFAB84200D94E
:10556000FDE62700E31C0393029BA4371978261D50
:10557000013102F05FFE3978013102F05BFE154B1C
:105580009842ABD89621002001F0CAFD2378002B69
:1055900049D06378002B10D0E31CD87F012806D9AE
:1055A000631DDB7F002B33D102F036FB32E002F0CB
:1055B0008DFB0028F4D0154D4FE4F07F022801D078
:1055C0000528EDD102F0E0FBF3E7C046A00B02088E
:1055D0008C0F1A0100E1F50500AB8704BE0F1A011C
:1055E000AF0F1A010084D7178F0F1A018E0F1A01FF
:1055F0008D0F1A0140787D018B0F1A010102000006
:1056000001030000890F1A0100127A006F0F1A01BE
:1056100002F0D4FA0028CED102F052FCA378002B7D
:105620005BD002F02BFCBE4B1B6841331B78012B77
:1056300009D100F0D3FD631CDB7F002850D0002B84
:1056400001D100F0D5FD0822B64B1E68237A164022
:105650004DD0002B04D17B2001F00EFD00F090FD19
:10566000237F002B0ED02300D6331E7800F09CFC45
:10567000864207D002F03EFC002800D080E33000D4
:1056800000F084FC0122A84BA849C858A31CDB7F6A
:10569000104203D0A648095811424FD1002B51D0D7
:1056A00002F0D4FC2300E8331968043B186808337F
:1056B0001B682200DBB200932300DC32E033C9B266
:1056C000C0B21B681268FCF785FE00283AD0994BDF
:1056D000984237D0984DFFF7C0FB02F0DFFBA2E7FE
:1056E000002BB0D002F0B2FC00F062FDABE7002B63
:1056F000B6D002F0ABFCA06D00280FD0E36D002BFC
:105700000CD033003200216E0096FDF7B5F90096FB
:1057100033003200616EE06DFDF7AEF923005633C1
:105720001878002800D0012000F032FD834800F0F6
:1057300009FD002894D0824DFFF78FFB002B01D18B
:10574000FCF7FCFD00F0BEFD637902283ED1002B82
:1057500001D100F0ABFDA379002B0ED0E06C002846
:1057600008D0230054331B7808220093216D0023B6
:10577000FDF782F9A06C00F08FFDA37C002B04D014
:105780002300A233187800F035FCE37C002B03D013
:10579000029B187800F012FC237D002B02D0387891
:1057A00000F038FB2600122796363388FF37BB42BD
:1057B00049D12300A5331978002944D1012000F0F4
:1057C0006BFE00282BD05F4DFFF747FB002BC2D0AC
:1057D00002F03CFCA06B002810D0E36B002B0DD036
:1057E0000026216C330032000096FDF745F9009643
:1057F00033003200616CE06BFDF73EF9636B226BA6
:10580000E16AA06A00F06CFD002802D04E4DFFF75F
:1058100024FB4E4800F002FE00289CD0F6E7012150
:1058200000F042FC00280BD1237B002B14D03188E0
:10583000002000F031FE00280ED0454DFFF70DFB93
:10584000444DFFF70AFB230098331988012000F02C
:1058500023FE0028E8D0B6E7A37B002B0AD0230064
:105860009A331988022000F017FE002802D03A4D22
:10587000FFF7F3FAE37B002B40D1237C002B71D19F
:10588000637C002B00D080E000F080FE637A00286B
:1058900000D08DE0002B00D193E002F0D7FBE36E47
:1058A00005A80593230070331B888380230072337F
:1058B0001B788371230073331B78C3712300743307
:1058C0001B880381230076331B7883722300773390
:1058D0001B78C372230078331B88838123007A33BB
:1058E0001B78837323007C331B88038200F07EFEC9
:1058F000002863D1194800F003FF5DE0084B1B68E6
:105900003E331B78032BB8D923009C33198803201E
:1059100000F0C2FD0028B0D0114DFFF79EFAC0463E
:10592000A00B020800002740A0F0010000003C404E
:10593000B4F00100030016005D0F1A0140420F0091
:105940005A0F1A014E0F1A015F0F1A01B80B00000F
:105950004F0F1A010F0F1A014D0F1A01400D0300CE
:105960004C0F1A01B54B1B683E331B78042B00D833
:1059700086E723009E331988042000F08DFD00285F
:1059800000D17DE7AE4DFFF768FAAC4B1B683E33A4
:105990001B78052B00D877E72300A0331988052052
:1059A00000F07AFD002800D16EE7A64DFFF755FA0A
:1059B000002B06D100F0FCFD002802D0A24DFFF71D
:1059C0004CFA2300A53302931978002000F06CFBF9
:1059D000002800D034E72300A633197800F08CFBB0
:1059E000002800D02CE73388BB4217D0934F3B6888
:1059F0003F331B78002B75D0012000F0DDFEA37A29
:105A000000281CD0002B38D102F020FB012000F030
:105A1000E7FE002831D08D4DFFF71FFA029B1B785F
:105A2000002BE3D1637B002B00D1CCE6230098331D
:105A30001988012000F030FD0028D7D0C3E6002BE4
:105A40001BD0230084331B7805AE337023008533CD
:105A50001B787370230086331B78B3702300873361
:105A60001B78F370230088331B78337102F0EEFA51
:105A700031000120FFF78AF8CBE73B683F331B7802
:105A8000012B2FD9022000F097FEE37A00280BD0DB
:105A9000002B27D102F0DAFA022000F0A1FE002844
:105AA00020D06B4DFFF7D9F9002B1BD0230090338A
:105AB0001B7805AE3370230091331B78737023007D
:105AC00092331B78B370230093331B78F370230059
:105AD00094331B78337102F0B9FA31000220FFF7DA
:105AE00055F8DCE7012000F0B1FAA37D00281AD0B8
:105AF000002B10D0022000F0A9FAE37D00281DD170
:105B0000002B1DD02300B5331A78013B19780220F1
:105B1000FFF750F82CE0012000F0AAFA0028E9D0A5
:105B20004C4DFFF79AF9002BE4D02300AD331A78DF
:105B3000013B19780120FFF73DF8EFE7002B14D067
:105B40003B6840331B78032B17D9032000F07EFA03
:105B5000237E002826D0002B0FD1032000F088FAE6
:105B600000280AD03C4DFFF778F9022000F080FAB7
:105B70000028E5D0394DFFF770F93B6840331B78BA
:105B8000042B1AD9042000F061FA637E00282FD07C
:105B9000002B12D1042000F06BFA00280DD0304DFC
:105BA000FFF75BF9002BE8D02300BD331A78013BE7
:105BB00019780320FEF7FEFFD2E73B6840331B78DD
:105BC000052B20D800F0CCF9A37F00284CD1002B66
:105BD0004ED02300D8331F889E7800F0CBF93800D0
:105BE00000F08EF9300000F09FF900F0ADF93FE0D1
:105BF000002BE2D02300C5331A78013B197804202A
:105C0000FEF7D8FFC9E7052000F020FAA37E0028A0
:105C100009D0002BD6D1052000F02AFA0028D1D0D7
:105C2000104DFFF71AF9002BCCD02300CD331A7892
:105C3000013B19780520FEF7BDFFEFE7A00B020836
:105C40004B0F1A014A0F1A013F0F1A012F0F1A01A9
:105C50002E0F1A019E0F1A019C0F1A019D0F1A0197
:105C60009B0F1A019A0F1A01002B01D100F082F943
:105C700000F020F9E37E002819D0002B01D100F0BC
:105C800023F9637F002B04D02300D733187800F06A
:105C900027F923003C4F55331E783B78B3421BD085
:105CA00002F028F9002813D0384DFFF7D6F8002B62
:105CB000E7D02300D4331F785E7800F005F9380070
:105CC00000F0C8F8300000F0D7F800F0E7F8D8E7A7
:105CD000300000F0D3FA3E7000F0B0FAE37900280B
:105CE00020D0002B0ED1A32001F0C6F900F0A6FAB7
:105CF000002807D002F0FEF80028D5D100F0A8FA5D
:105D00000028D1D12378002B08D0637D002B05D04B
:105D10002300A8332079196801F002FA02F096F9FD
:105D2000FFF79BF8002BEDD000F088FA0028E9D1AE
:105D300002F0E0F80028B7D100F074FAE2E7144D61
:105D4000FFF78BF8134DFFF788F8134DFFF785F831
:105D5000124DFFF782F8124DFFF77FF8114DFFF754
:105D60007CF8114DFFF779F8104DFFF776F8104DDC
:105D7000FFF773F80F4DFFF770F80F4DFFF76DF851
:105D80000E4DFFF76AF8C046C00702085C0F1A0103
:105D9000FE0F1A01EF0F1A01EE0F1A01ED0F1A0193
:105DA000DF0F1A01DE0F1A01DD0F1A01DC0F1A01D5
:105DB000DB0F1A01DA0F1A01CF0F1A011F0F1A0198
:105DC000F0230A041B0330B51A400F240B002340B4
:105DD0001A43084B1D68830228691B188020C001E4
:105DE0001A5018582040401A411E8841024940422A
:105DF000084030BDA00B02080300C200044B103065
:105E00001B6880021B69C0580F2318407047C046AA
:105E1000A00B0208064B00021B68190088311A68A3
:105E20000B680449D21813680B4018431060704780
:105E3000A00B0208FF00FFFF054B1B681A00883209
:105E40001B6812689B181868000AC0B27047C046E9
:105E5000A00B020810B5A022F0240549D2002401AD
:105E600000028B582040034C23401843885010BD3B
:105E700000002640FFF0FFFF10B5A022E0240549F6
:105E8000D200E40100038B582040034C2340184308
:105E9000885010BD00002640FF8FFFFFA022802306
:105EA0000349D20088581B0203438B507047C046F9
:105EB00000002640A023034ADB00D0580004C00F96
:105EC0007047C04600002640A0220349D2008B58EC
:105ED000024803408B50704700002640FF7FFFFFC1
