:020000041000EA
:1004000000C00208EB0400100D0000004D050010B4
:1004100000000000000000000000000000000000DC
:10042000000000000000000000000000490500106E
:100430000000000000000000490500104905001000
:100440004905001049050010490500104905001034
:100450004905001049050010490500104905001024
:100460004905001049050010490500104905001014
:100470004905001049050010490500104905001004
:1004800010B5064C2378002B07D1054B002B02D06A
:10049000044800E000BF0123237010BD00060208DD
:1004A0000000000088950010044B10B5002B03D00D
:1004B0000349044800E000BF10BDC0460000000032
:1004C00004060208889500100230800803D001302D
:1004D0000238FCD1C046C0467047EFF3108072B6B8
:1004E000704780F3108870477047FFF7FDFF72B6C2
:1004F0000F4C104DAC4209DA21686268A368043BD6
:1005000002DBC858D050FAE70C34F3E70A490B4A2B
:100510000020521A02DD043A8850FCDC08480949E0
:100520000860BFF34F8F07F031F806F099FFFEE740
:1005300094950010AC9500100006020848100208BF
:100540000000020808ED00E0FEE7FEE700B5042029
:100550007146084202D0EFF3098001E0EFF3088012
:10056000043006F063F8FEE70300093B0122042B88
:1005700002D920384242424110007047F0B50025B0
:10058000170006002C0089B003930E9B02901B0CF1
:10059000DBB204930E9B00911B0ADBB205930E9B0A
:1005A000DBB20793731C069333780193002B08D0BA
:1005B000009B002B22DB029A731C9B1A009A9A4222
:1005C0001CDA0E9BDBB2002B00D1B4E0019A9A42F8
:1005D00000D0AEE0009B002B06DB029A731C9B1A36
:1005E000009A934200DDA4E0B31C7678032D00D975
:1005F000A1E0280007F06AF88989637B0198FFF77A
:10060000B3FF002839D1079B019A9342D9D04F4EAE
:100610001100300008F044FB031E08D1049B019A2E
:1006200093420BD0059B93426FD133003F33032D90
:1006300023D8280007F04AF80510233533003E334D
:10064000F5E7002F06D0039A94425ED23F4A9B1AE8
:100650009B003B55012510E0621C002F0BD0039935
:100660008A4252D239493C195B1A21781811014348
:100670001B012170BB5414000225069E92E7621CE8
:10068000002F0BD003998A423FD230493C195B1AA4
:100690002178981001439B012170BB54140003255D
:1006A000EBE7002F08D0039A94422ED227493A193B
:1006B0005B1A11780B43137001340025DDE71D0030
:1006C000002E22D0009B002B22DB029B009AEB1A0B
:1006D0009A421DDA019BB34217D1009B002B04DD27
:1006E000029B009AEB1A93420FDC2E786B1C029A45
:1006F0009D1A002E04D0009B002B11DBAB420FDAB9
:10070000002F18D03B5D002B15D00124644219E066
:100710003000FFF729FF0028DCD02E780135CFE725
:100720003000FFF721FF0028EFD0029B5E5D01350E
:10073000DFE7002DE9D1039B9C42E6D2002F01D0D8
:1007400000233B55200009B0F0BDC046088F0010C3
:10075000002210B504001000A15C0B00303B092BF7
:1007600009D830380818531C032A03D000011A0096
:10077000042BF1D110BD0B00413B052B01D83738BC
:10078000F0E70B00613B052B01D85738EAE7002062
:10079000F0E70000F0B50B7885B0039017004D1C12
:1007A000222B17D0116000202AE05C2A07D1019A81
:1007B0005278002AF7D0019A013301320192019A4E
:1007C00001320192019A1278222A00D1A7E0002A70
:1007D000EBD1E8E701950023F4E72B785C2B11D0EF
:1007E000237001350134019B9D42F6D30023039A07
:1007F00023700833D36013000198029A01301A6104
:1008000005B0F0BD6B78662B63D014D82F2B61D068
:1008100007D8222B5ED0484B3D601B680298984752
:10082000C1E75C2B56D0622BF5D10823237001342D
:10083000063BED18D7E7722B50D006D86E2BEAD1C5
:100840000A2323700134083BF3E7742B48D0752B3F
:10085000E1D1019B5B1B052BDDDDA81CFFF778FFB9
:10086000364B374AC31806009342D4D90028D2D059
:10087000344B334AC318934234D8019AAB1DD31A70
:10088000052BC8DDAB795C2BC5D1EB79752BC2D1BB
:1008900028000830FFF75CFF284B294AC318934211
:1008A000B9D8294BB6021E4080238005800D5B021B
:1008B0000643F6180C23254A96421FD9244A96422D
:1008C000A9D83F203040802676420643E6700422B5
:1008D00012E00C23237001340223AAE70D23F9E769
:1008E0000923F7E77F2804D91A4B98420ED906232B
:1008F000E1E7062301222070A4189AE73F20304048
:10090000802676420643A6700322F5E73F20802327
:1009100006405B421E43667086330222ECE7019A72
:10092000501AC01A0C4B04301B6898470290041EE2
:1009300000D058E737E7C046800002080024FFFFD8
:10094000FF0300000028FFFF00FC0F00FFFF000076
:10095000FFFF1000FF07000084000208002803D0FA
:100960000378013B1F2B00D970470130F6E70000E8
:10097000064B10B51B6828209847041E03D0282278
:10098000002108F0CAF8200010BDC046840002080B
:100990000849094A002803D1084B0B60084B07E0BF
:1009A0000368002B00D1054B0B604368002BF5D08A
:1009B000136070478400020880000208BD8A00109E
:1009C000D18A0010F8B5802604007600002C00D1F2
:1009D000F8BDE3682768334204D1A068002801D03D
:1009E000FFF7F0FFE3680B4D334204D12069002884
:1009F00001D02B6898478022E3689200134204D10B
:100A0000206A002801D02B68984720002B6898475F
:100A10003C00DBE780000208F0B5040085B00F0061
:100A20001600002901D1002013E004226F4938008C
:100A300008F056F9002803D10223E360381D08E0CE
:100A400005226B49380008F04BF9002803D1E0601B
:100A5000781D05B0F0BD04226649380008F040F961
:100A6000002806D101230122E3600023A261E36193
:100A7000E4E73B78222B05D1320039002000FFF754
:100A800089FEE6E72D2B03D01A00303A092A24D834
:100A900000250A2203A93800039508F0DFF90300B6
:100AA00003988742BFD05A1C0AD1534A914211D1B0
:100AB0000122514B5242A261E3610423E360C8E783
:100AC000002B07D180221206914203D180230022FD
:100AD0001B06F0E7A361E161EFE75B2B35D1781CE2
:100AE000FFF73CFF037805005D2B26D00023013D76
:100AF00001930093FFF73CFF009B071E6FD0002B74
:100B000019D0019B18604360681CFFF727FF320073
:100B100001003800FFF780FFFFF720FF051E06D019
:100B2000037801972C2BE5D05D2B08D0306000981E
:100B3000FFF748FF77E70090E6E7002300931023D4
:100B4000E360009B681CA36083E77B2B4BD1781C80
:100B5000FFF704FF037807007D2B38D00023013F07
:100B600001930093FFF704FF009B051E37D0002B75
:100B700017D0019B18604360781CFFF7EFFE32002E
:100B800001002800FFF706FEFFF7E8FE0028CED0A0
:100B90002B692B6200232B6103783A2B03D0306042
:100BA000C5E70090E8E70130FFF7D8FE320001000A
:100BB0002800FFF731FFFFF7D1FE071EB7D00378FB
:100BC00001952C2BCED07D2B03D03060AFE70023D6
:100BD00000932023E360009B781CA36039E7002B7F
:100BE00000D120E7A3E737601DE7C046478F00101C
:100BF0004C8F0010528F0010FFFFFF7FF7B50500EC
:100C00000E0001920F1E00D1144FFFF7B1FE00231A
:100C100004003B6098420DD02800FFF79FFE3A0089
:100C200001002000FFF7F8FE051E05D12000FFF7A8
:100C3000C9FE00242000FEBD019B002B0AD0FFF757
:100C40008DFE03780500002B04D02000FFF7BAFECC
:100C50003D60EEE7002EEDD03560EBE71C060208A4
:100C6000002210B51100FFF7C9FF10BD802233B577
:100C7000450AFFB06D02040029009200684607F0A3
:100C800043FF01236A46E405E40D69462800135535
:100C900001F072FB7FB036BD10B5183909180B781A
:100CA0000020012B02D00800FFF7E0FF10BD00007C
:100CB000F0B58DB01D0015AB1B780E00039300231B
:100CC000170005A906AA0593069300F042F9041E31
:100CD0004BD12F4B3200009306993B000598FFF74C
:100CE0004DFC002851DD0C22210009A807F015FF5A
:100CF000022008AA07A9FF300794089401F036F9EA
:100D0000002802D0652464422FE02900079800F0F3
:100D10004BFF0028F6D1033008AA07A9FF3001F0E5
:100D200025F90028EED11299079800F0DBFE041E89
:100D30001BD109A9300000F024F9041E15D1129925
:100D40000A9800F02BFE041E0FD1039A29000B987D
:100D500000F036F9041E05D1139B002B08D1149B1B
:100D6000002B0DD10998FFF72DFE20000DB0F0BD2E
:100D70001399099800F072FC0028F0D00400F1E704
:100D80001499099800F0D4FDF8E71424BBE7C04695
:100D9000005F2D00F0B58BB01F0010AB059204CBA7
:100DA00004911B7806920793002309AA08A906005C
:100DB0000893099300F0CDF8041E22D1099800F0A1
:100DC0006BF8040007F07AFE051E20D0114B0200DC
:100DD0000093099923000898FFF7D0FB002813DD42
:100DE000079B22000393069B01970293059B290012
:100DF00000933000049BFFF75BFF0400280007F01E
:100E000067FE20000BB0F0BD14246442F6E76424B2
:100E10006442F6E7005F2D0010B5010004000B48A6
:100E200007F04CFF002398420DD02100084807F03E
:100E300045FF0123002806D02100064807F03EFFA9
:100E4000434243415B00180010BDC046689100104A
:100E5000719100107991001010B5010004000B4849
:100E600007F02CFF002398420DD02100084807F01E
:100E700025FF0123002806D02100064807F01EFFA9
:100E8000434243415B00180010BDC0464E91001024
:100E90005791001063910010032358438008984332
:100EA00004307047F8B5C3680D000860202B19D1D5
:100EB00084680E4F002C01D12000F8BD266A002E58
:100EC00006D031000A4807F0F9FE002802D16C6014
:100ED0002468EFE73100380007F0F0FE0028F7D172
:100EE000AC60F5E702204042E7E7C046879100107A
:100EF00081910010F0B507000D00002491B001AE03
:100F0000002D02D1280011B0F0BD296A002904D0BB
:100F1000380007F0D3FE0028F4D0AB68002B06D0D1
:100F20000E2C12D8A200955101341D00E8E72B6861
:100F3000002BFAD1002C0AD0013CA3009B591B685E
:100F4000002BF2D1002CF7D1EFE70025DAE72500DE
:100F5000D8E7F8B50E002E21170007F0A1FE041EF9
:100F60000CD0451C2E21280007F09AFE002805D041
:100F7000001B0138386000203560F8BD1620404263
:100F8000FBE770B5050000200C00FFF701FD28000D
:100F9000FFF766FE002803D02100FFF783FF70BD36
:100FA00005204042FBE7002304220133002901D140
:100FB000904203D952001D2BF7D10233180070471D
:100FC000F0B589B005900C000100C3480792FFF707
:100FD00091FF002800D194E28368029301930023DB
:100FE0001F0006930493019B002B00D0FBE0029BA3
:100FF000DB680193202B00D084E2029E3100B748C9
:10100000FFF778FF051E00D155E1037E079A9A424B
:1010100000D050E10100B248FFF76CFF002800D17A
:1010200043E1836923702900AE48FFF763FF14236F
:10103000002800D0836963602900AB48FFF75AFF9E
:101040000123002802D0C3685A1E9341237229004D
:10105000A648FFF74FFF002800D129E18369E3602C
:10106000002329006376A248FFF744FF002807D039
:101070000169A04807F022FE002801D10123637610
:101080002300627E49331A70002F00D03AE2029E9C
:1010900031009248FFF72EFF002800D110E122789E
:1010A000037E9A4200D00BE131009348FFF722FF04
:1010B000002800D10CE130238269551E6B43E318F0
:1010C0001A76022303933027002E00D02EE1310040
:1010D0008A48FFF70FFF002800D098E131008848C8
:1010E000FFF708FF00280ED00D236B43E3184E33A3
:1010F000FF331B78012B06D13B00C2686B43511EA6
:101100008A41E3185A7031007E48FFF7F3FE002849
:101110000ED00D236B43E3185033FF331B78012BA4
:1011200006D13B00C2686B43511E8A41E3181A7412
:1011300031007548FFF7DEFE00280CD00D236B430D
:10114000E3185033FF331B78012B04D13B006B4372
:101150008269E3189A7431006C48FFF7CBFE0028CF
:101160000FD00D236B43E3185933FF331B78012B4A
:1011700007D13B00C2686B43511E8A41E3182F33ED
:101180001A7031006248FFF7B5FE002800D14EE129
:10119000C368102B00D04AE183680D2123200193FE
:1011A00000236943684361180490019A002A00D122
:1011B0003DE15620FF3084469C446046085C01288F
:1011C00009D1049AD01884462C20019A844492694B
:1011D000101C624688540133032B00D127E1019A89
:1011E00012680192E1E701994A48FFF783FE00285F
:1011F00002D08668002E03D1019B1B680193F2E6A2
:1012000031004548FFF776FE00284CD000250369E1
:101210000393424AAB009958039807F04FFD00280A
:1012200000D1D0E10135032DF3D100253C4AAB00BC
:101230009958039807F042FD071E05D00135172D78
:10124000F4D10527183D7F4231003648FFF752FEA2
:10125000002801D08369069331003348FFF74AFE26
:10126000002804D0C1698069FFF79DFE04906B1CC3
:1012700019D0049B002B16DDBA236A00A2185B006C
:10128000D35C012B05D12B001233DB000699E31848
:1012900059607623FF33D35C012B04D11235ED0066
:1012A000049B6519AB603668A4E701277F42BAE664
:1012B000FA231B01D3E63668002E00D09EE6E3E653
:1012C0003668002E00D0E3E6012335000393FAE6EA
:1012D000012305000393F6E64E910010F68F0010EF
:1012E0006E8F0010758F00107D8F0010888F00109A
:1012F000948F0010A18F0010A68F0010B28F0010E5
:101300008C910010C98F0010D18F0010E08F001059
:10131000E78F0010578F0010A9910010E400020819
:1013200088000208618F0010698F00103100B848F2
:10133000FFF7E0FD002800D1C9E683680193019B17
:10134000002B00D1C3E60199B248FFF7D3FD002876
:101350002DD00369B0491800049307F0AFFC0028B2
:1013600028D10199AD48FFF7C5FD00280CD00D2309
:101370006B43E3185233FF331B78012B04D13B003E
:101380006B438269E318DA610199A548FFF7B2FD62
:1013900000280CD00D236B43E3185333FF331B7825
:1013A000012B04D13B006B438269E3181A62019B55
:1013B0001B68C3E79B49049807F080FC0028F6D11E
:1013C00001999648FFF796FD00280CD00D236B433A
:1013D000E3185433FF331B78012B04D13B006B43DC
:1013E0008269E3185A6201998D48FFF783FD00284E
:1013F000DDD00D236B43E3185433FF331B78012BEF
:10140000D5D13B006B438269E3189A62CFE70D2385
:101410006B43E3185133FF331B78012B00D05DE69B
:101420003B006B438269E318D2B25A6156E6310041
:101430007D48FFF75FFD3B006B43E31800284FD06A
:1014400082699A7031007948FFF754FD002849D02D
:101450003A00C16983696A430B43591E8B41A21844
:101460005374002D1CD131007148FFF743FD142344
:10147000002800D08369636331006E48FFF73AFDAE
:1014800022003832002833D0C368591E8B411370B4
:1014900031006948FFF72EFD00282BD08369E363F4
:1014A000039B022B2DD1029E31006448FFF722FDE1
:1014B000002822D08269D3B2022B1ED1551E3A00D9
:1014C0006A430192A218137631005D48FFF712FDBE
:1014D000002802D08369019A135501230393F3E591
:1014E0009870AFE73B0001226B43E3185A74B8E7EA
:1014F0001070CDE7FA231B01D1E73668002ED3D157
:10150000EBE7002705994F48FFF7F4FC00282ED0A1
:10151000002F2CD13D008668002E28D03100404895
:10152000FFF7E8FC00280BD063191A006A32FF327B
:101530001278012A04D102326A439B188269DA6662
:1015400031004148FFF7D6FC00280BD063191A0080
:101550006932FF321278012A04D102326A439B18A1
:1015600082699A6602350A2D01D03668D4E705995A
:101570003648FFF7BFFC051E22D0002F20D1010006
:101580003348FFF7B7FC00280AD07423FF33E35C2D
:10159000012B05D1C3685A1E93412200913213706A
:1015A00029002C48FFF7A6FC002809D0B9235B00CE
:1015B000E35C012B04D1C36890345A1E934123701D
:1015C000380009B0F0BD2449039807F077FB0028E4
:1015D00000D068E631001148FFF78CFC002806D0E7
:1015E000B3235B00E35C012B01D1836923663100E7
:1015F0000B48FFF77FFC002800D154E66823FF3337
:10160000E35C012B00D04EE6836963664BE6C0467F
:10161000578F0010A9910010BC8F0010618F00102F
:10162000698F0010C18F0010F18F0010F98F00102A
:10163000758F00107D8F0010888F0010A68F00100E
:10164000F68F0010049000100E90001014900010FF
:10165000209000102C9000103E90001070B50C00EF
:1016600001009E48FFF746FC051E00D10DE183688E
:10167000002B00D109E101009948FFF73BFC00284D
:1016800000D104E1C368042B00D000E1C269836982
:1016900013435A1E9341237029009248FFF72AFCF6
:1016A000002800D1F5E0C368042B00D0F1E0836985
:1016B000636029008C48FFF71DFC002800D1EAE098
:1016C000C368042B00D0E6E08369884ADB019B18DD
:1016D000A36029008648FFF70DFC002800D1DCE05C
:1016E000C368042B00D0D8E08369E36029008148F7
:1016F000FFF700FC002800D1D1E0C368042B00D024
:10170000CDE0C269836913435A1E93416370290077
:101710007948FFF7EFFB002800D1C2E0C368042B33
:1017200000D0BEE08369236129007448FFF7E2FB23
:10173000002800D1B7E0C368042B00D0B3E0836970
:10174000636129006E48FFF7D5FB002800D1ACE0AB
:10175000C368042B00D0A8E08369A361290069480D
:10176000FFF7C8FB002800D1A1E0C368042B00D01C
:101770009DE08369E36129006348FFF7BBFB002814
:1017800000D196E0C368042B00D092E08369574AE9
:10179000DB019B18236229005C48FFF7ABFB0028A4
:1017A00000D188E0C368042B00D084E083694F4AED
:1017B000DB019B18636229005548FFF79BFB00285B
:1017C00000D17AE0C368042B00D076E08369A3627D
:1017D00029005048FFF78EFB002800D16FE0C36856
:1017E000042B00D06BE08369E36229004A48FFF7CD
:1017F00081FB002865D0C368042B62D1C26983696C
:1018000013435A1E9341A37029004448FFF772FB0B
:10181000002858D0C368042B55D1C269836913438B
:101820005A1E9341E37029003D48FFF763FB0028EF
:101830004BD0C368042B48D183692C4ADB019B1829
:10184000236329003748FFF755FB00283FD0C368C2
:10185000042B3CD18369254ADB019B186363290073
:101860003148FFF747FB002833D0C368042B30D141
:101870008369A36329002D48FFF73CFB00282AD089
:10188000C368042B27D18369E363002070BD002364
:1018900001E700230CE700231AE7002325E70023D4
:1018A00034E700233FE700234AE7002355E70023FE
:1018B00060E700236EE700237CE7002387E700232F
:1018C00092E700239FE70023ACE70023B8E700235B
:1018D000C4E70023CDE70023D6E7C0466990001097
:1018E000709000107D9000108A9000100000314030
:1018F00095900010A2900010AC900010B6900010CF
:10190000BE900010C5900010D3900010DD90001024
:10191000E8900010F4900010019100100B9100105D
:1019200018910010229100102D9100103991001093
:10193000F8B50E0001001648FFF7DCFA011E08D0CA
:101940008368002B05D01348FFF7D4FA0400002C5D
:1019500001D10020F8BDA4680F4FA1683800FFF73F
:10196000C9FA35000028F2D0C368042BEFD183698F
:10197000321D2B60036824689B6921006B60D36F64
:1019800038000133D367FFF7B5FA0835EAE7C046F8
:1019900094910010E8910010A091001070B50C0017
:1019A00001001648FFF7A6FA051E24D001001448CE
:1019B000FFF7A0FA002806D0E378012B03D10069D5
:1019C000FFF72AFA207029000E48FFF793FA002843
:1019D00006D02379012B03D10069FFF73DFA60702F
:1019E00029000948FFF786FA002804D06379012B03
:1019F00001D18369A370002070BDC0464F900010D4
:101A0000529000105D9000106590001070B50400B9
:101A10000D0086B00021142201A807F07EF82900ED
:101A20002000FFF767FA0400002C18D021001C48A2
:101A3000FFF760FA0028F7D00569002D0AD0194E8B
:101A40002900300007F03AF900280BD1310001A835
:101A500007F03EF9210001A8FFF74CFA040020002E
:101A600006B070BD104E2900300007F027F900289D
:101A7000ECD029000D4807F021F90028E6D00C4EE3
:101A80002900300007F01AF90028DFD029000948A2
:101A900007F014F90028DDD121000748C1E7C0464E
:101AA000A9910010D1910010BA910010C1910010BD
:101AB000C9910010AE910010B491001010B5FFF75D
:101AC00019FA0124002809D08168002906D00448A9
:101AD000FFF710FA002801D0C468E4B2200010BD5E
:101AE00046910010F7B5040000200D00FEF750FFEE
:101AF0002000FFF7B5F8071E4AD001002648FFF77F
:101B0000F9F9041E06D1012676423800FEF75AFF85
:101B10003000FEBD01002148FFF778FF21000600DC
:101B20001E48FFF7CBFF0090002E2BD03069FFF747
:101B300073F96B4600261B782870EB70210018485B
:101B4000FFF764FF210000901548FFF7B7FF009BE7
:101B50000190002B19D01869FFF77EF96B461B79AD
:101B600068702B7121000F48FFF750FF2100009093
:101B70000C48FFF7A3FF009B002BC4D09B69687142
:101B8000AB70C2E701267642D8E701267642E9E744
:101B900005267642BCE7C0464F90001052900010D8
:101BA0005D90001065900010F0B5050085B0002034
:101BB0000C00FEF7EDFE2800FFF752F80190002818
:101BC00000D1B1E10100DA48FFF794F9051E00D118
:101BD0006AE1D84F01003800FFF718FF290006001E
:101BE0003800FFF76BFF002E00D13DE1A622B3695C
:101BF0005200DBB22370A0542200303213705A23FB
:101C0000FF33E0540023CC4F290038000093FFF746
:101C1000FDFE290006003800FFF750FF002E00D11E
:101C200025E1F3685A1E93414E22DBB2FF32637006
:101C3000A054220031321370AD235B00E054BF4F3B
:101C400029003800FFF7E2FE290006003800FFF700
:101C500035FF002E00D10EE1F3685A1E9341502249
:101C6000DBB2FF322374A054220040321370AE2343
:101C70005B00E054B24F29003800FFF7C7FE29008F
:101C800006003800FFF71AFF002E00D1F7E0A82267
:101C9000B3695200DBB26361A05463645E23FF3317
:101CA000E054A84F29003800FFF7B0FE29000600D5
:101CB0003800FFF703FF002E00D1E4E02200B369F3
:101CC0002C32DBB213705622FF32A05422005C3259
:101CD0001370B1225200A05422002D321370AB2297
:101CE0005200A05422005D3213706422FF32A054CF
:101CF00022002E3213705822FF32A05422005E328E
:101D00001370B2235B00E0548F4E29003000FFF7C0
:101D10007DFE290007003000FFF7D0FE002F00D124
:101D2000B5E0FB685A1E93412200DBB22F321370DC
:101D3000AC225200A05422005F3213706623FF339E
:101D4000E05401998148FFF7D5F80600002F00D133
:101D5000AAE052220123FF32A354D218A3545422E2
:101D6000FF32A354D218A35402225E33FF32784FBD
:101D7000FF33E25202330100E2523800FFF746FE21
:101D8000310005003800FFF799FE0390002D00D1C7
:101D900081E0AB6902936F4F31003800FFF736FEE8
:101DA000310005003800FFF789FE002D00D177E0F3
:101DB000AD6922002100230075324D319433FF328A
:101DC000FF31029E5D601E606E46367B08331670E2
:101DD000507002328B42F4D1B32302225B00FF32F7
:101DE000E25201995C48FFF785F8061E69D05B4F07
:101DF00001003800FFF70AFE310005003800FFF748
:101E00005DFE0390002D53D0AB690293514F31001A
:101E10003800FFF7FBFD310005003800FFF74EFEEC
:101E2000002D4AD0AD6922002300210069326833B9
:101E3000FF329031029E5D601E606E46367B083335
:101E40005070167002329942F4D101994448FFF75C
:101E500051F8051E39D101235B4200930198FEF72A
:101E6000B1FD009805B0F0BD01235B42CBE6012334
:101E70005B420093E3E601235B420093FAE6012311
:101E80005B4200930DE701235B4200933CE7012393
:101E90005B42009355E701235B42029500937AE78A
:101EA00001235B42009384E701235B42009393E7A5
:101EB00001235B4202950093A8E701235B42009354
:101EC000B1E701235B420093BFE7264F01003800D2
:101ED000FFF79CFD290006003800FFF7EFFD002EFC
:101EE0001ED0F3685A1E9341220090321370B9231A
:101EF0005B00E0541C4F29003800FFF787FD2900E4
:101F000006003800FFF7DAFD002EA4D0F3685A1E51
:101F100093412200913213707423FF33E0549DE704
:101F200001235B420093E5E705235B42009398E7BA
:101F30004E910010F68F00108C910010C98F001088
:101F4000B28F0010E78F0010E08F0010578F001045
:101F5000618F0010698F0010049000100E90001027
:101F6000149000102C90001020900010DC23F0B58D
:101F70009B0585B00093002302AD0195029018489F
:101F8000184C06686B60306A0768002F07DBA342B5
:101F900003D10120404205B0F0BD0133F4E7A34274
:101FA000F7D06B46C3600123BC3683603368C0182A
:101FB00000230668002E03DAA342EAD00133F8E7D3
:101FC000A342E6D0A02300981B06984201D00098B7
:101FD000E1E7029B002013606B680B60DBE7C04603
:101FE0001C0B0208983A00000122F0B50024184B9F
:101FF0000668196832400B6ABC310D6815495D19D5
:102000001F68002F06DB8C4202D101204042F0BD48
:102010000134F5E78C42F8D0002A00D106000120F7
:10202000DE60986000202C68002C03DA8842ECD037
:102030000130F8E78842E8D0DB68002A00D11B684D
:10204000A022002012069342E1D01800DFE7C0462C
:102050001C0B0208983A00000A4B37B51B780500A4
:10206000013B0024012B05D8074B01A80193FFF782
:10207000BBFF0400002D02D0280004F081FA2000EC
:102080003EBDC0463C1002080101013A07B5034BB2
:1020900001A80193FFF7A8FF0EBDC0460101003261
:1020A00010B5FFF7F3FF002801D106F01DFF10BDAA
:1020B000F8B5060008001700FFF7CEFF1D4B1B68A0
:1020C000002B20DA80241C4B1C4DA4002B511C4BF0
:1020D0001C481B681A009832196812688A1811681F
:1020E00008401949014311601A00903212681B68B8
:1020F0009B18102219681142FCD0012004F040FA0C
:102100002E51FFF7CDFF002F0CD005F063F9C02250
:1021100001230E495200885803438B5005F096F96D
:1021200005F040F9300005F0ABFA002004F0B6FDF0
:10213000FBE7C0460001264000400016000020409A
:102140001C0B0208FCFF00000300FA0500002640FB
:10215000C0220123044910B55200885803438B5014
:1021600005F074F910BDC04600002640F8B5284BB4
:10217000421E05009A4248D8264B1A78002A44D1BC
:102180000124254F1C703B78244E002B07D1FFF70C
:10219000DFFFE122D200B358A343B3503C70C0220A
:1021A000012100245200B3588B43B3501C4B1D80B7
:1021B0001C4BA20099184988A94221D8D35A9D42A4
:1021C00000D21D00184B20001C7005F027F9C22317
:1021D00028005B00F65806F0C3FA144A144B05F0C9
:1021E0003FFC05F05DFB11231C1B103BA340801935
:1021F000C01A80B205F000F9FFF7AAFF0020F8BD71
:1022000001340D2CD5D1013CDCE701204042F6E73A
:102210006F17000024060208250602080000264069
:1022200022060208149300102006020833DFC14F73
:102230001C409F3FC0220120044952008B58834319
:102240008B500022024B1A707047C0460000264097
:1022500024060208C0220120024952008B58834301
:102260008B50704700002640014B18607047C046F5
:102270001C0B0208044B1B681A00BA3212881B6A36
:102280005043C0187047C0461C0B02081D4B9842B3
:102290000FD010D840282FD005D8002830D01028D3
:1022A00028D019481EE0802828D080235B0098425F
:1022B000F7D1144816E0154B984214D008D8A02343
:1022C0001B0698421CD0124B9842EAD1A0200BE08A
:1022D000104B98420AD0104B984209D00F4B9842AD
:1022E000DFD10F487047A420C003FBE70D48F9E792
:1022F0000D48F7E70D48F5E70D48F3E70D48F1E71E
:102300000020EFE706005200FF005200010000F03D
:10231000090000A0040000F0050000F0030000F038
:102320000100520002005200030052000100500060
:10233000020050000500520010B50020FFF79AFF80
:102340000A4B1C682300BC331B68C0180368002BB1
:102350000ADB074B1868FFF799FF012263689A6050
:102360009A68002AFCD110BD0248FCE71C0B020849
:10237000280602080200500070B5C40506000D00D2
:10238000E40D20D100291ED005F0C4F80F4B104AEF
:102390001A605C609E60DD600E4B1B6852331978DA
:1023A00000290BD004F055F8FA21890005F0A2F9B4
:1023B0000100094805F09EF9084BC1188020400033
:1023C00006F08AFD70BD0648FCE7C04628060208F4
:1023D000000100051C0B0208C0EA2101482600008C
:1023E000060052000E4B10B51B689C695B69001B10
:1023F000C0090001C0181F231A40032907D8C900CB
:102400008B408A4004689C432243026010BD04391B
:10241000C9008B408A4044689C4322434260F5E7F0
:102420001C0B0208F8B51F0006AB15001A78060051
:102430000C00FFF7D7FF012211001740A140A74071
:102440003368A4008B433B433360074B1B688133E5
:102450001B78F6180F2319001D40A140A5403268D3
:102460008A432A433260F8BD1C0B0208064B1B68E6
:10247000BC331B68C3181B68002B03DA89B24160A8
:10248000002070470148FCE71C0B020801008A008D
:102490000368002B04DA89B2C260816000207047B3
:1024A0000048FCE701008A00064B1B68BC331B6830
:1024B000C3181B68002B03DAC36800200B60704749
:1024C0000148FCE71C0B020801008A00024B1A6855
:1024D000002A00D1186070473C060208F0B52C2491
:1024E0006043154C1F0024681D0A2018FF24254056
:1024F0002740124C1B0C26680760346A45608360D5
:10250000BA36368877433F1907612F0080376D014F
:102510007F01E71964190A4D47611F043B436419A1
:10252000236000238361059BC2610162002B01D0FF
:102530001B888381F0BDC0463C0602081C0B0208C4
:1025400008100000F0B5836885B002AD2B80154BF4
:1025500002681B68066A1B8F476A9B186B8043687A
:102560000095826AC16A040003930369C068FFF79B
:10257000B5FF00213B000A0000913000FFF7AEFFDD
:10258000216B280003F0B2FF0022AB5E002B06DBBC
:102590001F2213401E3A9A401300034A136005B0ED
:1025A000F0BDC0461C0B020800E100E0F7B52C2589
:1025B000134C6843266869433418256901937118E0
:1025C000002D19D08869002818D12E68002E15DA40
:1025D0006768012426004B689E40B44613689EB28B
:1025E00063461B041E431660EA608C61BC40019B7D
:1025F000A4B24B62AC60FEBD0248FCE70248FAE7B9
:102600003C06020804028A0007028A0073B500260D
:1026100042690400D56801962B0CB34221D01B04FB
:1026200013601368194B00691B68BC331B68C3181F
:102630001B68B34215DA01A9FFF736FFB0420CD18F
:102640000198E26903681E0CDBB29A4205D9226A3E
:102650009B009B58002B00D0984731002069FFF762
:1026600005FFADB2002D09D063691D6000251B6810
:10267000636AAB4205D098476562A56163691B68D0
:1026800073BDA36A002BF8D09847F6E71C0B02082D
:102690002C2310B54343034A1068C018FFF7B6FF58
:1026A00010BDC0463C060208F8B5194B0F001B6868
:1026B0001A0033321278824227D9002925D01F25EB
:1026C0000A68154021D11900BA310C88114E6043B7
:1026D0001C6AD208041929007868346006F01DFAD3
:1026E00029002000FFF7C2FE3A0029003068FFF7FA
:1026F000CFFE041E07D101003068FFF7B7FE0300CC
:102700002000002B00D00448F8BD0448FCE7C04678
:102710001C0B02084006020801018A0003018A001E
:1027200010B5002A0DD1002914D10B4B1A681300E3
:10273000BA331B885843136AC018084B1860080046
:1027400010BD002906D0064B196019005A60FFF72A
:10275000ABFFF5E70348F3E71C0B0208400602084D
:102760000400000803018A00F7B5184F04003B6815
:102770000191DE683368834226D90025A94202D13F
:10278000FDF7ABFE050038680368002B1ADA1F223C
:1027900001232240934064097268A400141922683E
:1027A00013420DD09A43226000240021FFF75EFE01
:1027B000019B002B02D12800FDF793FE2000FEBDF7
:1027C000034CF2E7034CF3E7034CF7E7400602083B
:1027D000020188000301880004018A000A4B1B687B
:1027E000DB681A6882420DD959681F2342091840D4
:1027F0001E3B8340920050581840431E9841034BA3
:10280000C01870470248FCE7400602080001880033
:1028100004018A0070B59621002003F01FFF0021FB
:10282000080002F0F9FF444244412D4B64421C4031
:102830002C4B05000020E41802F06CFF012002F090
:102840004DFF002002F076FE04F064FE264E336851
:102850003F331B78002B03D0012003F04FFB050012
:10286000002D00D0214C33683F331B78012B03D956
:10287000022003F043FB0500002D00D01C4C00217A
:10288000012003F099F9002800D01A4C002002F032
:10289000B9FF051E0ED103F0B7F91223FF3398429A
:1028A00008D10121280002F08FFF002800D00D4C34
:1028B00004F030FE03F00AFA002800D00E4C00218C
:1028C000080003F079F9002800D00C4C0021080022
:1028D00002F07AFF002800D0024C200070BDC046F4
:1028E000F1F0E5FE0F0F1A011C0B02082F0F1A0161
:1028F0002E0F1A014E0F1A013F0F1A014F0F1A0126
:1029000030B5134CC000031908300019002901D05C
:10291000072A06D901220021524219605A6006C0D6
:1029200030BD0C4C2468A5696469491BC9090901BB
:1029300009191960043101601F21032A03D8D2004C
:1029400091405960ECE7043AD20091404160E7E7DA
:10295000200B02081C0B0208F0B5C400454E0029EC
:1029600000D17AE0072A00D977E0002336199D00CC
:10297000DF004D190133F551152BF8D1143B93406D
:102980003D49736009194B603C49032509194B60A7
:102990003B49384F09194B603A4909194B603A498C
:1029A00009194B60394909194B60394909194B60BC
:1029B00038490C1951000E00374963600C68B54066
:1029C0002100803109789200023189080918C90074
:1029D000C9194D600F2521009540813109780231D8
:1029E00089080918C900C9194D6035001035AC4671
:1029F00021006646032582310978B54002318908F5
:102A00000918C900C9194B602100833109782B438B
:102A1000023189080918C900C9194B60FE23012138
:102A20009B0084341A402378012502339B08181830
:102A3000531CC0009940C71901200B00911C88400D
:102A40009540032603431D43D31C9E402E43072578
:102A5000053295402E437E60F0BD00230121180011
:102A600034194942E050E21808335160A82BF9D1DB
:102A7000F2E7C046200B0208280B0208300B0208C0
:102A8000380B0208400B0208480B0208500B0208E2
:102A9000580B0208600B02081C0B0208C14BF0B572
:102AA0001B6887B01A00BA321188186A8A00121897
:102AB000D0680290008805900298408800900298A3
:102AC0008768C06804900598013808280AD804F07F
:102AD00007FE6700270046005E09C000FF00E7020E
:102AE00076008400B04C6A46029B928A85211A8047
:102AF0006A46802012885C605A80049A9F60DA607F
:102B0000A84B49011B6840031A6ABA335050188811
:102B10005158800080180021FFF7A8FC07B0F0BDD5
:102B2000009AA24BD20099184968049C0C4001D02D
:102B300001F030F9481C01D101F02FF900989228DA
:102B400001D901F02DF9D258002A01D101F02BF959
:102B5000136839430B4004990B431360C3E7009A91
:102B6000924BD1005A185268501C01D101F01EF945
:102B70000098922801D901F01CF9C958002901D107
:102B800001F01AF90B68174205D01800784002428C
:102B900001D001F014F913403B430B600024A2E77D
:102BA000009B922B01D901F00DF9DA007F4BD3582D
:102BB000002B01D101F009F91F68002493E7022FCF
:102BC00001D001F005F9049C794B143C604244416A
:102BD000784864420440E41885E7002F01D101F0F1
:102BE000FAF8049B052B01D901F0F8F8724B1B6829
:102BF0001A78002A25D09A683A60DA687A606F4AB3
:102C0000BA605A78002A1ED01A6AFA609A6A3A6143
:102C10006B4A7A615A6ABA61DA6AFA61694A3A6257
:102C20009C78002C12D01A6B00247A629A6BBA62DC
:102C3000654AFA625A6BDB6B3A637B63634BBB6337
:102C400051E73A60DDE7FA60BA61E9E77C623C632C
:102C500049E7002F01D101F0C4F85D4CF0223900A2
:102C6000200005F051FF03F0C1FC002810D0FFF751
:102C7000D1FD200001F062FC564B04001A78002AB6
:102C800000D030E7002800D02DE701321A702AE783
:102C9000504B1B78002BECD1E378002BE7D0E37985
:102CA000002BE4D0230055331D7803F08DFC002861
:102CB000DDD102F053FE002805D102F043FE2800CA
:102CC00002F06CFED3E702F053FE0028F5D0CEE709
:102CD000009B672B00D18BE018D82F2B00D1C6E1C9
:102CE00007D82C2B00D192E02D2B00D1EBE02E4CFD
:102CF000F9E6009B322B00D1B2E1662B34D0302BA9
:102D0000F5D1380002F010FE0024ECE6009B6E2B9B
:102D100000D13BE108D86C2B00D133E16D2BE6D11B
:102D200004F06CF90024DEE6009B702B00D13FE13B
:102D300000D233E1712BDAD13B78002B01D001F0C6
:102D40005CF8254A0425101DC06F01268446397A97
:102D5000634500D065E1002004F0BCF8441EA041AA
:102D600044421E480440BEE61D4B5A68002F10D155
:102D70001C4911401B220A435A6059681A4A1143E0
:102D8000596059681143596059680A435A600024D0
:102D9000A9E6E821154889010240114359605A68A3
:102DA0000240F3E71C0B0208FF0F1A01200B020878
:102DB000F90F1A0107F0E5FE3C0702082000890020
:102DC00035008B004A008D005F008F007400910079
:102DD0004806020838070208B80F0208FE0F1A0159
:102DE000000026400000FC0F003A0280FF00FC0FAC
:102DF00003234B439B181A68002AFCDA8022002424
:102E0000D96852050A43DA605C605B686BE60024AF
:102E1000B125994BED001C80984B1C80984B1B688A
:102E20003F331B789C4201D900245CE6002C1ED164
:102E300002F03AFF002818D0200002F0E5FE022838
:102E400036D1002C17D18F4A8F4853591840802310
:102E50009B05184350510021200002F0ADFE0123D4
:102E6000A340854A11880B4313800134D6E7200024
:102E700003F030F8DEE70326824AA30083499B185B
:102E80005A58120F324204D05A58120F3240012AB7
:102E900006D10122A2401000784E328810433080C3
:102EA0005A58794810408022920510435850D2E772
:102EB000002CDAD1734A744953590B40802189059B
:102EC0000B435351D1E76C4B1B88002B0FD102F001
:102ED000EBFE041E00D106E66D4C40E0013D02F021
:102EE00081FD022805D0002DF8D16A4CFBE5684D24
:102EF000F5E7002DF9D00026664C09E0013D02F00F
:102F0000DBFE002801D000F0B1FF002DF6D1013624
:102F10005B4B1B683F331B789E4200D9E3E50123DE
:102F2000B3409BB20193544B019A1B881342EED0DD
:102F30000221300002F040FE002EE0D0300002F00E
:102F4000D3FF002801D000F0A0FF002DDFD0013D0D
:102F5000F4E7C020800501439950D8E7013C02F016
:102F6000ABFE002802D1002CF8D1BEE7002CBCD06B
:102F7000B122C0234349D20088589B0503438B509C
:102F80000024B0E503F0E8FF0024ACE53800431E60
:102F90009841C0B204F042F80024A4E5387807282C
:102FA00001D900F021FF797804F008F800249AE5AF
:102FB0003B78002B01D000F01AFF7968CAB20F2AC3
:102FC00001D900F017FF0125334C8D40A446201D88
:102FD0003A7AC66FB34208D1002003F041FF441E85
:102FE000A04144422D4804407DE5D8006044046877
:102FF0002C4214D0022A08D0032A0BD0002AEBD18D
:103000004368DB07E8D4254C6DE543681342E3D100
:10301000224C68E543685B07DED4204C63E501334E
:10302000D8E702290BD0032910D0002916D11A4C59
:10303000D80000194068304210D1184C53E5D80030
:1030400080184068084209D1144C4CE5124CD80055
:1030500000194068284201D100F0D2FE013377E622
:103060003A893888796803F039F804003BE538007C
:1030700003F0EAF8040036E54406020846060208B2
:103080001C0B020800002640FFFFFFCFFC050000DC
:1030900040420F00FA0F1A01B80F0208FE0F1A0182
:1030A000B44A1278002A01D100F0ADFE0098083829
:1030B000632801D900F0AAFE04F012FBD100DD0064
:1030C000F100130121012F0140014E01A80660010A
:1030D0006E017C019401D4011402BC0259037203F5
:1030E0008B03A403B803CC03DA03E803FC03100446
:1030F0001E042C0445045404620470059905C3059C
:10310000F4054906A806A8066206A806A806A806A9
:10311000A806A806A806A806A806A806A806A8063F
:10312000A806A806A806A806A806A806A806A8062F
:10313000A806A806A806A806A806A806A806A8061F
:10314000A806A806A806A806A806A806A806A8060F
:10315000A806A806A806A806A806A806A806A806FF
:10316000A806A806A806A806A806A806A806A806EF
:10317000A806A806A806A806A806A8066400840053
:10318000A400BA0001227C4D6B78E91C01932B79D5
:103190002E780393FBB22A706A70CB77002B0ED186
:1031A0002A71280001F0CAF9041E00D19BE46B4685
:1031B0001B792E706B706B461B7B2B7193E4002385
:1031C0002B71EEE7012100226B4D6B78281D0193D6
:1031D0002B792E780393FBB229706A70C377022B88
:1031E0000ED12971280001F0A9F9041E00D17AE45A
:1031F0006B461B792E706B706B461B7B2B7172E4D8
:103200002A71EFE75C4D2B786E1D0193F37F280048
:10321000039301232B70F37701F090F9041E00D182
:1032200061E46B461B792B706B461B7BF3775AE48A
:10323000514D2B786E1D0193F37F280003930123DA
:103240002B700023F37701F079F9041E00D14AE4D2
:103250006B461B792B706B461B7BF37743E4002393
:10326000454D28006E796B7101F068F9041E00D19C
:1032700039E46E7137E4404D6B7A280001930023E6
:10328000AE6E6B72AB6601F059F9041E01D1FFF707
:103290002AFC6B461B79AE666B72FFF724FC002F8D
:1032A00001D100F0B6FD3F331B78BB4201D200F0E4
:1032B000B3FD0023304D012F0DD1AE7AAB72280043
:1032C00001F03CF9041E01D1FFF70DFC012F05D1DF
:1032D000AE72FFF708FCEE7AEB72F0E7EE72FFF7E2
:1032E00002FC0123244D2800EE79EB7101F026F950
:1032F000041E01D1FFF7F7FBEE71FFF7F4FB00238B
:103300001D4D2800EE79EB7101F018F9041E01D172
:10331000FFF7E9FBEE71FFF7E6FB3B0016485A1E8C
:103320009341050055352E782B7001F007F9041EE6
:1033300001D1FFF7D8FB2E70FFF7D5FB01230E4814
:10334000451CEE7FEB7701F0F9F8041E01D1FFF781
:10335000CAFBEE77FFF7C7FB00230748451CEE7F4B
:10336000EB7701F0EBF8041E01D1FFF7BCFBEE7721
:10337000FFF7B9FB38070208480602080123C94DC8
:1033800028002E7A2B7201F0D9F8041E01D1FFF724
:10339000AAFB2E72FFF7A7FB0023C24D28002E7A4E
:1033A0002B7201F0CBF8041E01D1FFF79CFB2E72AB
:1033B000FFF799FBBB48FBB20500013B5A42534162
:1033C000002456352E782B70037AA34201D1FFF7E3
:1033D0008AFB01F0B3F8041E01D1FFF784FB2E70C5
:1033E000FFF781FB052F01D900F019FD3800AD4D25
:1033F000012304F06BF90316191C1F226E7D6B75F7
:10340000280001F09BF8041E01D1FFF76CFB052F8B
:1034100001D9FFF768FB380004F058F91215181BA2
:103420001E21AE7DAB75EBE7EE7DEB75E8E72E7EFA
:103430002B76E5E76E7E6B76E2E7AE7EAB76DFE776
:103440006E75FFF750FBAE75FFF74DFBEE75FFF79E
:103450004AFB2E76FFF747FB6E76FFF744FBAE760E
:10346000FFF741FB052F01D900F0DCFC38000023F9
:103470008C4D04F02BF90316191C1F226E7D6B7501
:10348000280001F05BF8041E01D1FFF72CFB052F8B
:1034900001D9FFF728FB380004F018F91215181BA2
:1034A0001E21AE7DAB75EBE7EE7DEB75E8E72E7E7A
:1034B0002B76E5E76E7E6B76E2E7AE7EAB76DFE7F6
:1034C0006E75FFF710FBAE75FFF70DFBEE75FFF79E
:1034D0000AFB2E76FFF707FB6E76FFF704FBAE764E
:1034E000FFF701FB3868052801D900F09EFC6D4C00
:1034F0003B79220004F0EAF8032E3C4A5866260085
:10350000A532A83615781370326818000192627DD2
:10351000A634039202F060FF23786349D84004F098
:10352000E9F8039B30601C1E01D1FFF7DCFA5D4E09
:10353000300001F003F8041E01D1FFF7D4FA386817
:10354000052801D9FFF7CFFA330004F0BFF849503E
:10355000575E656C2600AC32B03615781370326851
:1035600018000192A27DAD34039202F035FFD3E73B
:103570002600B432B83615781370326818000192FC
:10358000E27DB534039202F027FFC5E72600BC3286
:10359000C03615781370326818000192227EBD344F
:1035A000039202F019FFB7E72600C432C836157837
:1035B0001370326818000192627EC534039202F0E3
:1035C0000BFFA9E72600CC32D0361578137032688D
:1035D00018000192A27ECD34039202F0FDFE9BE71B
:1035E000A5331D70019BA8363360FFF77CFAAC331E
:1035F0001D70019BB0363360FFF775FAB4331D7050
:10360000019BB8363360FFF76EFABC331D70019B27
:10361000C0363360FFF767FAC4331D70019BC836AC
:103620003360FFF760FACC331D70019BD0363360F6
:10363000FFF759FA3868052801D900F0F9FB194B52
:103640003A791C0004F042F803323D48535E1D00F5
:10365000A634A835267822702A6801925A7DA533AF
:103660000392187802F0B8FE23780F49D84004F08E
:1036700041F8039B28601C1E01D1FFF734FA094D65
:10368000280000F05BFF041E01D1FFF72CFA386818
:10369000052801D9FFF727FA2B0004F017F83E455B
:1036A0004C535A614806020840420F001D00AD34D9
:1036B000B035267822702A6801929A7DAC33039245
:1036C000CFE71D00B534B835267822702A680192FC
:1036D000DA7DB4330392C4E71D00BD34C0352678CB
:1036E00022702A6801921A7EBC330392B9E71D004A
:1036F000C534C835267822702A6801925A7EC433B0
:103700000392AEE71D00CD34D035267822702A68AA
:1037100001929A7ECC330392A3E7A6331E70019BDD
:10372000A8352B60FFF7DFF9AD331E70019BB03574
:103730002B60FFF7D8F9B5331E70019BB8352B60AD
:10374000FFF7D1F9BD331E70019BC0352B60FFF729
:10375000CAF9C5331E70019BC8352B60FFF7C3F94A
:10376000CD331E70019BD0352B60FFF7BCF9D84DCF
:103770002E00AB7CA23601933378280003930123FB
:103780003770AB7400F0DAFE041E01D1FFF7ABF91D
:103790006B461B7B33706B461B79AB74FFF7A3F949
:1037A000CB4D2E00A336337828000193EB7C377085
:1037B00003930123EB7400F0C1FE041E01D1FFF757
:1037C00092F96B461B7933706B461B7BEB74FFF7EA
:1037D0008AF9BF4D2E002B7FD6360193337828000F
:1037E0000393012337702B7700F0A8FE041E01D14C
:1037F000FFF779F96B461B7B33706B461B792B7790
:10380000FFF771F9B24800240500D8352E882F80C3
:10381000837FA34201D1FFF766F900F08FFE041EFB
:1038200001D1FFF760F92E80FFF75DF9A848002469
:103830000500DA352E782F70837FA34201D1FFF780
:1038400052F900F07BFE041E01D1FFF74CF92E70F7
:10385000FFF749F901239E4D2800AE7FAB7700F0BA
:103860006DFE041E01D1FFF73EF9AE77FFF73BF97D
:103870000023974D2800AE7FAB7700F05FFE041E5B
:1038800001D1FFF730F9AE77FFF72DF9904800240A
:103890000500D4352E782F70C37EA34201D1FFF7E7
:1038A00022F900F04BFE041E01D1FFF71CF92E7027
:1038B000FFF719F9864800240500D5352E782F70BA
:1038C000C37EA34201D1FFF70EF900F037FE041EBC
:1038D00001D1FFF708F92E70FFF705F901237C4DA0
:1038E0002800EE7EEB7600F029FE041E01D1FFF7E2
:1038F000FAF8EE76FFF7F7F80023754D2800EE7E14
:10390000EB7600F01BFE041E01D1FFF7ECF8EE761B
:10391000FFF7E9F86E4D2E006B7FD73601933378B1
:1039200028000393012337706B7700F007FE041E15
:1039300001D1FFF7D8F86B461B7B33706B461B79C0
:103940006B77FFF7D0F8624B5C79002C00D072E205
:103950003A689A627A68DA62BA681A63FA685A63ED
:10396000FFF7C1F801235A4D28006E796B7100F002
:10397000E5FD041E01D1FFF7B6F86E71FFF7B3F84D
:103980003868052800D959E2514B03F09FFE031B0C
:10399000222930371A00012196321E7B15881973AF
:1039A000B9881800118000F0C9FD041E38682CD1B8
:1039B000052801D9FFF797F8454D03F087FE4D6ABA
:1039C0008DADC3D91A00012198325E7B15885973D9
:1039D000E6E71A0001219A329E7B15889973DFE78A
:1039E0001A0001219C32DE7B1588D973D8E71A00B2
:1039F00001219E321E7C15881974D1E71A0001211D
:103A0000A0325E7C15885974CAE7052800D918E2EF
:103A10002F4B03F05BFE03080D12171C1E73963329
:103A20001D80FFF760F85E7398331D80FFF75BF829
:103A30009E739A331D80FFF756F8DE739C331D800A
:103A4000FFF751F81E749E331D80FFF74CF85E742B
:103A5000A0331D80FFF747F86B7A002B03D02800B6
:103A600000F0B8FCA8662B00A5331878002801D018
:103A7000FFF739F802F0B0FC2B00A6331B7815498C
:103A8000A83599404B08181803F034FE2860FFF75A
:103A90002AF8AB7A002B05D02900012000F0B8FCF1
:103AA0002B1DD8672B00A5331878012801D0FFF70C
:103AB0001AF802F091FC2B00A6331B780549A835B3
:103AC00099404B08181803F015FE2860FFF70BF813
:103AD0004806020840420F00EB7A002B06D029006E
:103AE000022000F095FC2B008C3318602B00A533CE
:103AF0001878022801D0FEF7F6FF02F06DFC2B00CB
:103B0000A6331B78EB49A83599404B08181803F0E9
:103B1000F1FD2860FEF7E7FF2B00A5331878032896
:103B200001D0FEF7E0FF02F057FC2B00A6331B7814
:103B3000E049A83599404B08181803F0DBFD2860D0
:103B4000FEF7D1FF2B00A5331878042801D0FEF72B
:103B5000CAFF02F041FC2B00A6331B78D549A835DB
:103B600099404B08181803F0C5FD2860FEF7BBFF0D
:103B70002B00A5331878052801D0FEF7B4FF02F01A
:103B80002BFC2B00A6331B78CA49A83599404B085B
:103B9000181803F0AFFD2860FEF7A5FF3A68C64B82
:103BA0000024DA661A00B988703211801A00B979D7
:103BB000723211701A00F979733211701A00398952
:103BC000743211801A00B97A763211701A00F97ABB
:103BD000773211701A00B989783211801A00B97BD6
:103BE0007A3211703A8A7C331A80FEF77CFFB24D2C
:103BF0006E7A002E00D027E1012328006B7200F0BE
:103C0000E9FBA866280000F099FC041E03D0AE660C
:103C10006E72FEF768FF2B00A5331B78002B01D0D6
:103C2000FEF761FF02F0D8FB2B00A6331B78A149F9
:103C3000A83599404B08181803F05CFD2860FEF782
:103C400052FF3A68002A00D101E13F331B789A42C3
:103C500000D9FFE07B681E785D789C78D878197968
:103C6000954B012A10D11A00843216701A00853241
:103C700015701A00863214701A008732107088335B
:103C800019700024FEF72FFF1A00903216701A00E8
:103C9000913215701A00923214701A00933210701B
:103CA0009433EDE7012F06D1834A927A002A09D096
:103CB000824CFEF718FF022F04D17F4AD27A002AE5
:103CC00000D0CAE03F331B78BB4200D2C8E0002FCF
:103CD00000D1C8E0784D2900012F12D1380000F042
:103CE00097FB2B1DD867AF72280000F027FC041E3D
:103CF00016D00023012F0DD12A1DD367AB72FEF71A
:103D0000F2FE022000F084FB2B008C3318600123AC
:103D1000EB72E9E72A008C321360EB72FEF7E3FEE8
:103D20002B00A5331878431E012B01D9FEF7DBFECB
:103D300002F052FB2B00A6331B785E49A835994050
:103D40004B08181803F0D6FC2860FEF7CCFE5A4D3D
:103D50002E002B7DA4360193337828000393012392
:103D600037702B7500F0EAFB041E01D1FEF7BBFE95
:103D70006B461B7B33706B461B792B75FEF7B3FECE
:103D800001224D4B00249A719F64FEF7ACFE002483
:103D9000FEF7A9FE4A4CFEF7A6FE494CFEF7A3FE2D
:103DA000474CFEF7A0FE464CFEF79DFE444CFEF746
:103DB0009AFE434CFEF797FE414CFEF794FE404CB2
:103DC000FEF791FE3E4CFEF78EFE3D4CFEF78BFE5D
:103DD0003C4CFEF788FE3C4CFEF785FE3A4CFEF765
:103DE00082FE394CFEF77FFE374CFEF77CFE364CE8
:103DF000FEF779FE344CFEF776FE334CFEF773FE89
:103E0000314CFEF770FE2E4CFEF76DFE2C4CFEF78B
:103E10006AFE2E4CFEF767FE2C4CFEF764FE284C23
:103E2000FEF761FE264CFEF75EFE254CFEF75BFEBC
:103E3000234CFEF758FE264CFEF755FE204CFEF7AD
:103E400052FE1F4CFEF74FFE224CFEF74CFE1F4C5D
:103E5000FEF749FE1D4CFEF746FE184CFEF743FEEA
:103E6000164CFEF740FE154CFEF73DFE002D01D12D
:103E7000FFF74DF8B122C0201749D2008B588005BA
:103E800003438B500024FFF742F8002D01D1FFF7C8
:103E90003EF8124B10491C88019B114A1C40B3008C
:103EA0005B189958002C01D1FFF753F80D480140D9
:103EB0009950E7E740420F00480602082D0F1A010B
:103EC000FF0F1A01F90F1A01FE0F1A01BD0F1A0197
:103ED000590F1A013E0F1A0100002640460602083B
:103EE000FC050000FFFFFFCF73B593220020354B88
:103EF000D100354C591A0919013A0860002AF7D146
:103F000032491960324999603249196132499961DF
:103F100032491962324999623249196332499963C7
:103F20003249196432490968080040300078042891
:103F300000D9304A9A640022052800D92E4A1A6511
:103F40004A6801241000083098652C4864421866BD
:103F50002B48DC6758662B4898662B4818672B4817
:103F600012189A6700221500981806000832803649
:103F7000843035600460802AF6D18522244B5201BA
:103F80000433DD670B6A68469B18802252039A60EF
:103F900004236A4613800B8F1E4905335380019515
:103FA00002F0A4FA002800D001BE6B4600229B5EFE
:103FB000002B06DB1F2213401E3A9A401300164ABC
:103FC000136073BD200B02089C040000080026400B
:103FD0000007264004072640080726401007264011
:103FE00084032640880326408C0326409003264005
:103FF0001C0B020894032640980326400400264028
:1040000000FF03F0480526404405264060F000000C
:10401000B80F02089D2A001000E100E010B5244C02
:104020002368002B43D01A78002A0AD0DA689968EE
:104030002020FEF791FC23688920DA689968FEF752
:104040005FFC23685A78002A16D09A6A196A3520CC
:10405000FEF782FC23684A20DA6A596AFEF77CFC84
:1040600023688B209A6A196AFEF74AFC23688D2020
:10407000DA6A596AFEF744FC23689A78002A16D057
:104080009A6B196B5F20FEF767FC23687420DA6B6C
:10409000596BFEF761FC23688F209A6B196BFEF752
:1040A0002FFC23689120DA6B596BFEF729FC10BDB9
:1040B0003C070208022817D006D8002827D001287C
:1040C00010D0022040420CE01223FF3398420DD062
:1040D0001423FF3398420CD0033B9842F1D1FA20CD
:1040E000C0017047886CFCE7886AFAE7802000020C
:1040F000F7E7084B1B68413318780138431E984195
:10410000054B4042184080231B02C018E9E70348D2
:10411000E7E7C0461C0B0208FE7FFFFF00127A0093
:1041200002235B4210B51360314B14001B681A0068
:104130003E321278824258D9052856D803F0C6FA82
:1041400003192E43494F0B7B002B4ED04B7A002B8B
:1041500008D00B007A331B78022B03D08B6E2360C0
:10416000002010BD0B0096331888FFF7A3FF2060D6
:10417000F6E74A7B002A38D03F331B78002B0AD061
:104180008B7A002B07D00B0088331B78022B02D0D0
:104190000431CB6FE3E70B009833E5E78A7B002A15
:1041A00023D03F331B78012B0AD9CB7A002B07D0C1
:1041B0000B0094331B78022B02D08C310B68CEE7B6
:1041C0000B009A33D0E7CB7B002B0ED00B009C3337
:1041D000CAE70B7C002B08D00B009E33C4E74B7C56
:1041E000002B02D00B00A033BEE70248B9E7C0465F
:1041F0001C0B0208FE0F1A01194B00B513600023B7
:10420000052809D803F062FA030A13191F250023B1
:10421000087B9631984206D1180000BD0023487BE8
:1042200098319842F8D00B8800211160F4E7002300
:10423000887B9A319842F6D1EEE70023C87B9C3107
:104240009842F0D1E8E70023087C9E319842EAD1F9
:10425000E2E70023487C9842DED0A031E3E7C04685
:10426000FE0F1A01032819D004D801280FD028D92D
:1042700048790DE01223FF33984214D01423FF3302
:10428000984212D0033B98420BD00F4805E0887942
:10429000434258410C4B4042184070470231C87F9E
:1042A000F6E7C879F4E7087AF2E70131CB7F002B13
:1042B000EBD0064B1B68413318780138431E9841F8
:1042C000E8E70020E9E7C046FE0F1A011C0B0208D0
:1042D00010B51B4B1B683E331B7883422DD9052834
:1042E0002BD803F0F3F9030C12181E240B7B002BC0
:1042F00023D00B0096331888FFF7B4FF10BD4B7B1B
:10430000002B1AD00B009833F5E78B7B002B14D0D1
:104310000B009A33EFE7CB7B002B0ED00B009C33C6
:10432000E9E70B7C002B08D00B009E33E3E74B7CC6
:10433000002B02D00B00A033DDE70248DEE7C046C9
:104340001C0B0208FE0F1A010300A8331B6810B5EE
:104350000400002B02D00848584310BD0300A533C9
:10436000187802F039F802000120A634237898402A
:1043700040088018D840F0E740420F0010B5040014
:1043800001F0E4FD002801D0044810BD04492000DC
:1043900001F052FE0028F8D0F6E7C046FD0F1A01E2
:1043A0001027000070B50400150001F00DFA002878
:1043B00001D0074870BD2900200001F02DFA002827
:1043C000F7D1200001F0B8F90028F3D0F1E7C0469A
:1043D000FD0F1A01030010B5040096331888210060
:1043E000FFF768FE030000209A1C0FD022007032F5
:1043F000118881420AD0E06E7334584303F07AF991
:1044000021784B1E9941013103F074F910BD000071
:1044100070B500250C00A84221D01B4B1B683F3310
:104420001B7883421BD301281BD10B0098331888BB
:10443000FFF740FE23002200843385321B78117879
:1044400086342578821C1BD000291BD0002D06D075
:10445000584303F04FF9290003F04CF905002800F8
:1044600070BD0228FBD10B009A331888FFF722FE9B
:1044700023002200903391321B7811789234E0E7C8
:104480000025ECE70D00EAE71C0B0208F8B5040074
:104490000F00012932D10300817A427B0430983326
:1044A000C66F83301B8805780020814225D0824268
:1044B00031D018002100FFF7FDFD184BC018184B34
:1044C000984228D86B1E9D41164B6D421D40164BDD
:1044D000ED182379002B1AD0AE421CD3134B9E4209
:1044E00019D821003800FFF793FF301A4642704177
:1044F0000F4E40420F4B3040C018F8BD0300C17A48
:10450000827B9A338C301B880668C579CCE7AE4233
:1045100001D3094BE3E70748EFE7C04600F7C2FFC6
:1045200000879303C863E3FF20BCBE0080F0FA025B
:1045300002F0E5FEFE0F1A0180D1F008F0B504008C
:104540008BB0002801D100F092FF0700404EA53744
:10455000336838783E331B78984207D300203D4BB0
:104560000593059D002D06D03B4D6EE005AA210068
:10457000FFF742FEF5E7022820D01223FF339842CE
:1045800045D0012800D071E0344B1B68002B13D0BC
:104590001A78002A10D05A68A16C8A420CD19A6805
:1045A000E16C8A4208D1DB68226D934204D123007A
:1045B00054331B78102B59D0294D46E0274B1B68EC
:1045C000002B22D05A78002A1FD01A69A16A8A4289
:1045D0001BD15A69E16A8A4217D19A69216B8A42D2
:1045E00013D1DA69616B8A420FD11A6AA16B8A42D0
:1045F0000BD15A6AE16B8A4207D19A6A216C8A42CE
:1046000003D1DB6A626C934230D0164D1DE0134B30
:104610001B68002B18D09A78002A15D02200563239
:10462000D978127891420FD11A6BA16D8A420BD1C1
:104630005A6BE16D8A4207D19A6B216E8A4203D18F
:10464000DB6B626E934211D0074D28000BB0F0BDBA
:104650001C0B0208FE0F1A019F0F1A013C070208EB
:10466000570F1A01580F1A01560F1A0101F0BAF923
:1046700002281DD06379002B1AD0D74AA36A9B1851
:10468000D64A934201D900F0F5FEE36A013B632B61
:1046900001D900F0EFFE236BD14A013B934201D9CF
:1046A00000F0E8FE636B013B934201D900F0E2FEAB
:1046B000A379002B0ED02279A36C002A00D120E22E
:1046C000C84A934201D900F0D8FEE36C002B01D117
:1046D00000F0D3FE237B002B0ED033683E331B78D3
:1046E000002B09D02300963318882100FFF7BAFD6C
:1046F000002801D000F0C4FE637B002B0ED033688D
:104700003E331B78012B09D92300983318882100E8
:10471000FFF7A8FD002801D000F0B5FEA37B002B19
:104720000ED033683E331B78022B09D923009A330D
:1047300018882100FFF796FD002801D000F0A6FEA2
:10474000E37B002B0ED033683E331B78032B09D953
:1047500023009C3318882100FFF784FD002801D036
:1047600000F097FE237C002B0ED033683E331B787D
:10477000042B09D923009E3318882100FFF772FD0E
:10478000002801D000F088FE637C002B0ED0336837
:104790003E331B78052B09D92300A033188821004C
:1047A000FFF760FD002801D000F079FE01F07CFAEF
:1047B00000285DD1637A002B5AD0237B002B01D1D6
:1047C00000F070FE2300963318882100FFF772FC7A
:1047D000854BC018854B984201D900F063FE844A8E
:1047E000A36E9B182279002A00D18CE1814A934262
:1047F00001D900F057FEE36E7F4A013B934201D995
:1048000000F050FE230070331B887C4A013B9BB2B2
:10481000934201D900F046FE230072331B78042B2B
:1048200001D900F03FFE23007433754A1B88934280
:1048300001D900F037FE230076331B780F2B01D906
:1048400000F030FE230077331B780F2B01D900F0E6
:1048500029FE230078336B491B888B4201D900F075
:1048600021FE23007C331B88934201D900F01AFEFD
:1048700033683F331B78002B13D0A37A002B10D062
:10488000012001F027FB00280BD133683F331B7850
:10489000002B05D001212000FFF7F8FD002800D0F3
:1048A000594D33683F331B78012B00D83BE1E37A45
:1048B000002B00D137E1002D00D0C6E6022001F028
:1048C00009FB002800D120E1237F002B00D02EE13E
:1048D000637D002B00D147E63368029340331B7899
:1048E000002B00D140E63D7821002800FFF7F0FCC6
:1048F000002800D038E6029B3E331B789D4200D250
:1049000032E1424B0493049B002B00D02CE605AA15
:1049100038782100FFF704FC3D4B059A0500049010
:104920009A4200D820E6002800D01DE62300A833D4
:104930001B68002B00D117E62200A6321178354AF9
:10494000354F53430292BB4200D90DE6032900D9EB
:104950000AE6A37D002B1DD0336840331B78012B62
:1049600018D92300AC3318782100FFF7B1FC0028D8
:1049700001D000F06EFC2300AD331A7803331B68BE
:1049800002994B43BB4201D900F063FC032A01D9D1
:1049900000F05FFCE37D002B40D0336840331B7890
:1049A000022B3BD92300B43318782100FFF790FC89
:1049B000002801D000F077FC2300B5331A780333C8
:1049C0001B6802994B43BB4201D900F06CFC032ADF
:1049D00001D900F068FC21E000DC0BFFC0EA2101F6
:1049E000E703000080F0FA0218FCFFFF18DDF50570
:1049F00000CA91FE80BA8C01FEFF0300FE1F00007A
:104A0000FF010000FF1F0000BF0F1A01FE0F1A0177
:104A10003F0D030040420F0080D1F008237E002BA1
:104A20001DD0336840331B78032B18D92300BC33C7
:104A300018782100FFF74CFC002801D000F02BFC77
:104A40002300BD331A7803331B6802994B43BB42E2
:104A500001D900F020FC032A01D900F01CFC637E80
:104A6000002B1DD0336840331B78042B18D923004A
:104A7000C43318782100FFF72BFC002801D000F088
:104A800027FC2300C5331A7803331B6802994B4374
:104A9000BB4201D900F01CFC032A01D900F018FC2C
:104AA000A37E002B1DD0336840331B78052B18D90B
:104AB0002300CC3318782100FFF70AFC002801D02E
:104AC00000F047FC2300CD331A7803331B680299AA
:104AD0005943B94201D900F03CFC032A01D900F046
:104AE00038FCE37E002B52D1637F002B6FD1A37C77
:104AF000002B00D091E0E37C002B00D0A0E09B4D88
:104B0000A3E59B4ADDE59B4A71E633683F331B789A
:104B1000012B06D902212000FFF7B8FC002800D1A4
:104B2000D2E6954D91E5002D00D1CDE68DE523002F
:104B3000D6331B78012B0AD0002B03D0032B08D0CF
:104B40008E4D82E5E379002B00D0C1E6F8E7237AA9
:104B5000F9E7631CDB7F002BF2D0336841331B780D
:104B6000012B00D1B4E6EBE704AA21002800FFF7EF
:104B700043FB88235B00984200D1F5E41423FF3304
:104B8000984200D1F0E4032800D0BCE6ECE4230016
:104B9000D4331E7821003000FFF79AFB002814D18F
:104BA0002300D53302931B78042B0ED805AA2100CD
:104BB0003000FFF7B5FA002807D1029B059A1B7851
:104BC000DA4013006E4A93428ED96E4D3DE52300C4
:104BD000D7331B78002B03D0012B05D06A4D34E569
:104BE000237A002B83D1F9E7237F002BF6D0230013
:104BF000D6331B78012BF3D0002B0CD0032BEDD137
:104C0000631CDB7F002BE9D0604B1B6841331B78B2
:104C1000012BE3D16BE7E379E3E7637D002B01D15F
:104C20005B4D12E52000FFF78FFB2300A2331978BC
:104C3000013102F05FFD524B984200D85BE7EFE78D
:104C4000637D002B00D15AE72000FFF77DFBB842BF
:104C500000D954E72300A33302931978013102F0FD
:104C600049FD2379002B0BD04A4B984200D946E7E7
:104C7000A37F002B06D1237D002B39D1464DE4E4E0
:104C80003B4BF2E723000222D8331B88FF329342CA
:104C900004D022D8002B28D0012B24D1617D0029FB
:104CA00021D00226934208D03C4AB619934204D040
:104CB0003B4A0436934200D0073E2000FFF744FBF6
:104CC0002300DA331978013102F014FD310002F0CB
:104CD00011FD2B4B9842CED905E030498B42DDD0F7
:104CE0002F498B42DAD02F4DAFE401262E48E7E75B
:104CF000E37C002BC2D02000FFF726FBB84200D98E
:104D0000FDE62700E31C0393029BA4371978261DB8
:104D1000013102F0EFFC3978013102F0EBFC144B69
:104D20009842ABD89621002001F098FC2378002B04
:104D300049D06378002B10D0E31CD87F012806D916
:104D4000631DDB7F002B33D102F0D2F932E002F099
:104D500029FA0028F4D0154D77E4F07F022801D01D
:104D60000528EDD102F07CFAF3E7C0468C0F1A015A
:104D700000E1F50500AB8704BE0F1A01AF0F1A0161
:104D80000084D7178F0F1A018E0F1A011C0B02080F
:104D90008D0F1A0140787D018B0F1A01010200006E
:104DA00001030000890F1A0100127A006F0F1A0127
:104DB00002F070F90028CED102F0E6FAA378002BB9
:104DC00074D002F0BFFABC4B1B6841331B78012B37
:104DD00009D100F093FD631CDB7F002869D0002B14
:104DE00001D100F095FD0822B44B1E68237A1640CD
:104DF00066D0002B04D17B2001F0DCFB00F050FDDD
:104E0000237F002B0ED02300D6331E7800F05CFCED
:104E1000864207D002F0D2FA002800D045E33000E5
:104E200000F044FC00F0DEFD6379022870D1002B15
:104E300001D100F0CBFDA379002B0ED0E06C00284F
:104E400008D0230054331B7808220093216D0023DF
:104E5000FDF7E8FAA06C00F0AFFDA37C002B04D0B6
:104E60002300A233187800F055FCE37C002B03D01C
:104E7000029B187800F032FC237D002B02D038789A
:104E800000F058FB2600122796363388FF37BB42C6
:104E90007CD12300A5331978002977D1012000F0B7
:104EA0008BFE00285ED0864DFFF7CFFB02F05AFA4A
:104EB00089E7002B97D002F02DFB00F009FD92E767
:104EC000002B9DD002F026FBA06D00280FD0E36DD3
:104ED000002B0CD033003200216E0096FDF7A2FAB1
:104EE000009633003200616EE06DFDF79BFA2300FF
:104EF00056331878002800D0012000F0D9FC714802
:104F000000F0B0FC002800D17AE76F4DFFF79DFB61
:104F1000002B90D002F0FEFAA06B002810D0E36BBB
:104F2000002B0DD00026216C330032000096FDF7D7
:104F300079FA009633003200616CE06BFDF772FA8B
:104F4000636B226BE16AA06A00F05AFD002802D070
:104F50005E4DFFF77AFB5E4800F0F0FD002800D1BF
:104F600069E7F5E7012100F02FFC00280BD1237B36
:104F7000002B14D03188002000F01EFE00280ED037
:104F8000544DFFF762FB544DFFF75FFB230098334E
:104F90001988012000F010FE0028E8D083E7A37BE9
:104FA000002B0AD023009A331988022000F004FE57
:104FB000002802D0494DFFF748FBE37B002B3ED190
:104FC000237C002B4CD1637C002B5AD100F06CFE6B
:104FD000637A002866D1002B00D18BE002F09AFAA8
:104FE000E36E05A80593230070331B88838023009C
:104FF00072331B788371230073331B78C3712300D2
:1050000074331B880381230076331B78837223005B
:1050100077331B78C372230078331B888381230086
:105020007A331B78837323007C331B88038200F060
:105030006BFE00283CD12A4800F0F0FE36E01E4B03
:105040001B683E331B78032BBAD923009C33198885
:10505000032000F0B1FD0028B2D0224DFFF7F5FA91
:10506000154B1B683E331B78042BACD923009E33B1
:105070001988042000F0A0FD0028A4D01A4DFFF7E5
:10508000E4FA0D4B1B683E331B78052B9ED9230099
:10509000A0331988052000F08FFD002896D0134D0D
:1050A000FFF7D3FA002B25D100F010FE002821D005
:1050B0000F4DFFF7CAFAC0461C0B0208000027403C
:1050C0004E0F1A0140420F005A0F1A015F0F1A01CA
:1050D000B80B00004F0F1A010F0F1A014D0F1A01E4
:1050E000400D03004C0F1A014B0F1A014A0F1A0111
:1050F0003F0F1A012300A53302931978002000F016
:1051000063FB002800D03EE72300A633197800F0A7
:1051100083FB002800D036E73388BB4217D0C34F4B
:105120003B683F331B78002B75D0012000F0D2FE86
:10513000A37A00281CD0002B38D102F0EBF9012013
:1051400000F0DCFE002831D0B94DFFF77EFA029B5B
:105150001B78002BE3D1637B002B00D1A3E6230057
:1051600098331988012000F027FD0028D7D09AE64F
:10517000002B1BD0230084331B7805AE3370230033
:1051800085331B787370230086331B78B37023003C
:1051900087331B78F370230088331B78337102F058
:1051A000B9F931000120FFF7E9F8CBE73B683F335D
:1051B0001B78012B2FD9022000F08CFEE37A002807
:1051C0000BD0002B27D102F0A5F9022000F096FEAB
:1051D000002820D0974DFFF738FA002B1BD0230072
:1051E00090331B7805AE3370230091331B787370B6
:1051F000230092331B78B370230093331B78F37032
:10520000230094331B78337102F084F931000220BB
:10521000FFF7B4F8DCE7012000F0A8FAA37D00282E
:105220001AD0002B10D0022000F0A0FAE37D002855
:105230001DD1002B1DD02300B5331A78013B1978FE
:105240000220FFF7AFF82CE0012000F0A1FA0028BF
:10525000E9D0794DFFF7F9F9002BE4D02300AD3305
:105260001A78013B19780120FFF79CF8EFE7002B33
:1052700014D03B6840331B78032B17D9032000F070
:1052800075FA237E002826D0002B0FD1032000F0D2
:105290007FFA00280AD0694DFFF7D7F9022000F005
:1052A00077FA0028E5D0664DFFF7CFF93B68403329
:1052B0001B78042B1AD9042000F058FA637E0028CA
:1052C0002FD0002B12D1042000F062FA00280DD05C
:1052D0005C4DFFF7BAF9002BE8D02300BD331A78F4
:1052E000013B19780320FFF75DF8D2E73B684033B4
:1052F0001B78052B20D800F0C3F9A37F002836D1F6
:10530000002B38D02300D8331F889E7800F0C2F9D4
:10531000380000F085F9300000F096F900F0A4F9AB
:1053200029E0002BE2D02300C5331A78013B19781D
:105330000420FFF737F8C9E7052000F017FAA37E2D
:10534000002809D0002BD6D1052000F021FA002832
:10535000D1D03D4DFFF779F9002BCCD02300CD33D0
:105360001A78013B19780520FFF71CF8EFE7002BAE
:1053700001D100F08FF900F02DF9E37E002819D05B
:10538000002B01D100F030F9637F002B04D0230003
:10539000D733187800F034F923002C4F55331E789A
:1053A0003B78B3421BD002F009F8002813D0284DF7
:1053B000FFF74BF9002BE7D02300D4331F785E783A
:1053C00000F012F9380000F0D5F8300000F0E4F8F1
:1053D00000F0F4F8D8E7300000F0E0FA3E7000F09A
:1053E000BDFAE379002835D0002B0ED1A32001F0BF
:1053F000E1F800F0B3FA002807D001F0DFFF002841
:10540000D5D100F0B5FA0028D1D12378002B08D0EF
:10541000637D002B05D02300A8332079196801F0A3
:105420001DF902F077F8FFF710F9C0461C0B0208CF
:105430002F0F1A012E0F1A019E0F1A019C0F1A012D
:105440009D0F1A019B0F1A019A0F1A0140070208BB
:105450005C0F1A01002BD8D000F080FA0028D4D1BC
:1054600001F0ACFF0028A2D100F06CFACDE7104D9E
:10547000FFF7EBF80F4DFFF7E8F80F4DFFF7E5F8F2
:105480000E4DFFF7E2F80E4DFFF7DFF80D4DFFF779
:10549000DCF80D4DFFF7D9F80C4DFFF7D6F80C4DA1
:1054A000FFF7D3F80B4DFFF7D0F80B4DFFF7CDF812
:1054B000FE0F1A01EF0F1A01EE0F1A01DF0F1A018A
:1054C000DE0F1A01DD0F1A01DC0F1A01DB0F1A01C2
:1054D000DA0F1A01CF0F1A011F0F1A017047704718
:1054E000F0230A041B0330B51A400F240B0023409D
:1054F0001A43084B1D68830228691B188020C001CD
:105500001A5018582040401A411E88410249404212
:10551000084030BD1C0B02080300C200044B1030D1
:105520001B6880021B69C0580F2318407047C04693
:105530001C0B0208064B00021B68190088311A6810
:105540000B680449D21813680B4018431060704769
:105550001C0B0208FF00FFFF054B1B681A00883276
:105560001B6812689B181868000AC0B27047C046D2
:105570001C0B020810B5A022F0240549D20024011A
:1055800000028B582040034C23401843885010BD24
:1055900000002640FFF0FFFF10B5A022E0240549DF
:1055A000D200E40100038B582040034C23401843F1
:1055B000885010BD00002640FF8FFFFFA0228023EF
:1055C0000349D20088581B0203438B507047C046E2
:1055D00000002640A023034ADB00D0580004C00F7F
:1055E0007047C04600002640A0220349D2008B58D5
:1055F000024803408B50704700002640FF7FFFFFAA
:10560000C021054A890000021368084003490B4085
:10561000184310607047C04600002740FFFCFFFFA2
:105620000549064A10B58B58054C2340054C2040CF
:105630001843885010BDC0460000264004050000F5
:10564000FEFCFFFF010300000449054A10B58B581A
:10565000044C000423401843885010BD000026402D
:1056600004050000FFFF00FF80230349034A1B06D7
:10567000885803438B507047000026400405000003
:10568000024A034BD058C00F7047C0460000264066
:10569000040500000349044A8B585B005B088B50EB
:1056A0007047C0460000264004050000A02210B547
:1056B00003240449D2008B582040A3431843885048
:1056C00010BDC04600002640A023034ADB00D0588E
:1056D000032318407047C04600002640064B0006D2
:1056E0001B68190088311A680B68D21813681B02EE
:1056F0001B0A1843106070471C0B0208044B1B6800
:105700001A0088321B6812689B181868000E7047D0
:105710001C0B0208064B00021B6819008C311A682A
:105720000B680449D21813680B4018431060704787
:105730001C0B0208FF00FFFF094B1B6840331B785E
:1057400083420BD9074BE0228000C01880239200CF
:1057500081581B060B438350002070470248FCE72A
:105760001C0B02080000264001004A00064A030004
:1057700012680020403212789A4204D9E033034A7A
:105780009B009858C00F70471C0B02080000264071
:10579000002810D0094B1B6840331B7883420AD97C
:1057A000E022074B8000C018920083585B005B0822
:1057B0008350002070470348FCE7C0461C0B0208DA
:1057C0000000264001004A0010B50B4B1B68403317
:1057D0001B7883420DD90F290BD8E0220F24074BE9
:1057E0008000C01892008358A343194381500020C1
:1057F00010BD0348FCE7C0461C0B02080000264011
:1058000001004A00034BE0308000C0580F231840CD
:105810007047C0460000264010B50B4B1B68403354
:105820001B7883420ED903290CD8E0223024074B81
:105830008000C018920083580901A3431943815086
:10584000002010BD0248FCE71C0B020800002640A7
:1058500001004A00024B18694007C00F7047C0465C
:1058600000002740082310B504000B4A11680B43C1
:105870001360FFF7EFFF002808D1002C01D1074883
:1058800010BD012000F096FE013CF2E7604260414D
:10589000024C40422040F3E70000274002004A004B
:1058A0000821024A13688B431360704700002740A9
:1058B0008021054A490200041368084003490B404F
:1058C000184310607047C04600002740FFFFFEFFEE
:1058D000802370B5074D084C1B062A59012013433D
:1058E0002B5100F04DFEC0232A59DB0513432B51E9
:1058F00070BDC046000026403C050000024A034B34
:10590000D0588000C00F7047000026403C050000C2
:105910000349044A8B58DB00DB088B507047C046B4
:10592000000026403C0500000449054A80058B58CC
:10593000800D9B0A9B021843885070470000264048
:105940003C05000080230349034A1B068858034393
:105950008B507047000026400C050000024A034BA4
:10596000D058C00F7047C046000026400C0500000C
:10597000C023074A5B00D058803BFF3B184005D14D
:10598000044953585B005B08535070470248FCE7DA
:10599000000026400C05000003004A0010B5012459
:1059A0000349044A8B58A3431843885010BDC0468E
:1059B000000026400C050000024B984201D8024B23
:1059C0001860704700E1F5054C0702080349044AD6
:1059D0008B585B005B088B507047C0460000264028
:1059E0002C050000A6220549D2008B580220DB437B
:1059F0009B0702D0012388581840704700002640BA
:105A0000F0B516001F003B4A3B4B0C00D15885B047
:105A1000029001920393002967DB3849384A431802
:105A2000934264D8631E632B61D8364A731E934237
:105A30005DD8354A7B1E934259D8FA21F53089004A
:105A4000FF3001F057FE0500304831004743700831
:105A5000381801F04FFE80228446102300201202E5
:105A6000010011430F004F43BC4500D30800013B28
:105A70005208002BF4D12900254B614358434B08B1
:105A8000C01801F037FE234B984230D96D43224BAA
:105A90002249E81801F02EFE64436043642132304D
:105AA00001F028FE1E49704301F024FE03281ED891
:105AB000012801D8012358401A4A019B1A499B58D2
:105AC00000031940194B0B431843019B039998504D
:105AD000019B039A00209A5802231343019A5350C2
:105AE000134B029A1A6005B0F0BD1248FBE712484A
:105AF000F9E7C046000026402C05000000DC0BFF43
:105B0000C0EA2101E7030000CF07000080841E00E7
:105B1000B36D0200890200005DF70000BBEE0100DA
:105B2000A0BB0D0020FF000008C0FFFFF70300002E
:105B30005007020803004A0001004A00F8B5144C5F
:105B4000144D07006359002B1FDB802306006259A8
:105B50001B0613436351FFF745FF02280AD0002EAE
:105B600003D13000002F0FD009E0012000F022FD0A
:105B7000013EF0E7381E07D00020864204D1635969
:105B800005485B005B086351F8BD0448FCE7C0466C
:105B9000000026402C05000002004A0003004A00D5
:105BA00010B5FFF71FFF0023022801D1014B1B682E
:105BB000180010BD50070208104B1B683E331B78BD
:105BC000834219D9042910D94B1EFF3B132B13D83C
:105BD0001F2319400A4B8000C018C02304229B00D9
:105BE000C1504033C250002070470723D0301940C5
:105BF000034B8000C150F6E70248F5E71C0B020892
:105C00000000264001004A00094A83009B18D02268
:105C10009200985807221040042807D1C022920011
:105C200098581F2303408020400018437047C04607
:105C30000000264010B5FFF7E7FF02281CD005D86A
:105C4000002824D0012814D0002014E01223FF33B0
:105C5000984214D01423FF33984215D0033B984246
:105C6000F2D10C4A0C4BD358002BEDDA8020000205
:105C700001E00A4B186810BDFFF792FFFBE7FFF742
:105C8000E9FD0028E0D0F1E7024A054BEBE70548C3
:105C9000F1E7C046000026400C0500004C07020852
:105CA0003C05000000127A00B023024ADB00D05805
:105CB000C00F704700002640B223034ADB00D058D3
:105CC000012318407047C04600002640B1200B4B0E
:105CD000C0001A580A491140802292050A43B02197
:105CE0001A50C9005A580020520052085A5005490B
:105CF0005A58520052085A507047C0460000264079
:105D0000FFFFFFCF8C05000070B5B024224AE400ED
:105D10001359002B3DDBC17903684D1EA9419B033C
:105D200009069B0B0B431351038984881B491B04F1
:105D3000E4040B40E40C2343194C1A4D1351FF2487
:105D4000C37AE0261B0123408489F60024022C40FC
:105D50000F252343847A2C40C0252343847BAD0543
:105D600024072C402343B124E400135183790E4CC3
:105D70001B02155933400D4E35402B431351038AF6
:105D800000201B0415590B40094929400B431351AE
:105D900070BD0848FCE7C046000026400000FF0137
:105DA0008405000000FF1F008C050000FFF8FFFFC6
:105DB000FFFF00FE03004A00B023154ADB00D35862
:105DC00010B59903DB01DB0F890BC371114B016027
:105DD000D3580F24D904DB01DB0D0381B123DB0091
:105DE000D358C90C818019002140817219092140C2
:105DF000C172D9029B009B0F8373074BC90CD35808
:105E000081815A05DB01520FDB0D8271038210BDC7
:105E100000002640840500008C050000F8B58023B2
:105E2000060005000427264C264A1B06A1580B43F2
:105E3000A350B223DB00E3583B4201D1002D1FD118
:105E4000B121C9006358204A1A4080239B0513439F
:105E50006350002E01D0002D06D0B0228023D20046
:105E6000A1581B060B43A350FFF726FF002811D1B2
:105E7000002D0AD1002E11D0FFF728FF1348F8BDDE
:105E8000012000F097FB013DD3E7012000F092FBD9
:105E9000013DE9E7002E01D0002DEDD0B122C02355
:105EA0000020D200A1589B050B43A3508642E6D0A8
:105EB000681E85416842064D044B2840C018DEE745
:105EC000000026408C050000FFFFFFCF02004A00C3
:105ED000FEFFB5FF8030034BFF308000C058C00F7D
